{
	"Auction.sol": {
		"Auction": {
			"abi": [
				{
					"inputs": [
						{
							"internalType": "uint256",
							"name": "biddingTime",
							"type": "uint256"
						},
						{
							"internalType": "address payable",
							"name": "beneficiaryAddress",
							"type": "address"
						},
						{
							"internalType": "uint256",
							"name": "lowPrice",
							"type": "uint256"
						},
						{
							"internalType": "uint256",
							"name": "highPrice",
							"type": "uint256"
						}
					],
					"stateMutability": "nonpayable",
					"type": "constructor"
				},
				{
					"inputs": [],
					"name": "AuctionAlreadyEnded",
					"type": "error"
				},
				{
					"inputs": [],
					"name": "AuctionEndAlreadyCalled",
					"type": "error"
				},
				{
					"inputs": [],
					"name": "AuctionNotYetEnded",
					"type": "error"
				},
				{
					"inputs": [],
					"name": "BidHigherThanHighestPrice",
					"type": "error"
				},
				{
					"inputs": [],
					"name": "BidLowerThanLowestPrice",
					"type": "error"
				},
				{
					"inputs": [
						{
							"internalType": "uint256",
							"name": "highestBid",
							"type": "uint256"
						}
					],
					"name": "BidNotHighEnough",
					"type": "error"
				},
				{
					"anonymous": false,
					"inputs": [
						{
							"indexed": false,
							"internalType": "address",
							"name": "winner",
							"type": "address"
						},
						{
							"indexed": false,
							"internalType": "uint256",
							"name": "amount",
							"type": "uint256"
						}
					],
					"name": "AuctionEnded",
					"type": "event"
				},
				{
					"anonymous": false,
					"inputs": [
						{
							"indexed": false,
							"internalType": "address",
							"name": "bidder",
							"type": "address"
						},
						{
							"indexed": false,
							"internalType": "uint256",
							"name": "amount",
							"type": "uint256"
						}
					],
					"name": "HighestBidIncreased",
					"type": "event"
				},
				{
					"inputs": [],
					"name": "auctionEnd",
					"outputs": [],
					"stateMutability": "nonpayable",
					"type": "function"
				},
				{
					"inputs": [],
					"name": "auctionEndTime",
					"outputs": [
						{
							"internalType": "uint256",
							"name": "",
							"type": "uint256"
						}
					],
					"stateMutability": "view",
					"type": "function"
				},
				{
					"inputs": [],
					"name": "beneficiary",
					"outputs": [
						{
							"internalType": "address payable",
							"name": "",
							"type": "address"
						}
					],
					"stateMutability": "view",
					"type": "function"
				},
				{
					"inputs": [],
					"name": "bid",
					"outputs": [],
					"stateMutability": "payable",
					"type": "function"
				},
				{
					"inputs": [],
					"name": "findLastNode",
					"outputs": [
						{
							"internalType": "uint256",
							"name": "",
							"type": "uint256"
						}
					],
					"stateMutability": "view",
					"type": "function"
				},
				{
					"inputs": [],
					"name": "firstBidder",
					"outputs": [
						{
							"internalType": "address",
							"name": "",
							"type": "address"
						}
					],
					"stateMutability": "view",
					"type": "function"
				},
				{
					"inputs": [
						{
							"internalType": "address",
							"name": "bidderAddress",
							"type": "address"
						}
					],
					"name": "getCurrrentBid",
					"outputs": [
						{
							"internalType": "uint256",
							"name": "",
							"type": "uint256"
						}
					],
					"stateMutability": "nonpayable",
					"type": "function"
				},
				{
					"inputs": [],
					"name": "getHighestBid",
					"outputs": [
						{
							"internalType": "uint256",
							"name": "",
							"type": "uint256"
						}
					],
					"stateMutability": "nonpayable",
					"type": "function"
				},
				{
					"inputs": [],
					"name": "getHighestBidder",
					"outputs": [
						{
							"internalType": "address",
							"name": "",
							"type": "address"
						}
					],
					"stateMutability": "nonpayable",
					"type": "function"
				},
				{
					"inputs": [],
					"name": "highestBid",
					"outputs": [
						{
							"internalType": "uint256",
							"name": "",
							"type": "uint256"
						}
					],
					"stateMutability": "view",
					"type": "function"
				},
				{
					"inputs": [],
					"name": "highestBidder",
					"outputs": [
						{
							"internalType": "address",
							"name": "",
							"type": "address"
						}
					],
					"stateMutability": "view",
					"type": "function"
				},
				{
					"inputs": [],
					"name": "highestPrice",
					"outputs": [
						{
							"internalType": "uint256",
							"name": "",
							"type": "uint256"
						}
					],
					"stateMutability": "view",
					"type": "function"
				},
				{
					"inputs": [],
					"name": "lowestPrice",
					"outputs": [
						{
							"internalType": "uint256",
							"name": "",
							"type": "uint256"
						}
					],
					"stateMutability": "view",
					"type": "function"
				},
				{
					"inputs": [],
					"name": "withdraw",
					"outputs": [
						{
							"internalType": "bool",
							"name": "",
							"type": "bool"
						}
					],
					"stateMutability": "nonpayable",
					"type": "function"
				},
				{
					"inputs": [],
					"name": "withdrawAll",
					"outputs": [
						{
							"internalType": "bool",
							"name": "",
							"type": "bool"
						}
					],
					"stateMutability": "nonpayable",
					"type": "function"
				}
			],
			"devdoc": {
				"kind": "dev",
				"methods": {},
				"version": 1
			},
			"evm": {
				"assembly": "    /* \"Auction.sol\":170:5148  contract Auction {... */\n  mstore(0x40, 0x80)\n    /* \"Auction.sol\":1088:1496  constructor(... */\n  callvalue\n  dup1\n  iszero\n  tag_1\n  jumpi\n  0x00\n  dup1\n  revert\ntag_1:\n  pop\n  mload(0x40)\n  sub(codesize, bytecodeSize)\n  dup1\n  bytecodeSize\n  dup4\n  codecopy\n  dup2\n  dup2\n  add\n  0x40\n  mstore\n  dup2\n  add\n  swap1\n  tag_2\n  swap2\n  swap1\n  tag_3\n  jump\t// in\ntag_2:\n    /* \"Auction.sol\":1253:1271  beneficiaryAddress */\n  dup3\n    /* \"Auction.sol\":1239:1250  beneficiary */\n  0x00\n  dup1\n    /* \"Auction.sol\":1239:1271  beneficiary = beneficiaryAddress */\n  0x0100\n  exp\n  dup2\n  sload\n  dup2\n  0xffffffffffffffffffffffffffffffffffffffff\n  mul\n  not\n  and\n  swap1\n  dup4\n  0xffffffffffffffffffffffffffffffffffffffff\n  and\n  mul\n  or\n  swap1\n  sstore\n  pop\n    /* \"Auction.sol\":1317:1328  biddingTime */\n  dup4\n    /* \"Auction.sol\":1299:1314  block.timestamp */\n  timestamp\n    /* \"Auction.sol\":1299:1328  block.timestamp + biddingTime */\n  tag_6\n  swap2\n  swap1\n  tag_7\n  jump\t// in\ntag_6:\n    /* \"Auction.sol\":1282:1296  auctionEndTime */\n  0x01\n    /* \"Auction.sol\":1282:1328  auctionEndTime = block.timestamp + biddingTime */\n  dup2\n  swap1\n  sstore\n  pop\n    /* \"Auction.sol\":1365:1369  1e18 */\n  0x0de0b6b3a7640000\n    /* \"Auction.sol\":1353:1361  lowPrice */\n  dup3\n    /* \"Auction.sol\":1353:1370  lowPrice * (1e18) */\n  tag_8\n  swap2\n  swap1\n  tag_9\n  jump\t// in\ntag_8:\n    /* \"Auction.sol\":1339:1350  lowestPrice */\n  0x02\n    /* \"Auction.sol\":1339:1370  lowestPrice = lowPrice * (1e18) */\n  dup2\n  swap1\n  sstore\n  pop\n    /* \"Auction.sol\":1446:1450  1e18 */\n  0x0de0b6b3a7640000\n    /* \"Auction.sol\":1433:1442  highPrice */\n  dup2\n    /* \"Auction.sol\":1433:1451  highPrice * (1e18) */\n  tag_10\n  swap2\n  swap1\n  tag_9\n  jump\t// in\ntag_10:\n    /* \"Auction.sol\":1418:1430  highestPrice */\n  0x03\n    /* \"Auction.sol\":1418:1451  highestPrice = highPrice * (1e18) */\n  dup2\n  swap1\n  sstore\n  pop\n    /* \"Auction.sol\":1088:1496  constructor(... */\n  pop\n  pop\n  pop\n  pop\n    /* \"Auction.sol\":170:5148  contract Auction {... */\n  jump(tag_11)\n    /* \"#utility.yul\":88:205   */\ntag_13:\n    /* \"#utility.yul\":197:198   */\n  0x00\n    /* \"#utility.yul\":194:195   */\n  dup1\n    /* \"#utility.yul\":187:199   */\n  revert\n    /* \"#utility.yul\":334:411   */\ntag_15:\n    /* \"#utility.yul\":371:378   */\n  0x00\n    /* \"#utility.yul\":400:405   */\n  dup2\n    /* \"#utility.yul\":389:405   */\n  swap1\n  pop\n    /* \"#utility.yul\":334:411   */\n  swap2\n  swap1\n  pop\n  jump\t// out\n    /* \"#utility.yul\":417:539   */\ntag_16:\n    /* \"#utility.yul\":490:514   */\n  tag_29\n    /* \"#utility.yul\":508:513   */\n  dup2\n    /* \"#utility.yul\":490:514   */\n  tag_15\n  jump\t// in\ntag_29:\n    /* \"#utility.yul\":483:488   */\n  dup2\n    /* \"#utility.yul\":480:515   */\n  eq\n    /* \"#utility.yul\":470:533   */\n  tag_30\n  jumpi\n    /* \"#utility.yul\":529:530   */\n  0x00\n    /* \"#utility.yul\":526:527   */\n  dup1\n    /* \"#utility.yul\":519:531   */\n  revert\n    /* \"#utility.yul\":470:533   */\ntag_30:\n    /* \"#utility.yul\":417:539   */\n  pop\n  jump\t// out\n    /* \"#utility.yul\":545:688   */\ntag_17:\n    /* \"#utility.yul\":602:607   */\n  0x00\n    /* \"#utility.yul\":633:639   */\n  dup2\n    /* \"#utility.yul\":627:640   */\n  mload\n    /* \"#utility.yul\":618:640   */\n  swap1\n  pop\n    /* \"#utility.yul\":649:682   */\n  tag_32\n    /* \"#utility.yul\":676:681   */\n  dup2\n    /* \"#utility.yul\":649:682   */\n  tag_16\n  jump\t// in\ntag_32:\n    /* \"#utility.yul\":545:688   */\n  swap3\n  swap2\n  pop\n  pop\n  jump\t// out\n    /* \"#utility.yul\":694:820   */\ntag_18:\n    /* \"#utility.yul\":731:738   */\n  0x00\n    /* \"#utility.yul\":771:813   */\n  0xffffffffffffffffffffffffffffffffffffffff\n    /* \"#utility.yul\":764:769   */\n  dup3\n    /* \"#utility.yul\":760:814   */\n  and\n    /* \"#utility.yul\":749:814   */\n  swap1\n  pop\n    /* \"#utility.yul\":694:820   */\n  swap2\n  swap1\n  pop\n  jump\t// out\n    /* \"#utility.yul\":826:930   */\ntag_19:\n    /* \"#utility.yul\":871:878   */\n  0x00\n    /* \"#utility.yul\":900:924   */\n  tag_35\n    /* \"#utility.yul\":918:923   */\n  dup3\n    /* \"#utility.yul\":900:924   */\n  tag_18\n  jump\t// in\ntag_35:\n    /* \"#utility.yul\":889:924   */\n  swap1\n  pop\n    /* \"#utility.yul\":826:930   */\n  swap2\n  swap1\n  pop\n  jump\t// out\n    /* \"#utility.yul\":936:1074   */\ntag_20:\n    /* \"#utility.yul\":1017:1049   */\n  tag_37\n    /* \"#utility.yul\":1043:1048   */\n  dup2\n    /* \"#utility.yul\":1017:1049   */\n  tag_19\n  jump\t// in\ntag_37:\n    /* \"#utility.yul\":1010:1015   */\n  dup2\n    /* \"#utility.yul\":1007:1050   */\n  eq\n    /* \"#utility.yul\":997:1068   */\n  tag_38\n  jumpi\n    /* \"#utility.yul\":1064:1065   */\n  0x00\n    /* \"#utility.yul\":1061:1062   */\n  dup1\n    /* \"#utility.yul\":1054:1066   */\n  revert\n    /* \"#utility.yul\":997:1068   */\ntag_38:\n    /* \"#utility.yul\":936:1074   */\n  pop\n  jump\t// out\n    /* \"#utility.yul\":1080:1239   */\ntag_21:\n    /* \"#utility.yul\":1145:1150   */\n  0x00\n    /* \"#utility.yul\":1176:1182   */\n  dup2\n    /* \"#utility.yul\":1170:1183   */\n  mload\n    /* \"#utility.yul\":1161:1183   */\n  swap1\n  pop\n    /* \"#utility.yul\":1192:1233   */\n  tag_40\n    /* \"#utility.yul\":1227:1232   */\n  dup2\n    /* \"#utility.yul\":1192:1233   */\n  tag_20\n  jump\t// in\ntag_40:\n    /* \"#utility.yul\":1080:1239   */\n  swap3\n  swap2\n  pop\n  pop\n  jump\t// out\n    /* \"#utility.yul\":1245:2081   */\ntag_3:\n    /* \"#utility.yul\":1350:1356   */\n  0x00\n    /* \"#utility.yul\":1358:1364   */\n  dup1\n    /* \"#utility.yul\":1366:1372   */\n  0x00\n    /* \"#utility.yul\":1374:1380   */\n  dup1\n    /* \"#utility.yul\":1423:1426   */\n  0x80\n    /* \"#utility.yul\":1411:1420   */\n  dup6\n    /* \"#utility.yul\":1402:1409   */\n  dup8\n    /* \"#utility.yul\":1398:1421   */\n  sub\n    /* \"#utility.yul\":1394:1427   */\n  slt\n    /* \"#utility.yul\":1391:1511   */\n  iszero\n  tag_42\n  jumpi\n    /* \"#utility.yul\":1430:1509   */\n  tag_43\n  tag_13\n  jump\t// in\ntag_43:\n    /* \"#utility.yul\":1391:1511   */\ntag_42:\n    /* \"#utility.yul\":1550:1551   */\n  0x00\n    /* \"#utility.yul\":1575:1639   */\n  tag_44\n    /* \"#utility.yul\":1631:1638   */\n  dup8\n    /* \"#utility.yul\":1622:1628   */\n  dup3\n    /* \"#utility.yul\":1611:1620   */\n  dup9\n    /* \"#utility.yul\":1607:1629   */\n  add\n    /* \"#utility.yul\":1575:1639   */\n  tag_17\n  jump\t// in\ntag_44:\n    /* \"#utility.yul\":1565:1639   */\n  swap5\n  pop\n    /* \"#utility.yul\":1521:1649   */\n  pop\n    /* \"#utility.yul\":1688:1690   */\n  0x20\n    /* \"#utility.yul\":1714:1786   */\n  tag_45\n    /* \"#utility.yul\":1778:1785   */\n  dup8\n    /* \"#utility.yul\":1769:1775   */\n  dup3\n    /* \"#utility.yul\":1758:1767   */\n  dup9\n    /* \"#utility.yul\":1754:1776   */\n  add\n    /* \"#utility.yul\":1714:1786   */\n  tag_21\n  jump\t// in\ntag_45:\n    /* \"#utility.yul\":1704:1786   */\n  swap4\n  pop\n    /* \"#utility.yul\":1659:1796   */\n  pop\n    /* \"#utility.yul\":1835:1837   */\n  0x40\n    /* \"#utility.yul\":1861:1925   */\n  tag_46\n    /* \"#utility.yul\":1917:1924   */\n  dup8\n    /* \"#utility.yul\":1908:1914   */\n  dup3\n    /* \"#utility.yul\":1897:1906   */\n  dup9\n    /* \"#utility.yul\":1893:1915   */\n  add\n    /* \"#utility.yul\":1861:1925   */\n  tag_17\n  jump\t// in\ntag_46:\n    /* \"#utility.yul\":1851:1925   */\n  swap3\n  pop\n    /* \"#utility.yul\":1806:1935   */\n  pop\n    /* \"#utility.yul\":1974:1976   */\n  0x60\n    /* \"#utility.yul\":2000:2064   */\n  tag_47\n    /* \"#utility.yul\":2056:2063   */\n  dup8\n    /* \"#utility.yul\":2047:2053   */\n  dup3\n    /* \"#utility.yul\":2036:2045   */\n  dup9\n    /* \"#utility.yul\":2032:2054   */\n  add\n    /* \"#utility.yul\":2000:2064   */\n  tag_17\n  jump\t// in\ntag_47:\n    /* \"#utility.yul\":1990:2064   */\n  swap2\n  pop\n    /* \"#utility.yul\":1945:2074   */\n  pop\n    /* \"#utility.yul\":1245:2081   */\n  swap3\n  swap6\n  swap2\n  swap5\n  pop\n  swap3\n  pop\n  jump\t// out\n    /* \"#utility.yul\":2087:2267   */\ntag_22:\n    /* \"#utility.yul\":2135:2212   */\n  0x4e487b7100000000000000000000000000000000000000000000000000000000\n    /* \"#utility.yul\":2132:2133   */\n  0x00\n    /* \"#utility.yul\":2125:2213   */\n  mstore\n    /* \"#utility.yul\":2232:2236   */\n  0x11\n    /* \"#utility.yul\":2229:2230   */\n  0x04\n    /* \"#utility.yul\":2222:2237   */\n  mstore\n    /* \"#utility.yul\":2256:2260   */\n  0x24\n    /* \"#utility.yul\":2253:2254   */\n  0x00\n    /* \"#utility.yul\":2246:2261   */\n  revert\n    /* \"#utility.yul\":2273:2464   */\ntag_7:\n    /* \"#utility.yul\":2313:2316   */\n  0x00\n    /* \"#utility.yul\":2332:2352   */\n  tag_50\n    /* \"#utility.yul\":2350:2351   */\n  dup3\n    /* \"#utility.yul\":2332:2352   */\n  tag_15\n  jump\t// in\ntag_50:\n    /* \"#utility.yul\":2327:2352   */\n  swap2\n  pop\n    /* \"#utility.yul\":2366:2386   */\n  tag_51\n    /* \"#utility.yul\":2384:2385   */\n  dup4\n    /* \"#utility.yul\":2366:2386   */\n  tag_15\n  jump\t// in\ntag_51:\n    /* \"#utility.yul\":2361:2386   */\n  swap3\n  pop\n    /* \"#utility.yul\":2409:2410   */\n  dup3\n    /* \"#utility.yul\":2406:2407   */\n  dup3\n    /* \"#utility.yul\":2402:2411   */\n  add\n    /* \"#utility.yul\":2395:2411   */\n  swap1\n  pop\n    /* \"#utility.yul\":2430:2433   */\n  dup1\n    /* \"#utility.yul\":2427:2428   */\n  dup3\n    /* \"#utility.yul\":2424:2434   */\n  gt\n    /* \"#utility.yul\":2421:2457   */\n  iszero\n  tag_52\n  jumpi\n    /* \"#utility.yul\":2437:2455   */\n  tag_53\n  tag_22\n  jump\t// in\ntag_53:\n    /* \"#utility.yul\":2421:2457   */\ntag_52:\n    /* \"#utility.yul\":2273:2464   */\n  swap3\n  swap2\n  pop\n  pop\n  jump\t// out\n    /* \"#utility.yul\":2470:2880   */\ntag_9:\n    /* \"#utility.yul\":2510:2517   */\n  0x00\n    /* \"#utility.yul\":2533:2553   */\n  tag_55\n    /* \"#utility.yul\":2551:2552   */\n  dup3\n    /* \"#utility.yul\":2533:2553   */\n  tag_15\n  jump\t// in\ntag_55:\n    /* \"#utility.yul\":2528:2553   */\n  swap2\n  pop\n    /* \"#utility.yul\":2567:2587   */\n  tag_56\n    /* \"#utility.yul\":2585:2586   */\n  dup4\n    /* \"#utility.yul\":2567:2587   */\n  tag_15\n  jump\t// in\ntag_56:\n    /* \"#utility.yul\":2562:2587   */\n  swap3\n  pop\n    /* \"#utility.yul\":2622:2623   */\n  dup3\n    /* \"#utility.yul\":2619:2620   */\n  dup3\n    /* \"#utility.yul\":2615:2624   */\n  mul\n    /* \"#utility.yul\":2644:2674   */\n  tag_57\n    /* \"#utility.yul\":2662:2673   */\n  dup2\n    /* \"#utility.yul\":2644:2674   */\n  tag_15\n  jump\t// in\ntag_57:\n    /* \"#utility.yul\":2633:2674   */\n  swap2\n  pop\n    /* \"#utility.yul\":2823:2824   */\n  dup3\n    /* \"#utility.yul\":2814:2821   */\n  dup3\n    /* \"#utility.yul\":2810:2825   */\n  div\n    /* \"#utility.yul\":2807:2808   */\n  dup5\n    /* \"#utility.yul\":2804:2826   */\n  eq\n    /* \"#utility.yul\":2784:2785   */\n  dup4\n    /* \"#utility.yul\":2777:2786   */\n  iszero\n    /* \"#utility.yul\":2757:2840   */\n  or\n    /* \"#utility.yul\":2734:2873   */\n  tag_58\n  jumpi\n    /* \"#utility.yul\":2853:2871   */\n  tag_59\n  tag_22\n  jump\t// in\ntag_59:\n    /* \"#utility.yul\":2734:2873   */\ntag_58:\n    /* \"#utility.yul\":2518:2880   */\n  pop\n    /* \"#utility.yul\":2470:2880   */\n  swap3\n  swap2\n  pop\n  pop\n  jump\t// out\n    /* \"Auction.sol\":170:5148  contract Auction {... */\ntag_11:\n  dataSize(sub_0)\n  dup1\n  dataOffset(sub_0)\n  0x00\n  codecopy\n  0x00\n  return\nstop\n\nsub_0: assembly {\n        /* \"Auction.sol\":170:5148  contract Auction {... */\n      mstore(0x40, 0x80)\n      jumpi(tag_1, lt(calldatasize, 0x04))\n      shr(0xe0, calldataload(0x00))\n      dup1\n      0x3d087c2c\n      gt\n      tag_17\n      jumpi\n      dup1\n      0x91f90157\n      gt\n      tag_18\n      jumpi\n      dup1\n      0x91f90157\n      eq\n      tag_13\n      jumpi\n      dup1\n      0xbdb39373\n      eq\n      tag_14\n      jumpi\n      dup1\n      0xbe29b056\n      eq\n      tag_15\n      jumpi\n      dup1\n      0xd57bde79\n      eq\n      tag_16\n      jumpi\n      jump(tag_1)\n    tag_18:\n      dup1\n      0x3d087c2c\n      eq\n      tag_9\n      jumpi\n      dup1\n      0x4979440a\n      eq\n      tag_10\n      jumpi\n      dup1\n      0x4b449cba\n      eq\n      tag_11\n      jumpi\n      dup1\n      0x853828b6\n      eq\n      tag_12\n      jumpi\n      jump(tag_1)\n    tag_17:\n      dup1\n      0x1998aeef\n      gt\n      tag_19\n      jumpi\n      dup1\n      0x1998aeef\n      eq\n      tag_5\n      jumpi\n      dup1\n      0x2a24f46c\n      eq\n      tag_6\n      jumpi\n      dup1\n      0x38af3eed\n      eq\n      tag_7\n      jumpi\n      dup1\n      0x3ccfd60b\n      eq\n      tag_8\n      jumpi\n      jump(tag_1)\n    tag_19:\n      dup1\n      0x3495a4\n      eq\n      tag_2\n      jumpi\n      dup1\n      0x070d350c\n      eq\n      tag_3\n      jumpi\n      dup1\n      0x0e8670e0\n      eq\n      tag_4\n      jumpi\n    tag_1:\n      0x00\n      dup1\n      revert\n        /* \"Auction.sol\":3188:3282  function getHighestBidder() external returns (address) {... */\n    tag_2:\n      callvalue\n      dup1\n      iszero\n      tag_20\n      jumpi\n      0x00\n      dup1\n      revert\n    tag_20:\n      pop\n      tag_21\n      tag_22\n      jump\t// in\n    tag_21:\n      mload(0x40)\n      tag_23\n      swap2\n      swap1\n      tag_24\n      jump\t// in\n    tag_23:\n      mload(0x40)\n      dup1\n      swap2\n      sub\n      swap1\n      return\n        /* \"Auction.sol\":4901:5145  function findLastNode() view public returns (uint) {... */\n    tag_3:\n      callvalue\n      dup1\n      iszero\n      tag_25\n      jumpi\n      0x00\n      dup1\n      revert\n    tag_25:\n      pop\n      tag_26\n      tag_27\n      jump\t// in\n    tag_26:\n      mload(0x40)\n      tag_28\n      swap2\n      swap1\n      tag_29\n      jump\t// in\n    tag_28:\n      mload(0x40)\n      dup1\n      swap2\n      sub\n      swap1\n      return\n        /* \"Auction.sol\":300:324  uint public highestPrice */\n    tag_4:\n      callvalue\n      dup1\n      iszero\n      tag_30\n      jumpi\n      0x00\n      dup1\n      revert\n    tag_30:\n      pop\n      tag_31\n      tag_32\n      jump\t// in\n    tag_31:\n      mload(0x40)\n      tag_33\n      swap2\n      swap1\n      tag_29\n      jump\t// in\n    tag_33:\n      mload(0x40)\n      dup1\n      swap2\n      sub\n      swap1\n      return\n        /* \"Auction.sol\":1504:2742  function bid() external payable { // 입찰... */\n    tag_5:\n      tag_34\n      tag_35\n      jump\t// in\n    tag_34:\n      stop\n        /* \"Auction.sol\":4439:4835  function auctionEnd() external {... */\n    tag_6:\n      callvalue\n      dup1\n      iszero\n      tag_36\n      jumpi\n      0x00\n      dup1\n      revert\n    tag_36:\n      pop\n      tag_37\n      tag_38\n      jump\t// in\n    tag_37:\n      stop\n        /* \"Auction.sol\":196:230  address payable public beneficiary */\n    tag_7:\n      callvalue\n      dup1\n      iszero\n      tag_39\n      jumpi\n      0x00\n      dup1\n      revert\n    tag_39:\n      pop\n      tag_40\n      tag_41\n      jump\t// in\n    tag_40:\n      mload(0x40)\n      tag_42\n      swap2\n      swap1\n      tag_43\n      jump\t// in\n    tag_42:\n      mload(0x40)\n      dup1\n      swap2\n      sub\n      swap1\n      return\n        /* \"Auction.sol\":3332:3696  function withdraw() external returns (bool) {... */\n    tag_8:\n      callvalue\n      dup1\n      iszero\n      tag_44\n      jumpi\n      0x00\n      dup1\n      revert\n    tag_44:\n      pop\n      tag_45\n      tag_46\n      jump\t// in\n    tag_45:\n      mload(0x40)\n      tag_47\n      swap2\n      swap1\n      tag_48\n      jump\t// in\n    tag_47:\n      mload(0x40)\n      dup1\n      swap2\n      sub\n      swap1\n      return\n        /* \"Auction.sol\":2750:3087  function getCurrrentBid(address bidderAddress) external returns (uint) { // 입찰자 지갑 주소로 현재 얼마를 입찰한 상태인지 리턴 ... */\n    tag_9:\n      callvalue\n      dup1\n      iszero\n      tag_49\n      jumpi\n      0x00\n      dup1\n      revert\n    tag_49:\n      pop\n      tag_50\n      0x04\n      dup1\n      calldatasize\n      sub\n      dup2\n      add\n      swap1\n      tag_51\n      swap2\n      swap1\n      tag_52\n      jump\t// in\n    tag_51:\n      tag_53\n      jump\t// in\n    tag_50:\n      mload(0x40)\n      tag_54\n      swap2\n      swap1\n      tag_29\n      jump\t// in\n    tag_54:\n      mload(0x40)\n      dup1\n      swap2\n      sub\n      swap1\n      return\n        /* \"Auction.sol\":3095:3180  function getHighestBid() external returns (uint) {... */\n    tag_10:\n      callvalue\n      dup1\n      iszero\n      tag_55\n      jumpi\n      0x00\n      dup1\n      revert\n    tag_55:\n      pop\n      tag_56\n      tag_57\n      jump\t// in\n    tag_56:\n      mload(0x40)\n      tag_58\n      swap2\n      swap1\n      tag_29\n      jump\t// in\n    tag_58:\n      mload(0x40)\n      dup1\n      swap2\n      sub\n      swap1\n      return\n        /* \"Auction.sol\":237:263  uint public auctionEndTime */\n    tag_11:\n      callvalue\n      dup1\n      iszero\n      tag_59\n      jumpi\n      0x00\n      dup1\n      revert\n    tag_59:\n      pop\n      tag_60\n      tag_61\n      jump\t// in\n    tag_60:\n      mload(0x40)\n      tag_62\n      swap2\n      swap1\n      tag_29\n      jump\t// in\n    tag_62:\n      mload(0x40)\n      dup1\n      swap2\n      sub\n      swap1\n      return\n        /* \"Auction.sol\":3754:4431  function withdrawAll() external returns (bool) {... */\n    tag_12:\n      callvalue\n      dup1\n      iszero\n      tag_63\n      jumpi\n      0x00\n      dup1\n      revert\n    tag_63:\n      pop\n      tag_64\n      tag_65\n      jump\t// in\n    tag_64:\n      mload(0x40)\n      tag_66\n      swap2\n      swap1\n      tag_48\n      jump\t// in\n    tag_66:\n      mload(0x40)\n      dup1\n      swap2\n      sub\n      swap1\n      return\n        /* \"Auction.sol\":331:359  address public highestBidder */\n    tag_13:\n      callvalue\n      dup1\n      iszero\n      tag_67\n      jumpi\n      0x00\n      dup1\n      revert\n    tag_67:\n      pop\n      tag_68\n      tag_69\n      jump\t// in\n    tag_68:\n      mload(0x40)\n      tag_70\n      swap2\n      swap1\n      tag_24\n      jump\t// in\n    tag_70:\n      mload(0x40)\n      dup1\n      swap2\n      sub\n      swap1\n      return\n        /* \"Auction.sol\":395:421  address public firstBidder */\n    tag_14:\n      callvalue\n      dup1\n      iszero\n      tag_71\n      jumpi\n      0x00\n      dup1\n      revert\n    tag_71:\n      pop\n      tag_72\n      tag_73\n      jump\t// in\n    tag_72:\n      mload(0x40)\n      tag_74\n      swap2\n      swap1\n      tag_24\n      jump\t// in\n    tag_74:\n      mload(0x40)\n      dup1\n      swap2\n      sub\n      swap1\n      return\n        /* \"Auction.sol\":270:293  uint public lowestPrice */\n    tag_15:\n      callvalue\n      dup1\n      iszero\n      tag_75\n      jumpi\n      0x00\n      dup1\n      revert\n    tag_75:\n      pop\n      tag_76\n      tag_77\n      jump\t// in\n    tag_76:\n      mload(0x40)\n      tag_78\n      swap2\n      swap1\n      tag_29\n      jump\t// in\n    tag_78:\n      mload(0x40)\n      dup1\n      swap2\n      sub\n      swap1\n      return\n        /* \"Auction.sol\":366:388  uint public highestBid */\n    tag_16:\n      callvalue\n      dup1\n      iszero\n      tag_79\n      jumpi\n      0x00\n      dup1\n      revert\n    tag_79:\n      pop\n      tag_80\n      tag_81\n      jump\t// in\n    tag_80:\n      mload(0x40)\n      tag_82\n      swap2\n      swap1\n      tag_29\n      jump\t// in\n    tag_82:\n      mload(0x40)\n      dup1\n      swap2\n      sub\n      swap1\n      return\n        /* \"Auction.sol\":3188:3282  function getHighestBidder() external returns (address) {... */\n    tag_22:\n        /* \"Auction.sol\":3234:3241  address */\n      0x00\n        /* \"Auction.sol\":3261:3274  highestBidder */\n      0x04\n      0x00\n      swap1\n      sload\n      swap1\n      0x0100\n      exp\n      swap1\n      div\n      0xffffffffffffffffffffffffffffffffffffffff\n      and\n        /* \"Auction.sol\":3254:3274  return highestBidder */\n      swap1\n      pop\n        /* \"Auction.sol\":3188:3282  function getHighestBidder() external returns (address) {... */\n      swap1\n      jump\t// out\n        /* \"Auction.sol\":4901:5145  function findLastNode() view public returns (uint) {... */\n    tag_27:\n        /* \"Auction.sol\":4946:4950  uint */\n      0x00\n        /* \"Auction.sol\":4963:4979  uint nextAddress */\n      dup1\n        /* \"Auction.sol\":4982:4988  bidMap */\n      0x09\n        /* \"Auction.sol\":4982:4991  bidMap[0] */\n      0x00\n        /* \"Auction.sol\":4989:4990  0 */\n      dup1\n        /* \"Auction.sol\":4982:4991  bidMap[0] */\n      dup2\n      mstore\n      0x20\n      add\n      swap1\n      dup2\n      mstore\n      0x20\n      add\n      0x00\n      keccak256\n        /* \"Auction.sol\":4982:4996  bidMap[0].next */\n      0x01\n      add\n      sload\n        /* \"Auction.sol\":4963:4996  uint nextAddress = bidMap[0].next */\n      swap1\n      pop\n        /* \"Auction.sol\":5007:5109  while(bidMap[nextAddress].next != 0) {... */\n    tag_85:\n        /* \"Auction.sol\":5041:5042  0 */\n      0x00\n        /* \"Auction.sol\":5013:5019  bidMap */\n      0x09\n        /* \"Auction.sol\":5013:5032  bidMap[nextAddress] */\n      0x00\n        /* \"Auction.sol\":5020:5031  nextAddress */\n      dup4\n        /* \"Auction.sol\":5013:5032  bidMap[nextAddress] */\n      dup2\n      mstore\n      0x20\n      add\n      swap1\n      dup2\n      mstore\n      0x20\n      add\n      0x00\n      keccak256\n        /* \"Auction.sol\":5013:5037  bidMap[nextAddress].next */\n      0x01\n      add\n      sload\n        /* \"Auction.sol\":5013:5042  bidMap[nextAddress].next != 0 */\n      eq\n        /* \"Auction.sol\":5007:5109  while(bidMap[nextAddress].next != 0) {... */\n      tag_86\n      jumpi\n        /* \"Auction.sol\":5073:5079  bidMap */\n      0x09\n        /* \"Auction.sol\":5073:5092  bidMap[nextAddress] */\n      0x00\n        /* \"Auction.sol\":5080:5091  nextAddress */\n      dup3\n        /* \"Auction.sol\":5073:5092  bidMap[nextAddress] */\n      dup2\n      mstore\n      0x20\n      add\n      swap1\n      dup2\n      mstore\n      0x20\n      add\n      0x00\n      keccak256\n        /* \"Auction.sol\":5073:5097  bidMap[nextAddress].next */\n      0x01\n      add\n      sload\n        /* \"Auction.sol\":5059:5097  nextAddress = bidMap[nextAddress].next */\n      swap1\n      pop\n        /* \"Auction.sol\":5007:5109  while(bidMap[nextAddress].next != 0) {... */\n      jump(tag_85)\n    tag_86:\n        /* \"Auction.sol\":5126:5137  nextAddress */\n      dup1\n        /* \"Auction.sol\":5119:5137  return nextAddress */\n      swap2\n      pop\n      pop\n        /* \"Auction.sol\":4901:5145  function findLastNode() view public returns (uint) {... */\n      swap1\n      jump\t// out\n        /* \"Auction.sol\":300:324  uint public highestPrice */\n    tag_32:\n      sload(0x03)\n      dup2\n      jump\t// out\n        /* \"Auction.sol\":1504:2742  function bid() external payable { // 입찰... */\n    tag_35:\n        /* \"Auction.sol\":1557:1568  uint tmpBid */\n      0x00\n        /* \"Auction.sol\":1600:1610  msg.sender */\n      caller\n        /* \"Auction.sol\":1583:1610  highestBidder == msg.sender */\n      0xffffffffffffffffffffffffffffffffffffffff\n      and\n        /* \"Auction.sol\":1583:1596  highestBidder */\n      0x04\n      0x00\n      swap1\n      sload\n      swap1\n      0x0100\n      exp\n      swap1\n      div\n      0xffffffffffffffffffffffffffffffffffffffff\n      and\n        /* \"Auction.sol\":1583:1610  highestBidder == msg.sender */\n      0xffffffffffffffffffffffffffffffffffffffff\n      and\n      sub\n        /* \"Auction.sol\":1579:1733  if (highestBidder == msg.sender)... */\n      tag_88\n      jumpi\n        /* \"Auction.sol\":1647:1656  msg.value */\n      callvalue\n        /* \"Auction.sol\":1634:1644  highestBid */\n      sload(0x05)\n        /* \"Auction.sol\":1634:1656  highestBid + msg.value */\n      tag_89\n      swap2\n      swap1\n      tag_90\n      jump\t// in\n    tag_89:\n        /* \"Auction.sol\":1625:1656  tmpBid = highestBid + msg.value */\n      swap1\n      pop\n        /* \"Auction.sol\":1579:1733  if (highestBidder == msg.sender)... */\n      jump(tag_91)\n    tag_88:\n        /* \"Auction.sol\":1707:1721  pendingReturns */\n      0x07\n        /* \"Auction.sol\":1707:1733  pendingReturns[msg.sender] */\n      0x00\n        /* \"Auction.sol\":1722:1732  msg.sender */\n      caller\n        /* \"Auction.sol\":1707:1733  pendingReturns[msg.sender] */\n      0xffffffffffffffffffffffffffffffffffffffff\n      and\n      0xffffffffffffffffffffffffffffffffffffffff\n      and\n      dup2\n      mstore\n      0x20\n      add\n      swap1\n      dup2\n      mstore\n      0x20\n      add\n      0x00\n      keccak256\n      sload\n        /* \"Auction.sol\":1695:1704  msg.value */\n      callvalue\n        /* \"Auction.sol\":1695:1733  msg.value + pendingReturns[msg.sender] */\n      tag_92\n      swap2\n      swap1\n      tag_90\n      jump\t// in\n    tag_92:\n        /* \"Auction.sol\":1686:1733  tmpBid = msg.value + pendingReturns[msg.sender] */\n      swap1\n      pop\n        /* \"Auction.sol\":1579:1733  if (highestBidder == msg.sender)... */\n    tag_91:\n        /* \"Auction.sol\":1766:1780  auctionEndTime */\n      sload(0x01)\n        /* \"Auction.sol\":1748:1763  block.timestamp */\n      timestamp\n        /* \"Auction.sol\":1748:1780  block.timestamp > auctionEndTime */\n      gt\n        /* \"Auction.sol\":1744:1823  if (block.timestamp > auctionEndTime)... */\n      iszero\n      tag_93\n      jumpi\n        /* \"Auction.sol\":1802:1823  AuctionAlreadyEnded() */\n      mload(0x40)\n      0xd02e774d00000000000000000000000000000000000000000000000000000000\n      dup2\n      mstore\n      0x04\n      add\n      mload(0x40)\n      dup1\n      swap2\n      sub\n      swap1\n      revert\n        /* \"Auction.sol\":1744:1823  if (block.timestamp > auctionEndTime)... */\n    tag_93:\n        /* \"Auction.sol\":1848:1858  highestBid */\n      sload(0x05)\n        /* \"Auction.sol\":1838:1844  tmpBid */\n      dup2\n        /* \"Auction.sol\":1838:1858  tmpBid <= highestBid */\n      gt\n        /* \"Auction.sol\":1834:1908  if (tmpBid <= highestBid)... */\n      tag_94\n      jumpi\n        /* \"Auction.sol\":1897:1907  highestBid */\n      sload(0x05)\n        /* \"Auction.sol\":1880:1908  BidNotHighEnough(highestBid) */\n      mload(0x40)\n      0x4e12c1bb00000000000000000000000000000000000000000000000000000000\n      dup2\n      mstore\n      0x04\n      add\n      tag_95\n      swap2\n      swap1\n      tag_29\n      jump\t// in\n    tag_95:\n      mload(0x40)\n      dup1\n      swap2\n      sub\n      swap1\n      revert\n        /* \"Auction.sol\":1834:1908  if (tmpBid <= highestBid)... */\n    tag_94:\n        /* \"Auction.sol\":1932:1943  lowestPrice */\n      sload(0x02)\n        /* \"Auction.sol\":1923:1929  tmpBid */\n      dup2\n        /* \"Auction.sol\":1923:1943  tmpBid < lowestPrice */\n      lt\n        /* \"Auction.sol\":1919:1990  if (tmpBid < lowestPrice)... */\n      iszero\n      tag_96\n      jumpi\n        /* \"Auction.sol\":1965:1990  BidLowerThanLowestPrice() */\n      mload(0x40)\n      0x6f1465ea00000000000000000000000000000000000000000000000000000000\n      dup2\n      mstore\n      0x04\n      add\n      mload(0x40)\n      dup1\n      swap2\n      sub\n      swap1\n      revert\n        /* \"Auction.sol\":1919:1990  if (tmpBid < lowestPrice)... */\n    tag_96:\n        /* \"Auction.sol\":2014:2026  highestPrice */\n      sload(0x03)\n        /* \"Auction.sol\":2005:2011  tmpBid */\n      dup2\n        /* \"Auction.sol\":2005:2026  tmpBid > highestPrice */\n      gt\n        /* \"Auction.sol\":2001:2075  if (tmpBid > highestPrice)... */\n      iszero\n      tag_97\n      jumpi\n        /* \"Auction.sol\":2048:2075  BidHigherThanHighestPrice() */\n      mload(0x40)\n      0xaa43d3f300000000000000000000000000000000000000000000000000000000\n      dup2\n      mstore\n      0x04\n      add\n      mload(0x40)\n      dup1\n      swap2\n      sub\n      swap1\n      revert\n        /* \"Auction.sol\":2001:2075  if (tmpBid > highestPrice)... */\n    tag_97:\n        /* \"Auction.sol\":2104:2105  0 */\n      0x00\n        /* \"Auction.sol\":2090:2100  highestBid */\n      sload(0x05)\n        /* \"Auction.sol\":2090:2105  highestBid == 0 */\n      sub\n        /* \"Auction.sol\":2086:2158  if (highestBid == 0) {... */\n      tag_98\n      jumpi\n        /* \"Auction.sol\":2136:2146  msg.sender */\n      caller\n        /* \"Auction.sol\":2122:2133  firstBidder */\n      0x06\n      0x00\n        /* \"Auction.sol\":2122:2146  firstBidder = msg.sender */\n      0x0100\n      exp\n      dup2\n      sload\n      dup2\n      0xffffffffffffffffffffffffffffffffffffffff\n      mul\n      not\n      and\n      swap1\n      dup4\n      0xffffffffffffffffffffffffffffffffffffffff\n      and\n      mul\n      or\n      swap1\n      sstore\n      pop\n        /* \"Auction.sol\":2086:2158  if (highestBid == 0) {... */\n    tag_98:\n        /* \"Auction.sol\":2186:2187  0 */\n      0x00\n        /* \"Auction.sol\":2172:2182  highestBid */\n      sload(0x05)\n        /* \"Auction.sol\":2172:2187  highestBid != 0 */\n      eq\n        /* \"Auction.sol\":2168:2353  if (highestBid != 0) {... */\n      tag_99\n      jumpi\n        /* \"Auction.sol\":2237:2247  highestBid */\n      sload(0x05)\n        /* \"Auction.sol\":2204:2218  pendingReturns */\n      0x07\n        /* \"Auction.sol\":2204:2233  pendingReturns[highestBidder] */\n      0x00\n        /* \"Auction.sol\":2219:2232  highestBidder */\n      0x04\n      0x00\n      swap1\n      sload\n      swap1\n      0x0100\n      exp\n      swap1\n      div\n      0xffffffffffffffffffffffffffffffffffffffff\n      and\n        /* \"Auction.sol\":2204:2233  pendingReturns[highestBidder] */\n      0xffffffffffffffffffffffffffffffffffffffff\n      and\n      0xffffffffffffffffffffffffffffffffffffffff\n      and\n      dup2\n      mstore\n      0x20\n      add\n      swap1\n      dup2\n      mstore\n      0x20\n      add\n      0x00\n      keccak256\n      0x00\n        /* \"Auction.sol\":2204:2247  pendingReturns[highestBidder] += highestBid */\n      dup3\n      dup3\n      sload\n      tag_100\n      swap2\n      swap1\n      tag_90\n      jump\t// in\n    tag_100:\n      swap3\n      pop\n      pop\n      dup2\n      swap1\n      sstore\n      pop\n        /* \"Auction.sol\":2168:2353  if (highestBid != 0) {... */\n    tag_99:\n        /* \"Auction.sol\":2363:2386  BidLog memory curBidLog */\n      0x00\n        /* \"Auction.sol\":2389:2485  BidLog(msg.sender, uint256(keccak256(abi.encodePacked(msg.value, msg.sender, block.timestamp)))) */\n      mload(0x40)\n      dup1\n      0x40\n      add\n      0x40\n      mstore\n      dup1\n        /* \"Auction.sol\":2396:2406  msg.sender */\n      caller\n        /* \"Auction.sol\":2389:2485  BidLog(msg.sender, uint256(keccak256(abi.encodePacked(msg.value, msg.sender, block.timestamp)))) */\n      0xffffffffffffffffffffffffffffffffffffffff\n      and\n      dup2\n      mstore\n      0x20\n      add\n        /* \"Auction.sol\":2443:2452  msg.value */\n      callvalue\n        /* \"Auction.sol\":2454:2464  msg.sender */\n      caller\n        /* \"Auction.sol\":2466:2481  block.timestamp */\n      timestamp\n        /* \"Auction.sol\":2426:2482  abi.encodePacked(msg.value, msg.sender, block.timestamp) */\n      add(0x20, mload(0x40))\n      tag_101\n      swap4\n      swap3\n      swap2\n      swap1\n      tag_102\n      jump\t// in\n    tag_101:\n      mload(0x40)\n      0x20\n      dup2\n      dup4\n      sub\n      sub\n      dup2\n      mstore\n      swap1\n      0x40\n      mstore\n        /* \"Auction.sol\":2416:2483  keccak256(abi.encodePacked(msg.value, msg.sender, block.timestamp)) */\n      dup1\n      mload\n      swap1\n      0x20\n      add\n      keccak256\n        /* \"Auction.sol\":2408:2484  uint256(keccak256(abi.encodePacked(msg.value, msg.sender, block.timestamp))) */\n      0x00\n      shr\n        /* \"Auction.sol\":2389:2485  BidLog(msg.sender, uint256(keccak256(abi.encodePacked(msg.value, msg.sender, block.timestamp)))) */\n      dup2\n      mstore\n      pop\n        /* \"Auction.sol\":2363:2485  BidLog memory curBidLog = BidLog(msg.sender, uint256(keccak256(abi.encodePacked(msg.value, msg.sender, block.timestamp)))) */\n      swap1\n      pop\n        /* \"Auction.sol\":2521:2530  curBidLog */\n      dup1\n        /* \"Auction.sol\":2496:2502  bidMap */\n      0x09\n        /* \"Auction.sol\":2496:2518  bidMap[findLastNode()] */\n      0x00\n        /* \"Auction.sol\":2503:2517  findLastNode() */\n      tag_103\n        /* \"Auction.sol\":2503:2515  findLastNode */\n      tag_27\n        /* \"Auction.sol\":2503:2517  findLastNode() */\n      jump\t// in\n    tag_103:\n        /* \"Auction.sol\":2496:2518  bidMap[findLastNode()] */\n      dup2\n      mstore\n      0x20\n      add\n      swap1\n      dup2\n      mstore\n      0x20\n      add\n      0x00\n      keccak256\n        /* \"Auction.sol\":2496:2530  bidMap[findLastNode()] = curBidLog */\n      0x00\n      dup3\n      add\n      mload\n      dup2\n      0x00\n      add\n      exp(0x0100, 0x00)\n      dup2\n      sload\n      dup2\n      0xffffffffffffffffffffffffffffffffffffffff\n      mul\n      not\n      and\n      swap1\n      dup4\n      0xffffffffffffffffffffffffffffffffffffffff\n      and\n      mul\n      or\n      swap1\n      sstore\n      pop\n      0x20\n      dup3\n      add\n      mload\n      dup2\n      0x01\n      add\n      sstore\n      swap1\n      pop\n      pop\n        /* \"Auction.sol\":2557:2567  msg.sender */\n      caller\n        /* \"Auction.sol\":2541:2554  highestBidder */\n      0x04\n      0x00\n        /* \"Auction.sol\":2541:2567  highestBidder = msg.sender */\n      0x0100\n      exp\n      dup2\n      sload\n      dup2\n      0xffffffffffffffffffffffffffffffffffffffff\n      mul\n      not\n      and\n      swap1\n      dup4\n      0xffffffffffffffffffffffffffffffffffffffff\n      and\n      mul\n      or\n      swap1\n      sstore\n      pop\n        /* \"Auction.sol\":2623:2632  msg.value */\n      callvalue\n        /* \"Auction.sol\":2591:2605  pendingReturns */\n      0x07\n        /* \"Auction.sol\":2591:2620  pendingReturns[highestBidder] */\n      0x00\n        /* \"Auction.sol\":2606:2619  highestBidder */\n      0x04\n      0x00\n      swap1\n      sload\n      swap1\n      0x0100\n      exp\n      swap1\n      div\n      0xffffffffffffffffffffffffffffffffffffffff\n      and\n        /* \"Auction.sol\":2591:2620  pendingReturns[highestBidder] */\n      0xffffffffffffffffffffffffffffffffffffffff\n      and\n      0xffffffffffffffffffffffffffffffffffffffff\n      and\n      dup2\n      mstore\n      0x20\n      add\n      swap1\n      dup2\n      mstore\n      0x20\n      add\n      0x00\n      keccak256\n      sload\n        /* \"Auction.sol\":2591:2632  pendingReturns[highestBidder] + msg.value */\n      tag_104\n      swap2\n      swap1\n      tag_90\n      jump\t// in\n    tag_104:\n        /* \"Auction.sol\":2578:2588  highestBid */\n      0x05\n        /* \"Auction.sol\":2578:2632  highestBid = pendingReturns[highestBidder] + msg.value */\n      dup2\n      swap1\n      sstore\n      pop\n        /* \"Auction.sol\":2675:2676  0 */\n      0x00\n        /* \"Auction.sol\":2643:2657  pendingReturns */\n      0x07\n        /* \"Auction.sol\":2643:2672  pendingReturns[highestBidder] */\n      0x00\n        /* \"Auction.sol\":2658:2671  highestBidder */\n      0x04\n      0x00\n      swap1\n      sload\n      swap1\n      0x0100\n      exp\n      swap1\n      div\n      0xffffffffffffffffffffffffffffffffffffffff\n      and\n        /* \"Auction.sol\":2643:2672  pendingReturns[highestBidder] */\n      0xffffffffffffffffffffffffffffffffffffffff\n      and\n      0xffffffffffffffffffffffffffffffffffffffff\n      and\n      dup2\n      mstore\n      0x20\n      add\n      swap1\n      dup2\n      mstore\n      0x20\n      add\n      0x00\n      keccak256\n        /* \"Auction.sol\":2643:2676  pendingReturns[highestBidder] = 0 */\n      dup2\n      swap1\n      sstore\n      pop\n        /* \"Auction.sol\":2692:2734  HighestBidIncreased(msg.sender, msg.value) */\n      0xf4757a49b326036464bec6fe419a4ae38c8a02ce3e68bf0809674f6aab8ad300\n        /* \"Auction.sol\":2712:2722  msg.sender */\n      caller\n        /* \"Auction.sol\":2724:2733  msg.value */\n      callvalue\n        /* \"Auction.sol\":2692:2734  HighestBidIncreased(msg.sender, msg.value) */\n      mload(0x40)\n      tag_105\n      swap3\n      swap2\n      swap1\n      tag_106\n      jump\t// in\n    tag_105:\n      mload(0x40)\n      dup1\n      swap2\n      sub\n      swap1\n      log1\n        /* \"Auction.sol\":1536:2742  { // 입찰... */\n      pop\n      pop\n        /* \"Auction.sol\":1504:2742  function bid() external payable { // 입찰... */\n      jump\t// out\n        /* \"Auction.sol\":4439:4835  function auctionEnd() external {... */\n    tag_38:\n        /* \"Auction.sol\":4529:4543  auctionEndTime */\n      sload(0x01)\n        /* \"Auction.sol\":4511:4526  block.timestamp */\n      timestamp\n        /* \"Auction.sol\":4511:4543  block.timestamp < auctionEndTime */\n      lt\n        /* \"Auction.sol\":4507:4585  if (block.timestamp < auctionEndTime)... */\n      iszero\n      tag_108\n      jumpi\n        /* \"Auction.sol\":4565:4585  AuctionNotYetEnded() */\n      mload(0x40)\n      0x44cee29000000000000000000000000000000000000000000000000000000000\n      dup2\n      mstore\n      0x04\n      add\n      mload(0x40)\n      dup1\n      swap2\n      sub\n      swap1\n      revert\n        /* \"Auction.sol\":4507:4585  if (block.timestamp < auctionEndTime)... */\n    tag_108:\n        /* \"Auction.sol\":4600:4605  ended */\n      0x0a\n      0x00\n      swap1\n      sload\n      swap1\n      0x0100\n      exp\n      swap1\n      div\n      0xff\n      and\n        /* \"Auction.sol\":4596:4652  if (ended)... */\n      iszero\n      tag_109\n      jumpi\n        /* \"Auction.sol\":4627:4652  AuctionEndAlreadyCalled() */\n      mload(0x40)\n      0x61cfdcf800000000000000000000000000000000000000000000000000000000\n      dup2\n      mstore\n      0x04\n      add\n      mload(0x40)\n      dup1\n      swap2\n      sub\n      swap1\n      revert\n        /* \"Auction.sol\":4596:4652  if (ended)... */\n    tag_109:\n        /* \"Auction.sol\":4696:4700  true */\n      0x01\n        /* \"Auction.sol\":4688:4693  ended */\n      0x0a\n      0x00\n        /* \"Auction.sol\":4688:4700  ended = true */\n      0x0100\n      exp\n      dup2\n      sload\n      dup2\n      0xff\n      mul\n      not\n      and\n      swap1\n      dup4\n      iszero\n      iszero\n      mul\n      or\n      swap1\n      sstore\n      pop\n        /* \"Auction.sol\":4716:4755  AuctionEnded(highestBidder, highestBid) */\n      0xdaec4582d5d9595688c8c98545fdd1c696d41c6aeaeb636737e84ed2f5c00eda\n        /* \"Auction.sol\":4729:4742  highestBidder */\n      0x04\n      0x00\n      swap1\n      sload\n      swap1\n      0x0100\n      exp\n      swap1\n      div\n      0xffffffffffffffffffffffffffffffffffffffff\n      and\n        /* \"Auction.sol\":4744:4754  highestBid */\n      sload(0x05)\n        /* \"Auction.sol\":4716:4755  AuctionEnded(highestBidder, highestBid) */\n      mload(0x40)\n      tag_110\n      swap3\n      swap2\n      swap1\n      tag_106\n      jump\t// in\n    tag_110:\n      mload(0x40)\n      dup1\n      swap2\n      sub\n      swap1\n      log1\n        /* \"Auction.sol\":4795:4806  beneficiary */\n      0x00\n      dup1\n      sload\n      swap1\n      0x0100\n      exp\n      swap1\n      div\n      0xffffffffffffffffffffffffffffffffffffffff\n      and\n        /* \"Auction.sol\":4795:4815  beneficiary.transfer */\n      0xffffffffffffffffffffffffffffffffffffffff\n      and\n        /* \"Auction.sol\":4795:4827  beneficiary.transfer(highestBid) */\n      0x08fc\n        /* \"Auction.sol\":4816:4826  highestBid */\n      sload(0x05)\n        /* \"Auction.sol\":4795:4827  beneficiary.transfer(highestBid) */\n      swap1\n      dup2\n      iszero\n      mul\n      swap1\n      mload(0x40)\n      0x00\n      mload(0x40)\n      dup1\n      dup4\n      sub\n      dup2\n      dup6\n      dup9\n      dup9\n      call\n      swap4\n      pop\n      pop\n      pop\n      pop\n      iszero\n      dup1\n      iszero\n      tag_112\n      jumpi\n      returndatasize\n      0x00\n      dup1\n      returndatacopy\n      revert(0x00, returndatasize)\n    tag_112:\n      pop\n        /* \"Auction.sol\":4439:4835  function auctionEnd() external {... */\n      jump\t// out\n        /* \"Auction.sol\":196:230  address payable public beneficiary */\n    tag_41:\n      0x00\n      dup1\n      sload\n      swap1\n      0x0100\n      exp\n      swap1\n      div\n      0xffffffffffffffffffffffffffffffffffffffff\n      and\n      dup2\n      jump\t// out\n        /* \"Auction.sol\":3332:3696  function withdraw() external returns (bool) {... */\n    tag_46:\n        /* \"Auction.sol\":3370:3374  bool */\n      0x00\n        /* \"Auction.sol\":3387:3398  uint amount */\n      dup1\n        /* \"Auction.sol\":3401:3415  pendingReturns */\n      0x07\n        /* \"Auction.sol\":3401:3427  pendingReturns[msg.sender] */\n      0x00\n        /* \"Auction.sol\":3416:3426  msg.sender */\n      caller\n        /* \"Auction.sol\":3401:3427  pendingReturns[msg.sender] */\n      0xffffffffffffffffffffffffffffffffffffffff\n      and\n      0xffffffffffffffffffffffffffffffffffffffff\n      and\n      dup2\n      mstore\n      0x20\n      add\n      swap1\n      dup2\n      mstore\n      0x20\n      add\n      0x00\n      keccak256\n      sload\n        /* \"Auction.sol\":3387:3427  uint amount = pendingReturns[msg.sender] */\n      swap1\n      pop\n        /* \"Auction.sol\":3451:3452  0 */\n      0x00\n        /* \"Auction.sol\":3442:3448  amount */\n      dup2\n        /* \"Auction.sol\":3442:3452  amount > 0 */\n      gt\n        /* \"Auction.sol\":3438:3667  if (amount > 0) {... */\n      iszero\n      tag_114\n      jumpi\n        /* \"Auction.sol\":3498:3499  0 */\n      0x00\n        /* \"Auction.sol\":3469:3483  pendingReturns */\n      0x07\n        /* \"Auction.sol\":3469:3495  pendingReturns[msg.sender] */\n      0x00\n        /* \"Auction.sol\":3484:3494  msg.sender */\n      caller\n        /* \"Auction.sol\":3469:3495  pendingReturns[msg.sender] */\n      0xffffffffffffffffffffffffffffffffffffffff\n      and\n      0xffffffffffffffffffffffffffffffffffffffff\n      and\n      dup2\n      mstore\n      0x20\n      add\n      swap1\n      dup2\n      mstore\n      0x20\n      add\n      0x00\n      keccak256\n        /* \"Auction.sol\":3469:3499  pendingReturns[msg.sender] = 0 */\n      dup2\n      swap1\n      sstore\n      pop\n        /* \"Auction.sol\":3529:3539  msg.sender */\n      caller\n        /* \"Auction.sol\":3521:3545  payable(msg.sender).send */\n      0xffffffffffffffffffffffffffffffffffffffff\n      and\n        /* \"Auction.sol\":3521:3553  payable(msg.sender).send(amount) */\n      0x08fc\n        /* \"Auction.sol\":3546:3552  amount */\n      dup3\n        /* \"Auction.sol\":3521:3553  payable(msg.sender).send(amount) */\n      swap1\n      dup2\n      iszero\n      mul\n      swap1\n      mload(0x40)\n      0x00\n      mload(0x40)\n      dup1\n      dup4\n      sub\n      dup2\n      dup6\n      dup9\n      dup9\n      call\n      swap4\n      pop\n      pop\n      pop\n      pop\n        /* \"Auction.sol\":3516:3656  if (!payable(msg.sender).send(amount)) {... */\n      tag_116\n      jumpi\n        /* \"Auction.sol\":3603:3609  amount */\n      dup1\n        /* \"Auction.sol\":3574:3588  pendingReturns */\n      0x07\n        /* \"Auction.sol\":3574:3600  pendingReturns[msg.sender] */\n      0x00\n        /* \"Auction.sol\":3589:3599  msg.sender */\n      caller\n        /* \"Auction.sol\":3574:3600  pendingReturns[msg.sender] */\n      0xffffffffffffffffffffffffffffffffffffffff\n      and\n      0xffffffffffffffffffffffffffffffffffffffff\n      and\n      dup2\n      mstore\n      0x20\n      add\n      swap1\n      dup2\n      mstore\n      0x20\n      add\n      0x00\n      keccak256\n        /* \"Auction.sol\":3574:3609  pendingReturns[msg.sender] = amount */\n      dup2\n      swap1\n      sstore\n      pop\n        /* \"Auction.sol\":3635:3640  false */\n      0x00\n        /* \"Auction.sol\":3628:3640  return false */\n      swap2\n      pop\n      pop\n      jump(tag_113)\n        /* \"Auction.sol\":3516:3656  if (!payable(msg.sender).send(amount)) {... */\n    tag_116:\n        /* \"Auction.sol\":3438:3667  if (amount > 0) {... */\n    tag_114:\n        /* \"Auction.sol\":3684:3688  true */\n      0x01\n        /* \"Auction.sol\":3677:3688  return true */\n      swap2\n      pop\n      pop\n        /* \"Auction.sol\":3332:3696  function withdraw() external returns (bool) {... */\n    tag_113:\n      swap1\n      jump\t// out\n        /* \"Auction.sol\":2750:3087  function getCurrrentBid(address bidderAddress) external returns (uint) { // 입찰자 지갑 주소로 현재 얼마를 입찰한 상태인지 리턴 ... */\n    tag_53:\n        /* \"Auction.sol\":2815:2819  uint */\n      0x00\n        /* \"Auction.sol\":2910:2918  uint ret */\n      dup1\n        /* \"Auction.sol\":2950:2963  bidderAddress */\n      dup3\n        /* \"Auction.sol\":2933:2963  highestBidder == bidderAddress */\n      0xffffffffffffffffffffffffffffffffffffffff\n      and\n        /* \"Auction.sol\":2933:2946  highestBidder */\n      0x04\n      0x00\n      swap1\n      sload\n      swap1\n      0x0100\n      exp\n      swap1\n      div\n      0xffffffffffffffffffffffffffffffffffffffff\n      and\n        /* \"Auction.sol\":2933:2963  highestBidder == bidderAddress */\n      0xffffffffffffffffffffffffffffffffffffffff\n      and\n      sub\n        /* \"Auction.sol\":2929:3058  if (highestBidder == bidderAddress)... */\n      tag_118\n      jumpi\n        /* \"Auction.sol\":2984:2994  highestBid */\n      sload(0x05)\n        /* \"Auction.sol\":2978:2994  ret = highestBid */\n      swap1\n      pop\n        /* \"Auction.sol\":2929:3058  if (highestBidder == bidderAddress)... */\n      jump(tag_119)\n    tag_118:\n        /* \"Auction.sol\":3029:3043  pendingReturns */\n      0x07\n        /* \"Auction.sol\":3029:3058  pendingReturns[bidderAddress] */\n      0x00\n        /* \"Auction.sol\":3044:3057  bidderAddress */\n      dup5\n        /* \"Auction.sol\":3029:3058  pendingReturns[bidderAddress] */\n      0xffffffffffffffffffffffffffffffffffffffff\n      and\n      0xffffffffffffffffffffffffffffffffffffffff\n      and\n      dup2\n      mstore\n      0x20\n      add\n      swap1\n      dup2\n      mstore\n      0x20\n      add\n      0x00\n      keccak256\n      sload\n        /* \"Auction.sol\":3023:3058  ret = pendingReturns[bidderAddress] */\n      swap1\n      pop\n        /* \"Auction.sol\":2929:3058  if (highestBidder == bidderAddress)... */\n    tag_119:\n        /* \"Auction.sol\":3076:3079  ret */\n      dup1\n        /* \"Auction.sol\":3069:3079  return ret */\n      swap2\n      pop\n      pop\n        /* \"Auction.sol\":2750:3087  function getCurrrentBid(address bidderAddress) external returns (uint) { // 입찰자 지갑 주소로 현재 얼마를 입찰한 상태인지 리턴 ... */\n      swap2\n      swap1\n      pop\n      jump\t// out\n        /* \"Auction.sol\":3095:3180  function getHighestBid() external returns (uint) {... */\n    tag_57:\n        /* \"Auction.sol\":3138:3142  uint */\n      0x00\n        /* \"Auction.sol\":3162:3172  highestBid */\n      sload(0x05)\n        /* \"Auction.sol\":3155:3172  return highestBid */\n      swap1\n      pop\n        /* \"Auction.sol\":3095:3180  function getHighestBid() external returns (uint) {... */\n      swap1\n      jump\t// out\n        /* \"Auction.sol\":237:263  uint public auctionEndTime */\n    tag_61:\n      sload(0x01)\n      dup2\n      jump\t// out\n        /* \"Auction.sol\":3754:4431  function withdrawAll() external returns (bool) {... */\n    tag_65:\n        /* \"Auction.sol\":3795:3799  bool */\n      0x00\n        /* \"Auction.sol\":3812:3828  uint nextAddress */\n      dup1\n        /* \"Auction.sol\":3831:3837  bidMap */\n      0x09\n        /* \"Auction.sol\":3831:3840  bidMap[0] */\n      0x00\n        /* \"Auction.sol\":3838:3839  0 */\n      dup1\n        /* \"Auction.sol\":3831:3840  bidMap[0] */\n      dup2\n      mstore\n      0x20\n      add\n      swap1\n      dup2\n      mstore\n      0x20\n      add\n      0x00\n      keccak256\n        /* \"Auction.sol\":3831:3845  bidMap[0].next */\n      0x01\n      add\n      sload\n        /* \"Auction.sol\":3812:3845  uint nextAddress = bidMap[0].next */\n      swap1\n      pop\n        /* \"Auction.sol\":3856:4392  while(bidMap[nextAddress].bidderAddress != address(0)) {... */\n    tag_122:\n        /* \"Auction.sol\":3907:3908  0 */\n      0x00\n        /* \"Auction.sol\":3862:3909  bidMap[nextAddress].bidderAddress != address(0) */\n      0xffffffffffffffffffffffffffffffffffffffff\n      and\n        /* \"Auction.sol\":3862:3868  bidMap */\n      0x09\n        /* \"Auction.sol\":3862:3881  bidMap[nextAddress] */\n      0x00\n        /* \"Auction.sol\":3869:3880  nextAddress */\n      dup4\n        /* \"Auction.sol\":3862:3881  bidMap[nextAddress] */\n      dup2\n      mstore\n      0x20\n      add\n      swap1\n      dup2\n      mstore\n      0x20\n      add\n      0x00\n      keccak256\n        /* \"Auction.sol\":3862:3895  bidMap[nextAddress].bidderAddress */\n      0x00\n      add\n      0x00\n      swap1\n      sload\n      swap1\n      0x0100\n      exp\n      swap1\n      div\n      0xffffffffffffffffffffffffffffffffffffffff\n      and\n        /* \"Auction.sol\":3862:3909  bidMap[nextAddress].bidderAddress != address(0) */\n      0xffffffffffffffffffffffffffffffffffffffff\n      and\n      eq\n        /* \"Auction.sol\":3856:4392  while(bidMap[nextAddress].bidderAddress != address(0)) {... */\n      tag_123\n      jumpi\n        /* \"Auction.sol\":3926:3937  uint amount */\n      0x00\n        /* \"Auction.sol\":3940:3954  pendingReturns */\n      0x07\n        /* \"Auction.sol\":3940:3989  pendingReturns[bidMap[nextAddress].bidderAddress] */\n      0x00\n        /* \"Auction.sol\":3955:3961  bidMap */\n      0x09\n        /* \"Auction.sol\":3955:3974  bidMap[nextAddress] */\n      0x00\n        /* \"Auction.sol\":3962:3973  nextAddress */\n      dup6\n        /* \"Auction.sol\":3955:3974  bidMap[nextAddress] */\n      dup2\n      mstore\n      0x20\n      add\n      swap1\n      dup2\n      mstore\n      0x20\n      add\n      0x00\n      keccak256\n        /* \"Auction.sol\":3955:3988  bidMap[nextAddress].bidderAddress */\n      0x00\n      add\n      0x00\n      swap1\n      sload\n      swap1\n      0x0100\n      exp\n      swap1\n      div\n      0xffffffffffffffffffffffffffffffffffffffff\n      and\n        /* \"Auction.sol\":3940:3989  pendingReturns[bidMap[nextAddress].bidderAddress] */\n      0xffffffffffffffffffffffffffffffffffffffff\n      and\n      0xffffffffffffffffffffffffffffffffffffffff\n      and\n      dup2\n      mstore\n      0x20\n      add\n      swap1\n      dup2\n      mstore\n      0x20\n      add\n      0x00\n      keccak256\n      sload\n        /* \"Auction.sol\":3926:3989  uint amount = pendingReturns[bidMap[nextAddress].bidderAddress] */\n      swap1\n      pop\n        /* \"Auction.sol\":4017:4018  0 */\n      0x00\n        /* \"Auction.sol\":4008:4014  amount */\n      dup2\n        /* \"Auction.sol\":4008:4018  amount > 0 */\n      gt\n        /* \"Auction.sol\":4004:4328  if (amount > 0) {... */\n      iszero\n      tag_124\n      jumpi\n        /* \"Auction.sol\":4091:4092  0 */\n      0x00\n        /* \"Auction.sol\":4039:4053  pendingReturns */\n      0x07\n        /* \"Auction.sol\":4039:4088  pendingReturns[bidMap[nextAddress].bidderAddress] */\n      0x00\n        /* \"Auction.sol\":4054:4060  bidMap */\n      0x09\n        /* \"Auction.sol\":4054:4073  bidMap[nextAddress] */\n      0x00\n        /* \"Auction.sol\":4061:4072  nextAddress */\n      dup7\n        /* \"Auction.sol\":4054:4073  bidMap[nextAddress] */\n      dup2\n      mstore\n      0x20\n      add\n      swap1\n      dup2\n      mstore\n      0x20\n      add\n      0x00\n      keccak256\n        /* \"Auction.sol\":4054:4087  bidMap[nextAddress].bidderAddress */\n      0x00\n      add\n      0x00\n      swap1\n      sload\n      swap1\n      0x0100\n      exp\n      swap1\n      div\n      0xffffffffffffffffffffffffffffffffffffffff\n      and\n        /* \"Auction.sol\":4039:4088  pendingReturns[bidMap[nextAddress].bidderAddress] */\n      0xffffffffffffffffffffffffffffffffffffffff\n      and\n      0xffffffffffffffffffffffffffffffffffffffff\n      and\n      dup2\n      mstore\n      0x20\n      add\n      swap1\n      dup2\n      mstore\n      0x20\n      add\n      0x00\n      keccak256\n        /* \"Auction.sol\":4039:4092  pendingReturns[bidMap[nextAddress].bidderAddress] = 0 */\n      dup2\n      swap1\n      sstore\n      pop\n        /* \"Auction.sol\":4128:4134  bidMap */\n      0x09\n        /* \"Auction.sol\":4128:4147  bidMap[nextAddress] */\n      0x00\n        /* \"Auction.sol\":4135:4146  nextAddress */\n      dup4\n        /* \"Auction.sol\":4128:4147  bidMap[nextAddress] */\n      dup2\n      mstore\n      0x20\n      add\n      swap1\n      dup2\n      mstore\n      0x20\n      add\n      0x00\n      keccak256\n        /* \"Auction.sol\":4128:4161  bidMap[nextAddress].bidderAddress */\n      0x00\n      add\n      0x00\n      swap1\n      sload\n      swap1\n      0x0100\n      exp\n      swap1\n      div\n      0xffffffffffffffffffffffffffffffffffffffff\n      and\n        /* \"Auction.sol\":4120:4167  payable(bidMap[nextAddress].bidderAddress).send */\n      0xffffffffffffffffffffffffffffffffffffffff\n      and\n        /* \"Auction.sol\":4120:4175  payable(bidMap[nextAddress].bidderAddress).send(amount) */\n      0x08fc\n        /* \"Auction.sol\":4168:4174  amount */\n      dup3\n        /* \"Auction.sol\":4120:4175  payable(bidMap[nextAddress].bidderAddress).send(amount) */\n      swap1\n      dup2\n      iszero\n      mul\n      swap1\n      mload(0x40)\n      0x00\n      mload(0x40)\n      dup1\n      dup4\n      sub\n      dup2\n      dup6\n      dup9\n      dup9\n      call\n      swap4\n      pop\n      pop\n      pop\n      pop\n        /* \"Auction.sol\":4115:4313  if (!payable(bidMap[nextAddress].bidderAddress).send(amount)) {... */\n      tag_126\n      jumpi\n        /* \"Auction.sol\":4252:4258  amount */\n      dup1\n        /* \"Auction.sol\":4200:4214  pendingReturns */\n      0x07\n        /* \"Auction.sol\":4200:4249  pendingReturns[bidMap[nextAddress].bidderAddress] */\n      0x00\n        /* \"Auction.sol\":4215:4221  bidMap */\n      0x09\n        /* \"Auction.sol\":4215:4234  bidMap[nextAddress] */\n      0x00\n        /* \"Auction.sol\":4222:4233  nextAddress */\n      dup7\n        /* \"Auction.sol\":4215:4234  bidMap[nextAddress] */\n      dup2\n      mstore\n      0x20\n      add\n      swap1\n      dup2\n      mstore\n      0x20\n      add\n      0x00\n      keccak256\n        /* \"Auction.sol\":4215:4248  bidMap[nextAddress].bidderAddress */\n      0x00\n      add\n      0x00\n      swap1\n      sload\n      swap1\n      0x0100\n      exp\n      swap1\n      div\n      0xffffffffffffffffffffffffffffffffffffffff\n      and\n        /* \"Auction.sol\":4200:4249  pendingReturns[bidMap[nextAddress].bidderAddress] */\n      0xffffffffffffffffffffffffffffffffffffffff\n      and\n      0xffffffffffffffffffffffffffffffffffffffff\n      and\n      dup2\n      mstore\n      0x20\n      add\n      swap1\n      dup2\n      mstore\n      0x20\n      add\n      0x00\n      keccak256\n        /* \"Auction.sol\":4200:4258  pendingReturns[bidMap[nextAddress].bidderAddress] = amount */\n      dup2\n      swap1\n      sstore\n      pop\n        /* \"Auction.sol\":4288:4293  false */\n      0x00\n        /* \"Auction.sol\":4281:4293  return false */\n      swap3\n      pop\n      pop\n      pop\n      jump(tag_121)\n        /* \"Auction.sol\":4115:4313  if (!payable(bidMap[nextAddress].bidderAddress).send(amount)) {... */\n    tag_126:\n        /* \"Auction.sol\":4004:4328  if (amount > 0) {... */\n    tag_124:\n        /* \"Auction.sol\":4356:4362  bidMap */\n      0x09\n        /* \"Auction.sol\":4356:4375  bidMap[nextAddress] */\n      0x00\n        /* \"Auction.sol\":4363:4374  nextAddress */\n      dup4\n        /* \"Auction.sol\":4356:4375  bidMap[nextAddress] */\n      dup2\n      mstore\n      0x20\n      add\n      swap1\n      dup2\n      mstore\n      0x20\n      add\n      0x00\n      keccak256\n        /* \"Auction.sol\":4356:4380  bidMap[nextAddress].next */\n      0x01\n      add\n      sload\n        /* \"Auction.sol\":4342:4380  nextAddress = bidMap[nextAddress].next */\n      swap2\n      pop\n        /* \"Auction.sol\":3911:4392  {... */\n      pop\n        /* \"Auction.sol\":3856:4392  while(bidMap[nextAddress].bidderAddress != address(0)) {... */\n      jump(tag_122)\n    tag_123:\n        /* \"Auction.sol\":4419:4423  true */\n      0x01\n        /* \"Auction.sol\":4412:4423  return true */\n      swap2\n      pop\n      pop\n        /* \"Auction.sol\":3754:4431  function withdrawAll() external returns (bool) {... */\n    tag_121:\n      swap1\n      jump\t// out\n        /* \"Auction.sol\":331:359  address public highestBidder */\n    tag_69:\n      0x04\n      0x00\n      swap1\n      sload\n      swap1\n      0x0100\n      exp\n      swap1\n      div\n      0xffffffffffffffffffffffffffffffffffffffff\n      and\n      dup2\n      jump\t// out\n        /* \"Auction.sol\":395:421  address public firstBidder */\n    tag_73:\n      0x06\n      0x00\n      swap1\n      sload\n      swap1\n      0x0100\n      exp\n      swap1\n      div\n      0xffffffffffffffffffffffffffffffffffffffff\n      and\n      dup2\n      jump\t// out\n        /* \"Auction.sol\":270:293  uint public lowestPrice */\n    tag_77:\n      sload(0x02)\n      dup2\n      jump\t// out\n        /* \"Auction.sol\":366:388  uint public highestBid */\n    tag_81:\n      sload(0x05)\n      dup2\n      jump\t// out\n        /* \"#utility.yul\":7:133   */\n    tag_127:\n        /* \"#utility.yul\":44:51   */\n      0x00\n        /* \"#utility.yul\":84:126   */\n      0xffffffffffffffffffffffffffffffffffffffff\n        /* \"#utility.yul\":77:82   */\n      dup3\n        /* \"#utility.yul\":73:127   */\n      and\n        /* \"#utility.yul\":62:127   */\n      swap1\n      pop\n        /* \"#utility.yul\":7:133   */\n      swap2\n      swap1\n      pop\n      jump\t// out\n        /* \"#utility.yul\":139:235   */\n    tag_128:\n        /* \"#utility.yul\":176:183   */\n      0x00\n        /* \"#utility.yul\":205:229   */\n      tag_151\n        /* \"#utility.yul\":223:228   */\n      dup3\n        /* \"#utility.yul\":205:229   */\n      tag_127\n      jump\t// in\n    tag_151:\n        /* \"#utility.yul\":194:229   */\n      swap1\n      pop\n        /* \"#utility.yul\":139:235   */\n      swap2\n      swap1\n      pop\n      jump\t// out\n        /* \"#utility.yul\":241:359   */\n    tag_129:\n        /* \"#utility.yul\":328:352   */\n      tag_153\n        /* \"#utility.yul\":346:351   */\n      dup2\n        /* \"#utility.yul\":328:352   */\n      tag_128\n      jump\t// in\n    tag_153:\n        /* \"#utility.yul\":323:326   */\n      dup3\n        /* \"#utility.yul\":316:353   */\n      mstore\n        /* \"#utility.yul\":241:359   */\n      pop\n      pop\n      jump\t// out\n        /* \"#utility.yul\":365:587   */\n    tag_24:\n        /* \"#utility.yul\":458:462   */\n      0x00\n        /* \"#utility.yul\":496:498   */\n      0x20\n        /* \"#utility.yul\":485:494   */\n      dup3\n        /* \"#utility.yul\":481:499   */\n      add\n        /* \"#utility.yul\":473:499   */\n      swap1\n      pop\n        /* \"#utility.yul\":509:580   */\n      tag_155\n        /* \"#utility.yul\":577:578   */\n      0x00\n        /* \"#utility.yul\":566:575   */\n      dup4\n        /* \"#utility.yul\":562:579   */\n      add\n        /* \"#utility.yul\":553:559   */\n      dup5\n        /* \"#utility.yul\":509:580   */\n      tag_129\n      jump\t// in\n    tag_155:\n        /* \"#utility.yul\":365:587   */\n      swap3\n      swap2\n      pop\n      pop\n      jump\t// out\n        /* \"#utility.yul\":593:670   */\n    tag_130:\n        /* \"#utility.yul\":630:637   */\n      0x00\n        /* \"#utility.yul\":659:664   */\n      dup2\n        /* \"#utility.yul\":648:664   */\n      swap1\n      pop\n        /* \"#utility.yul\":593:670   */\n      swap2\n      swap1\n      pop\n      jump\t// out\n        /* \"#utility.yul\":676:794   */\n    tag_131:\n        /* \"#utility.yul\":763:787   */\n      tag_158\n        /* \"#utility.yul\":781:786   */\n      dup2\n        /* \"#utility.yul\":763:787   */\n      tag_130\n      jump\t// in\n    tag_158:\n        /* \"#utility.yul\":758:761   */\n      dup3\n        /* \"#utility.yul\":751:788   */\n      mstore\n        /* \"#utility.yul\":676:794   */\n      pop\n      pop\n      jump\t// out\n        /* \"#utility.yul\":800:1022   */\n    tag_29:\n        /* \"#utility.yul\":893:897   */\n      0x00\n        /* \"#utility.yul\":931:933   */\n      0x20\n        /* \"#utility.yul\":920:929   */\n      dup3\n        /* \"#utility.yul\":916:934   */\n      add\n        /* \"#utility.yul\":908:934   */\n      swap1\n      pop\n        /* \"#utility.yul\":944:1015   */\n      tag_160\n        /* \"#utility.yul\":1012:1013   */\n      0x00\n        /* \"#utility.yul\":1001:1010   */\n      dup4\n        /* \"#utility.yul\":997:1014   */\n      add\n        /* \"#utility.yul\":988:994   */\n      dup5\n        /* \"#utility.yul\":944:1015   */\n      tag_131\n      jump\t// in\n    tag_160:\n        /* \"#utility.yul\":800:1022   */\n      swap3\n      swap2\n      pop\n      pop\n      jump\t// out\n        /* \"#utility.yul\":1028:1132   */\n    tag_132:\n        /* \"#utility.yul\":1073:1080   */\n      0x00\n        /* \"#utility.yul\":1102:1126   */\n      tag_162\n        /* \"#utility.yul\":1120:1125   */\n      dup3\n        /* \"#utility.yul\":1102:1126   */\n      tag_127\n      jump\t// in\n    tag_162:\n        /* \"#utility.yul\":1091:1126   */\n      swap1\n      pop\n        /* \"#utility.yul\":1028:1132   */\n      swap2\n      swap1\n      pop\n      jump\t// out\n        /* \"#utility.yul\":1138:1280   */\n    tag_133:\n        /* \"#utility.yul\":1241:1273   */\n      tag_164\n        /* \"#utility.yul\":1267:1272   */\n      dup2\n        /* \"#utility.yul\":1241:1273   */\n      tag_132\n      jump\t// in\n    tag_164:\n        /* \"#utility.yul\":1236:1239   */\n      dup3\n        /* \"#utility.yul\":1229:1274   */\n      mstore\n        /* \"#utility.yul\":1138:1280   */\n      pop\n      pop\n      jump\t// out\n        /* \"#utility.yul\":1286:1540   */\n    tag_43:\n        /* \"#utility.yul\":1395:1399   */\n      0x00\n        /* \"#utility.yul\":1433:1435   */\n      0x20\n        /* \"#utility.yul\":1422:1431   */\n      dup3\n        /* \"#utility.yul\":1418:1436   */\n      add\n        /* \"#utility.yul\":1410:1436   */\n      swap1\n      pop\n        /* \"#utility.yul\":1446:1533   */\n      tag_166\n        /* \"#utility.yul\":1530:1531   */\n      0x00\n        /* \"#utility.yul\":1519:1528   */\n      dup4\n        /* \"#utility.yul\":1515:1532   */\n      add\n        /* \"#utility.yul\":1506:1512   */\n      dup5\n        /* \"#utility.yul\":1446:1533   */\n      tag_133\n      jump\t// in\n    tag_166:\n        /* \"#utility.yul\":1286:1540   */\n      swap3\n      swap2\n      pop\n      pop\n      jump\t// out\n        /* \"#utility.yul\":1546:1636   */\n    tag_134:\n        /* \"#utility.yul\":1580:1587   */\n      0x00\n        /* \"#utility.yul\":1623:1628   */\n      dup2\n        /* \"#utility.yul\":1616:1629   */\n      iszero\n        /* \"#utility.yul\":1609:1630   */\n      iszero\n        /* \"#utility.yul\":1598:1630   */\n      swap1\n      pop\n        /* \"#utility.yul\":1546:1636   */\n      swap2\n      swap1\n      pop\n      jump\t// out\n        /* \"#utility.yul\":1642:1751   */\n    tag_135:\n        /* \"#utility.yul\":1723:1744   */\n      tag_169\n        /* \"#utility.yul\":1738:1743   */\n      dup2\n        /* \"#utility.yul\":1723:1744   */\n      tag_134\n      jump\t// in\n    tag_169:\n        /* \"#utility.yul\":1718:1721   */\n      dup3\n        /* \"#utility.yul\":1711:1745   */\n      mstore\n        /* \"#utility.yul\":1642:1751   */\n      pop\n      pop\n      jump\t// out\n        /* \"#utility.yul\":1757:1967   */\n    tag_48:\n        /* \"#utility.yul\":1844:1848   */\n      0x00\n        /* \"#utility.yul\":1882:1884   */\n      0x20\n        /* \"#utility.yul\":1871:1880   */\n      dup3\n        /* \"#utility.yul\":1867:1885   */\n      add\n        /* \"#utility.yul\":1859:1885   */\n      swap1\n      pop\n        /* \"#utility.yul\":1895:1960   */\n      tag_171\n        /* \"#utility.yul\":1957:1958   */\n      0x00\n        /* \"#utility.yul\":1946:1955   */\n      dup4\n        /* \"#utility.yul\":1942:1959   */\n      add\n        /* \"#utility.yul\":1933:1939   */\n      dup5\n        /* \"#utility.yul\":1895:1960   */\n      tag_135\n      jump\t// in\n    tag_171:\n        /* \"#utility.yul\":1757:1967   */\n      swap3\n      swap2\n      pop\n      pop\n      jump\t// out\n        /* \"#utility.yul\":2054:2171   */\n    tag_137:\n        /* \"#utility.yul\":2163:2164   */\n      0x00\n        /* \"#utility.yul\":2160:2161   */\n      dup1\n        /* \"#utility.yul\":2153:2165   */\n      revert\n        /* \"#utility.yul\":2300:2422   */\n    tag_139:\n        /* \"#utility.yul\":2373:2397   */\n      tag_176\n        /* \"#utility.yul\":2391:2396   */\n      dup2\n        /* \"#utility.yul\":2373:2397   */\n      tag_128\n      jump\t// in\n    tag_176:\n        /* \"#utility.yul\":2366:2371   */\n      dup2\n        /* \"#utility.yul\":2363:2398   */\n      eq\n        /* \"#utility.yul\":2353:2416   */\n      tag_177\n      jumpi\n        /* \"#utility.yul\":2412:2413   */\n      0x00\n        /* \"#utility.yul\":2409:2410   */\n      dup1\n        /* \"#utility.yul\":2402:2414   */\n      revert\n        /* \"#utility.yul\":2353:2416   */\n    tag_177:\n        /* \"#utility.yul\":2300:2422   */\n      pop\n      jump\t// out\n        /* \"#utility.yul\":2428:2567   */\n    tag_140:\n        /* \"#utility.yul\":2474:2479   */\n      0x00\n        /* \"#utility.yul\":2512:2518   */\n      dup2\n        /* \"#utility.yul\":2499:2519   */\n      calldataload\n        /* \"#utility.yul\":2490:2519   */\n      swap1\n      pop\n        /* \"#utility.yul\":2528:2561   */\n      tag_179\n        /* \"#utility.yul\":2555:2560   */\n      dup2\n        /* \"#utility.yul\":2528:2561   */\n      tag_139\n      jump\t// in\n    tag_179:\n        /* \"#utility.yul\":2428:2567   */\n      swap3\n      swap2\n      pop\n      pop\n      jump\t// out\n        /* \"#utility.yul\":2573:2902   */\n    tag_52:\n        /* \"#utility.yul\":2632:2638   */\n      0x00\n        /* \"#utility.yul\":2681:2683   */\n      0x20\n        /* \"#utility.yul\":2669:2678   */\n      dup3\n        /* \"#utility.yul\":2660:2667   */\n      dup5\n        /* \"#utility.yul\":2656:2679   */\n      sub\n        /* \"#utility.yul\":2652:2684   */\n      slt\n        /* \"#utility.yul\":2649:2768   */\n      iszero\n      tag_181\n      jumpi\n        /* \"#utility.yul\":2687:2766   */\n      tag_182\n      tag_137\n      jump\t// in\n    tag_182:\n        /* \"#utility.yul\":2649:2768   */\n    tag_181:\n        /* \"#utility.yul\":2807:2808   */\n      0x00\n        /* \"#utility.yul\":2832:2885   */\n      tag_183\n        /* \"#utility.yul\":2877:2884   */\n      dup5\n        /* \"#utility.yul\":2868:2874   */\n      dup3\n        /* \"#utility.yul\":2857:2866   */\n      dup6\n        /* \"#utility.yul\":2853:2875   */\n      add\n        /* \"#utility.yul\":2832:2885   */\n      tag_140\n      jump\t// in\n    tag_183:\n        /* \"#utility.yul\":2822:2885   */\n      swap2\n      pop\n        /* \"#utility.yul\":2778:2895   */\n      pop\n        /* \"#utility.yul\":2573:2902   */\n      swap3\n      swap2\n      pop\n      pop\n      jump\t// out\n        /* \"#utility.yul\":2908:3088   */\n    tag_141:\n        /* \"#utility.yul\":2956:3033   */\n      0x4e487b7100000000000000000000000000000000000000000000000000000000\n        /* \"#utility.yul\":2953:2954   */\n      0x00\n        /* \"#utility.yul\":2946:3034   */\n      mstore\n        /* \"#utility.yul\":3053:3057   */\n      0x11\n        /* \"#utility.yul\":3050:3051   */\n      0x04\n        /* \"#utility.yul\":3043:3058   */\n      mstore\n        /* \"#utility.yul\":3077:3081   */\n      0x24\n        /* \"#utility.yul\":3074:3075   */\n      0x00\n        /* \"#utility.yul\":3067:3082   */\n      revert\n        /* \"#utility.yul\":3094:3285   */\n    tag_90:\n        /* \"#utility.yul\":3134:3137   */\n      0x00\n        /* \"#utility.yul\":3153:3173   */\n      tag_186\n        /* \"#utility.yul\":3171:3172   */\n      dup3\n        /* \"#utility.yul\":3153:3173   */\n      tag_130\n      jump\t// in\n    tag_186:\n        /* \"#utility.yul\":3148:3173   */\n      swap2\n      pop\n        /* \"#utility.yul\":3187:3207   */\n      tag_187\n        /* \"#utility.yul\":3205:3206   */\n      dup4\n        /* \"#utility.yul\":3187:3207   */\n      tag_130\n      jump\t// in\n    tag_187:\n        /* \"#utility.yul\":3182:3207   */\n      swap3\n      pop\n        /* \"#utility.yul\":3230:3231   */\n      dup3\n        /* \"#utility.yul\":3227:3228   */\n      dup3\n        /* \"#utility.yul\":3223:3232   */\n      add\n        /* \"#utility.yul\":3216:3232   */\n      swap1\n      pop\n        /* \"#utility.yul\":3251:3254   */\n      dup1\n        /* \"#utility.yul\":3248:3249   */\n      dup3\n        /* \"#utility.yul\":3245:3255   */\n      gt\n        /* \"#utility.yul\":3242:3278   */\n      iszero\n      tag_188\n      jumpi\n        /* \"#utility.yul\":3258:3276   */\n      tag_189\n      tag_141\n      jump\t// in\n    tag_189:\n        /* \"#utility.yul\":3242:3278   */\n    tag_188:\n        /* \"#utility.yul\":3094:3285   */\n      swap3\n      swap2\n      pop\n      pop\n      jump\t// out\n        /* \"#utility.yul\":3291:3370   */\n    tag_142:\n        /* \"#utility.yul\":3330:3337   */\n      0x00\n        /* \"#utility.yul\":3359:3364   */\n      dup2\n        /* \"#utility.yul\":3348:3364   */\n      swap1\n      pop\n        /* \"#utility.yul\":3291:3370   */\n      swap2\n      swap1\n      pop\n      jump\t// out\n        /* \"#utility.yul\":3376:3533   */\n    tag_143:\n        /* \"#utility.yul\":3481:3526   */\n      tag_192\n        /* \"#utility.yul\":3501:3525   */\n      tag_193\n        /* \"#utility.yul\":3519:3524   */\n      dup3\n        /* \"#utility.yul\":3501:3525   */\n      tag_130\n      jump\t// in\n    tag_193:\n        /* \"#utility.yul\":3481:3526   */\n      tag_142\n      jump\t// in\n    tag_192:\n        /* \"#utility.yul\":3476:3479   */\n      dup3\n        /* \"#utility.yul\":3469:3527   */\n      mstore\n        /* \"#utility.yul\":3376:3533   */\n      pop\n      pop\n      jump\t// out\n        /* \"#utility.yul\":3539:3633   */\n    tag_144:\n        /* \"#utility.yul\":3572:3580   */\n      0x00\n        /* \"#utility.yul\":3620:3625   */\n      dup2\n        /* \"#utility.yul\":3616:3618   */\n      0x60\n        /* \"#utility.yul\":3612:3626   */\n      shl\n        /* \"#utility.yul\":3591:3626   */\n      swap1\n      pop\n        /* \"#utility.yul\":3539:3633   */\n      swap2\n      swap1\n      pop\n      jump\t// out\n        /* \"#utility.yul\":3639:3733   */\n    tag_145:\n        /* \"#utility.yul\":3678:3685   */\n      0x00\n        /* \"#utility.yul\":3707:3727   */\n      tag_196\n        /* \"#utility.yul\":3721:3726   */\n      dup3\n        /* \"#utility.yul\":3707:3727   */\n      tag_144\n      jump\t// in\n    tag_196:\n        /* \"#utility.yul\":3696:3727   */\n      swap1\n      pop\n        /* \"#utility.yul\":3639:3733   */\n      swap2\n      swap1\n      pop\n      jump\t// out\n        /* \"#utility.yul\":3739:3839   */\n    tag_146:\n        /* \"#utility.yul\":3778:3785   */\n      0x00\n        /* \"#utility.yul\":3807:3833   */\n      tag_198\n        /* \"#utility.yul\":3827:3832   */\n      dup3\n        /* \"#utility.yul\":3807:3833   */\n      tag_145\n      jump\t// in\n    tag_198:\n        /* \"#utility.yul\":3796:3833   */\n      swap1\n      pop\n        /* \"#utility.yul\":3739:3839   */\n      swap2\n      swap1\n      pop\n      jump\t// out\n        /* \"#utility.yul\":3845:4002   */\n    tag_147:\n        /* \"#utility.yul\":3950:3995   */\n      tag_200\n        /* \"#utility.yul\":3970:3994   */\n      tag_201\n        /* \"#utility.yul\":3988:3993   */\n      dup3\n        /* \"#utility.yul\":3970:3994   */\n      tag_128\n      jump\t// in\n    tag_201:\n        /* \"#utility.yul\":3950:3995   */\n      tag_146\n      jump\t// in\n    tag_200:\n        /* \"#utility.yul\":3945:3948   */\n      dup3\n        /* \"#utility.yul\":3938:3996   */\n      mstore\n        /* \"#utility.yul\":3845:4002   */\n      pop\n      pop\n      jump\t// out\n        /* \"#utility.yul\":4008:4546   */\n    tag_102:\n        /* \"#utility.yul\":4176:4179   */\n      0x00\n        /* \"#utility.yul\":4191:4266   */\n      tag_203\n        /* \"#utility.yul\":4262:4265   */\n      dup3\n        /* \"#utility.yul\":4253:4259   */\n      dup7\n        /* \"#utility.yul\":4191:4266   */\n      tag_143\n      jump\t// in\n    tag_203:\n        /* \"#utility.yul\":4291:4293   */\n      0x20\n        /* \"#utility.yul\":4286:4289   */\n      dup3\n        /* \"#utility.yul\":4282:4294   */\n      add\n        /* \"#utility.yul\":4275:4294   */\n      swap2\n      pop\n        /* \"#utility.yul\":4304:4379   */\n      tag_204\n        /* \"#utility.yul\":4375:4378   */\n      dup3\n        /* \"#utility.yul\":4366:4372   */\n      dup6\n        /* \"#utility.yul\":4304:4379   */\n      tag_147\n      jump\t// in\n    tag_204:\n        /* \"#utility.yul\":4404:4406   */\n      0x14\n        /* \"#utility.yul\":4399:4402   */\n      dup3\n        /* \"#utility.yul\":4395:4407   */\n      add\n        /* \"#utility.yul\":4388:4407   */\n      swap2\n      pop\n        /* \"#utility.yul\":4417:4492   */\n      tag_205\n        /* \"#utility.yul\":4488:4491   */\n      dup3\n        /* \"#utility.yul\":4479:4485   */\n      dup5\n        /* \"#utility.yul\":4417:4492   */\n      tag_143\n      jump\t// in\n    tag_205:\n        /* \"#utility.yul\":4517:4519   */\n      0x20\n        /* \"#utility.yul\":4512:4515   */\n      dup3\n        /* \"#utility.yul\":4508:4520   */\n      add\n        /* \"#utility.yul\":4501:4520   */\n      swap2\n      pop\n        /* \"#utility.yul\":4537:4540   */\n      dup2\n        /* \"#utility.yul\":4530:4540   */\n      swap1\n      pop\n        /* \"#utility.yul\":4008:4546   */\n      swap5\n      swap4\n      pop\n      pop\n      pop\n      pop\n      jump\t// out\n        /* \"#utility.yul\":4552:4884   */\n    tag_106:\n        /* \"#utility.yul\":4673:4677   */\n      0x00\n        /* \"#utility.yul\":4711:4713   */\n      0x40\n        /* \"#utility.yul\":4700:4709   */\n      dup3\n        /* \"#utility.yul\":4696:4714   */\n      add\n        /* \"#utility.yul\":4688:4714   */\n      swap1\n      pop\n        /* \"#utility.yul\":4724:4795   */\n      tag_207\n        /* \"#utility.yul\":4792:4793   */\n      0x00\n        /* \"#utility.yul\":4781:4790   */\n      dup4\n        /* \"#utility.yul\":4777:4794   */\n      add\n        /* \"#utility.yul\":4768:4774   */\n      dup6\n        /* \"#utility.yul\":4724:4795   */\n      tag_129\n      jump\t// in\n    tag_207:\n        /* \"#utility.yul\":4805:4877   */\n      tag_208\n        /* \"#utility.yul\":4873:4875   */\n      0x20\n        /* \"#utility.yul\":4862:4871   */\n      dup4\n        /* \"#utility.yul\":4858:4876   */\n      add\n        /* \"#utility.yul\":4849:4855   */\n      dup5\n        /* \"#utility.yul\":4805:4877   */\n      tag_131\n      jump\t// in\n    tag_208:\n        /* \"#utility.yul\":4552:4884   */\n      swap4\n      swap3\n      pop\n      pop\n      pop\n      jump\t// out\n\n    auxdata: 0xa2646970667358221220d543df631b60d2322f28e1320cecbb6d16c708ed129f63a2cf414f0f5a4bfd9f64736f6c63430008130033\n}\n",
				"bytecode": {
					"linkReferences": {},
					"object": "60806040523480156200001157600080fd5b506040516200145f3803806200145f833981810160405281019062000037919062000172565b826000806101000a81548173ffffffffffffffffffffffffffffffffffffffff021916908373ffffffffffffffffffffffffffffffffffffffff160217905550834262000085919062000213565b600181905550670de0b6b3a764000082620000a191906200024e565b600281905550670de0b6b3a764000081620000bd91906200024e565b6003819055505050505062000299565b600080fd5b6000819050919050565b620000e781620000d2565b8114620000f357600080fd5b50565b6000815190506200010781620000dc565b92915050565b600073ffffffffffffffffffffffffffffffffffffffff82169050919050565b60006200013a826200010d565b9050919050565b6200014c816200012d565b81146200015857600080fd5b50565b6000815190506200016c8162000141565b92915050565b600080600080608085870312156200018f576200018e620000cd565b5b60006200019f87828801620000f6565b9450506020620001b2878288016200015b565b9350506040620001c587828801620000f6565b9250506060620001d887828801620000f6565b91505092959194509250565b7f4e487b7100000000000000000000000000000000000000000000000000000000600052601160045260246000fd5b60006200022082620000d2565b91506200022d83620000d2565b9250828201905080821115620002485762000247620001e4565b5b92915050565b60006200025b82620000d2565b91506200026883620000d2565b92508282026200027881620000d2565b91508282048414831517620002925762000291620001e4565b5b5092915050565b6111b680620002a96000396000f3fe6080604052600436106100e75760003560e01c80633d087c2c1161008a57806391f901571161005957806391f90157146102a2578063bdb39373146102cd578063be29b056146102f8578063d57bde7914610323576100e7565b80633d087c2c146101e45780634979440a146102215780634b449cba1461024c578063853828b614610277576100e7565b80631998aeef116100c65780631998aeef1461016d5780632a24f46c1461017757806338af3eed1461018e5780633ccfd60b146101b9576100e7565b80623495a4146100ec578063070d350c146101175780630e8670e014610142575b600080fd5b3480156100f857600080fd5b5061010161034e565b60405161010e9190610f2f565b60405180910390f35b34801561012357600080fd5b5061012c610378565b6040516101399190610f63565b60405180910390f35b34801561014e57600080fd5b506101576103d8565b6040516101649190610f63565b60405180910390f35b6101756103de565b005b34801561018357600080fd5b5061018c610888565b005b34801561019a57600080fd5b506101a36109ee565b6040516101b09190610f9f565b60405180910390f35b3480156101c557600080fd5b506101ce610a12565b6040516101db9190610fd5565b60405180910390f35b3480156101f057600080fd5b5061020b60048036038101906102069190611021565b610b36565b6040516102189190610f63565b60405180910390f35b34801561022d57600080fd5b50610236610be4565b6040516102439190610f63565b60405180910390f35b34801561025857600080fd5b50610261610bee565b60405161026e9190610f63565b60405180910390f35b34801561028357600080fd5b5061028c610bf4565b6040516102999190610fd5565b60405180910390f35b3480156102ae57600080fd5b506102b7610e96565b6040516102c49190610f2f565b60405180910390f35b3480156102d957600080fd5b506102e2610ebc565b6040516102ef9190610f2f565b60405180910390f35b34801561030457600080fd5b5061030d610ee2565b60405161031a9190610f63565b60405180910390f35b34801561032f57600080fd5b50610338610ee8565b6040516103459190610f63565b60405180910390f35b6000600460009054906101000a900473ffffffffffffffffffffffffffffffffffffffff16905090565b600080600960008081526020019081526020016000206001015490505b60006009600083815260200190815260200160002060010154146103d15760096000828152602001908152602001600020600101549050610395565b8091505090565b60035481565b60003373ffffffffffffffffffffffffffffffffffffffff16600460009054906101000a900473ffffffffffffffffffffffffffffffffffffffff1673ffffffffffffffffffffffffffffffffffffffff160361044a5734600554610443919061107d565b9050610498565b600760003373ffffffffffffffffffffffffffffffffffffffff1673ffffffffffffffffffffffffffffffffffffffff1681526020019081526020016000205434610495919061107d565b90505b6001544211156104d4576040517fd02e774d00000000000000000000000000000000000000000000000000000000815260040160405180910390fd5b600554811161051c576005546040517f4e12c1bb0000000000000000000000000000000000000000000000000000000081526004016105139190610f63565b60405180910390fd5b600254811015610558576040517f6f1465ea00000000000000000000000000000000000000000000000000000000815260040160405180910390fd5b600354811115610594576040517faa43d3f300000000000000000000000000000000000000000000000000000000815260040160405180910390fd5b6000600554036105e05733600660006101000a81548173ffffffffffffffffffffffffffffffffffffffff021916908373ffffffffffffffffffffffffffffffffffffffff1602179055505b6000600554146106655760055460076000600460009054906101000a900473ffffffffffffffffffffffffffffffffffffffff1673ffffffffffffffffffffffffffffffffffffffff1673ffffffffffffffffffffffffffffffffffffffff168152602001908152602001600020600082825461065d919061107d565b925050819055505b600060405180604001604052803373ffffffffffffffffffffffffffffffffffffffff1681526020013433426040516020016106a39392919061111a565b6040516020818303038152906040528051906020012060001c815250905080600960006106ce610378565b815260200190815260200160002060008201518160000160006101000a81548173ffffffffffffffffffffffffffffffffffffffff021916908373ffffffffffffffffffffffffffffffffffffffff1602179055506020820151816001015590505033600460006101000a81548173ffffffffffffffffffffffffffffffffffffffff021916908373ffffffffffffffffffffffffffffffffffffffff1602179055503460076000600460009054906101000a900473ffffffffffffffffffffffffffffffffffffffff1673ffffffffffffffffffffffffffffffffffffffff1673ffffffffffffffffffffffffffffffffffffffff168152602001908152602001600020546107de919061107d565b600581905550600060076000600460009054906101000a900473ffffffffffffffffffffffffffffffffffffffff1673ffffffffffffffffffffffffffffffffffffffff1673ffffffffffffffffffffffffffffffffffffffff168152602001908152602001600020819055507ff4757a49b326036464bec6fe419a4ae38c8a02ce3e68bf0809674f6aab8ad300333460405161087c929190611157565b60405180910390a15050565b6001544210156108c4576040517f44cee29000000000000000000000000000000000000000000000000000000000815260040160405180910390fd5b600a60009054906101000a900460ff161561090b576040517f61cfdcf800000000000000000000000000000000000000000000000000000000815260040160405180910390fd5b6001600a60006101000a81548160ff0219169083151502179055507fdaec4582d5d9595688c8c98545fdd1c696d41c6aeaeb636737e84ed2f5c00eda600460009054906101000a900473ffffffffffffffffffffffffffffffffffffffff1660055460405161097b929190611157565b60405180910390a160008054906101000a900473ffffffffffffffffffffffffffffffffffffffff1673ffffffffffffffffffffffffffffffffffffffff166108fc6005549081150290604051600060405180830381858888f193505050501580156109eb573d6000803e3d6000fd5b50565b60008054906101000a900473ffffffffffffffffffffffffffffffffffffffff1681565b600080600760003373ffffffffffffffffffffffffffffffffffffffff1673ffffffffffffffffffffffffffffffffffffffff1681526020019081526020016000205490506000811115610b2d576000600760003373ffffffffffffffffffffffffffffffffffffffff1673ffffffffffffffffffffffffffffffffffffffff168152602001908152602001600020819055503373ffffffffffffffffffffffffffffffffffffffff166108fc829081150290604051600060405180830381858888f19350505050610b2c5780600760003373ffffffffffffffffffffffffffffffffffffffff1673ffffffffffffffffffffffffffffffffffffffff168152602001908152602001600020819055506000915050610b33565b5b60019150505b90565b6000808273ffffffffffffffffffffffffffffffffffffffff16600460009054906101000a900473ffffffffffffffffffffffffffffffffffffffff1673ffffffffffffffffffffffffffffffffffffffff1603610b98576005549050610bdb565b600760008473ffffffffffffffffffffffffffffffffffffffff1673ffffffffffffffffffffffffffffffffffffffff1681526020019081526020016000205490505b80915050919050565b6000600554905090565b60015481565b600080600960008081526020019081526020016000206001015490505b600073ffffffffffffffffffffffffffffffffffffffff166009600083815260200190815260200160002060000160009054906101000a900473ffffffffffffffffffffffffffffffffffffffff1673ffffffffffffffffffffffffffffffffffffffff1614610e8d576000600760006009600085815260200190815260200160002060000160009054906101000a900473ffffffffffffffffffffffffffffffffffffffff1673ffffffffffffffffffffffffffffffffffffffff1673ffffffffffffffffffffffffffffffffffffffff1681526020019081526020016000205490506000811115610e6e576000600760006009600086815260200190815260200160002060000160009054906101000a900473ffffffffffffffffffffffffffffffffffffffff1673ffffffffffffffffffffffffffffffffffffffff1673ffffffffffffffffffffffffffffffffffffffff168152602001908152602001600020819055506009600083815260200190815260200160002060000160009054906101000a900473ffffffffffffffffffffffffffffffffffffffff1673ffffffffffffffffffffffffffffffffffffffff166108fc829081150290604051600060405180830381858888f19350505050610e6d5780600760006009600086815260200190815260200160002060000160009054906101000a900473ffffffffffffffffffffffffffffffffffffffff1673ffffffffffffffffffffffffffffffffffffffff1673ffffffffffffffffffffffffffffffffffffffff16815260200190815260200160002081905550600092505050610e93565b5b6009600083815260200190815260200160002060010154915050610c11565b60019150505b90565b600460009054906101000a900473ffffffffffffffffffffffffffffffffffffffff1681565b600660009054906101000a900473ffffffffffffffffffffffffffffffffffffffff1681565b60025481565b60055481565b600073ffffffffffffffffffffffffffffffffffffffff82169050919050565b6000610f1982610eee565b9050919050565b610f2981610f0e565b82525050565b6000602082019050610f446000830184610f20565b92915050565b6000819050919050565b610f5d81610f4a565b82525050565b6000602082019050610f786000830184610f54565b92915050565b6000610f8982610eee565b9050919050565b610f9981610f7e565b82525050565b6000602082019050610fb46000830184610f90565b92915050565b60008115159050919050565b610fcf81610fba565b82525050565b6000602082019050610fea6000830184610fc6565b92915050565b600080fd5b610ffe81610f0e565b811461100957600080fd5b50565b60008135905061101b81610ff5565b92915050565b60006020828403121561103757611036610ff0565b5b60006110458482850161100c565b91505092915050565b7f4e487b7100000000000000000000000000000000000000000000000000000000600052601160045260246000fd5b600061108882610f4a565b915061109383610f4a565b92508282019050808211156110ab576110aa61104e565b5b92915050565b6000819050919050565b6110cc6110c782610f4a565b6110b1565b82525050565b60008160601b9050919050565b60006110ea826110d2565b9050919050565b60006110fc826110df565b9050919050565b61111461110f82610f0e565b6110f1565b82525050565b600061112682866110bb565b6020820191506111368285611103565b60148201915061114682846110bb565b602082019150819050949350505050565b600060408201905061116c6000830185610f20565b6111796020830184610f54565b939250505056fea2646970667358221220d543df631b60d2322f28e1320cecbb6d16c708ed129f63a2cf414f0f5a4bfd9f64736f6c63430008130033",
					"opcodes": "PUSH1 0x80 PUSH1 0x40 MSTORE CALLVALUE DUP1 ISZERO PUSH3 0x11 JUMPI PUSH1 0x0 DUP1 REVERT JUMPDEST POP PUSH1 0x40 MLOAD PUSH3 0x145F CODESIZE SUB DUP1 PUSH3 0x145F DUP4 CODECOPY DUP2 DUP2 ADD PUSH1 0x40 MSTORE DUP2 ADD SWAP1 PUSH3 0x37 SWAP2 SWAP1 PUSH3 0x172 JUMP JUMPDEST DUP3 PUSH1 0x0 DUP1 PUSH2 0x100 EXP DUP2 SLOAD DUP2 PUSH20 0xFFFFFFFFFFFFFFFFFFFFFFFFFFFFFFFFFFFFFFFF MUL NOT AND SWAP1 DUP4 PUSH20 0xFFFFFFFFFFFFFFFFFFFFFFFFFFFFFFFFFFFFFFFF AND MUL OR SWAP1 SSTORE POP DUP4 TIMESTAMP PUSH3 0x85 SWAP2 SWAP1 PUSH3 0x213 JUMP JUMPDEST PUSH1 0x1 DUP2 SWAP1 SSTORE POP PUSH8 0xDE0B6B3A7640000 DUP3 PUSH3 0xA1 SWAP2 SWAP1 PUSH3 0x24E JUMP JUMPDEST PUSH1 0x2 DUP2 SWAP1 SSTORE POP PUSH8 0xDE0B6B3A7640000 DUP2 PUSH3 0xBD SWAP2 SWAP1 PUSH3 0x24E JUMP JUMPDEST PUSH1 0x3 DUP2 SWAP1 SSTORE POP POP POP POP POP PUSH3 0x299 JUMP JUMPDEST PUSH1 0x0 DUP1 REVERT JUMPDEST PUSH1 0x0 DUP2 SWAP1 POP SWAP2 SWAP1 POP JUMP JUMPDEST PUSH3 0xE7 DUP2 PUSH3 0xD2 JUMP JUMPDEST DUP2 EQ PUSH3 0xF3 JUMPI PUSH1 0x0 DUP1 REVERT JUMPDEST POP JUMP JUMPDEST PUSH1 0x0 DUP2 MLOAD SWAP1 POP PUSH3 0x107 DUP2 PUSH3 0xDC JUMP JUMPDEST SWAP3 SWAP2 POP POP JUMP JUMPDEST PUSH1 0x0 PUSH20 0xFFFFFFFFFFFFFFFFFFFFFFFFFFFFFFFFFFFFFFFF DUP3 AND SWAP1 POP SWAP2 SWAP1 POP JUMP JUMPDEST PUSH1 0x0 PUSH3 0x13A DUP3 PUSH3 0x10D JUMP JUMPDEST SWAP1 POP SWAP2 SWAP1 POP JUMP JUMPDEST PUSH3 0x14C DUP2 PUSH3 0x12D JUMP JUMPDEST DUP2 EQ PUSH3 0x158 JUMPI PUSH1 0x0 DUP1 REVERT JUMPDEST POP JUMP JUMPDEST PUSH1 0x0 DUP2 MLOAD SWAP1 POP PUSH3 0x16C DUP2 PUSH3 0x141 JUMP JUMPDEST SWAP3 SWAP2 POP POP JUMP JUMPDEST PUSH1 0x0 DUP1 PUSH1 0x0 DUP1 PUSH1 0x80 DUP6 DUP8 SUB SLT ISZERO PUSH3 0x18F JUMPI PUSH3 0x18E PUSH3 0xCD JUMP JUMPDEST JUMPDEST PUSH1 0x0 PUSH3 0x19F DUP8 DUP3 DUP9 ADD PUSH3 0xF6 JUMP JUMPDEST SWAP5 POP POP PUSH1 0x20 PUSH3 0x1B2 DUP8 DUP3 DUP9 ADD PUSH3 0x15B JUMP JUMPDEST SWAP4 POP POP PUSH1 0x40 PUSH3 0x1C5 DUP8 DUP3 DUP9 ADD PUSH3 0xF6 JUMP JUMPDEST SWAP3 POP POP PUSH1 0x60 PUSH3 0x1D8 DUP8 DUP3 DUP9 ADD PUSH3 0xF6 JUMP JUMPDEST SWAP2 POP POP SWAP3 SWAP6 SWAP2 SWAP5 POP SWAP3 POP JUMP JUMPDEST PUSH32 0x4E487B7100000000000000000000000000000000000000000000000000000000 PUSH1 0x0 MSTORE PUSH1 0x11 PUSH1 0x4 MSTORE PUSH1 0x24 PUSH1 0x0 REVERT JUMPDEST PUSH1 0x0 PUSH3 0x220 DUP3 PUSH3 0xD2 JUMP JUMPDEST SWAP2 POP PUSH3 0x22D DUP4 PUSH3 0xD2 JUMP JUMPDEST SWAP3 POP DUP3 DUP3 ADD SWAP1 POP DUP1 DUP3 GT ISZERO PUSH3 0x248 JUMPI PUSH3 0x247 PUSH3 0x1E4 JUMP JUMPDEST JUMPDEST SWAP3 SWAP2 POP POP JUMP JUMPDEST PUSH1 0x0 PUSH3 0x25B DUP3 PUSH3 0xD2 JUMP JUMPDEST SWAP2 POP PUSH3 0x268 DUP4 PUSH3 0xD2 JUMP JUMPDEST SWAP3 POP DUP3 DUP3 MUL PUSH3 0x278 DUP2 PUSH3 0xD2 JUMP JUMPDEST SWAP2 POP DUP3 DUP3 DIV DUP5 EQ DUP4 ISZERO OR PUSH3 0x292 JUMPI PUSH3 0x291 PUSH3 0x1E4 JUMP JUMPDEST JUMPDEST POP SWAP3 SWAP2 POP POP JUMP JUMPDEST PUSH2 0x11B6 DUP1 PUSH3 0x2A9 PUSH1 0x0 CODECOPY PUSH1 0x0 RETURN INVALID PUSH1 0x80 PUSH1 0x40 MSTORE PUSH1 0x4 CALLDATASIZE LT PUSH2 0xE7 JUMPI PUSH1 0x0 CALLDATALOAD PUSH1 0xE0 SHR DUP1 PUSH4 0x3D087C2C GT PUSH2 0x8A JUMPI DUP1 PUSH4 0x91F90157 GT PUSH2 0x59 JUMPI DUP1 PUSH4 0x91F90157 EQ PUSH2 0x2A2 JUMPI DUP1 PUSH4 0xBDB39373 EQ PUSH2 0x2CD JUMPI DUP1 PUSH4 0xBE29B056 EQ PUSH2 0x2F8 JUMPI DUP1 PUSH4 0xD57BDE79 EQ PUSH2 0x323 JUMPI PUSH2 0xE7 JUMP JUMPDEST DUP1 PUSH4 0x3D087C2C EQ PUSH2 0x1E4 JUMPI DUP1 PUSH4 0x4979440A EQ PUSH2 0x221 JUMPI DUP1 PUSH4 0x4B449CBA EQ PUSH2 0x24C JUMPI DUP1 PUSH4 0x853828B6 EQ PUSH2 0x277 JUMPI PUSH2 0xE7 JUMP JUMPDEST DUP1 PUSH4 0x1998AEEF GT PUSH2 0xC6 JUMPI DUP1 PUSH4 0x1998AEEF EQ PUSH2 0x16D JUMPI DUP1 PUSH4 0x2A24F46C EQ PUSH2 0x177 JUMPI DUP1 PUSH4 0x38AF3EED EQ PUSH2 0x18E JUMPI DUP1 PUSH4 0x3CCFD60B EQ PUSH2 0x1B9 JUMPI PUSH2 0xE7 JUMP JUMPDEST DUP1 PUSH3 0x3495A4 EQ PUSH2 0xEC JUMPI DUP1 PUSH4 0x70D350C EQ PUSH2 0x117 JUMPI DUP1 PUSH4 0xE8670E0 EQ PUSH2 0x142 JUMPI JUMPDEST PUSH1 0x0 DUP1 REVERT JUMPDEST CALLVALUE DUP1 ISZERO PUSH2 0xF8 JUMPI PUSH1 0x0 DUP1 REVERT JUMPDEST POP PUSH2 0x101 PUSH2 0x34E JUMP JUMPDEST PUSH1 0x40 MLOAD PUSH2 0x10E SWAP2 SWAP1 PUSH2 0xF2F JUMP JUMPDEST PUSH1 0x40 MLOAD DUP1 SWAP2 SUB SWAP1 RETURN JUMPDEST CALLVALUE DUP1 ISZERO PUSH2 0x123 JUMPI PUSH1 0x0 DUP1 REVERT JUMPDEST POP PUSH2 0x12C PUSH2 0x378 JUMP JUMPDEST PUSH1 0x40 MLOAD PUSH2 0x139 SWAP2 SWAP1 PUSH2 0xF63 JUMP JUMPDEST PUSH1 0x40 MLOAD DUP1 SWAP2 SUB SWAP1 RETURN JUMPDEST CALLVALUE DUP1 ISZERO PUSH2 0x14E JUMPI PUSH1 0x0 DUP1 REVERT JUMPDEST POP PUSH2 0x157 PUSH2 0x3D8 JUMP JUMPDEST PUSH1 0x40 MLOAD PUSH2 0x164 SWAP2 SWAP1 PUSH2 0xF63 JUMP JUMPDEST PUSH1 0x40 MLOAD DUP1 SWAP2 SUB SWAP1 RETURN JUMPDEST PUSH2 0x175 PUSH2 0x3DE JUMP JUMPDEST STOP JUMPDEST CALLVALUE DUP1 ISZERO PUSH2 0x183 JUMPI PUSH1 0x0 DUP1 REVERT JUMPDEST POP PUSH2 0x18C PUSH2 0x888 JUMP JUMPDEST STOP JUMPDEST CALLVALUE DUP1 ISZERO PUSH2 0x19A JUMPI PUSH1 0x0 DUP1 REVERT JUMPDEST POP PUSH2 0x1A3 PUSH2 0x9EE JUMP JUMPDEST PUSH1 0x40 MLOAD PUSH2 0x1B0 SWAP2 SWAP1 PUSH2 0xF9F JUMP JUMPDEST PUSH1 0x40 MLOAD DUP1 SWAP2 SUB SWAP1 RETURN JUMPDEST CALLVALUE DUP1 ISZERO PUSH2 0x1C5 JUMPI PUSH1 0x0 DUP1 REVERT JUMPDEST POP PUSH2 0x1CE PUSH2 0xA12 JUMP JUMPDEST PUSH1 0x40 MLOAD PUSH2 0x1DB SWAP2 SWAP1 PUSH2 0xFD5 JUMP JUMPDEST PUSH1 0x40 MLOAD DUP1 SWAP2 SUB SWAP1 RETURN JUMPDEST CALLVALUE DUP1 ISZERO PUSH2 0x1F0 JUMPI PUSH1 0x0 DUP1 REVERT JUMPDEST POP PUSH2 0x20B PUSH1 0x4 DUP1 CALLDATASIZE SUB DUP2 ADD SWAP1 PUSH2 0x206 SWAP2 SWAP1 PUSH2 0x1021 JUMP JUMPDEST PUSH2 0xB36 JUMP JUMPDEST PUSH1 0x40 MLOAD PUSH2 0x218 SWAP2 SWAP1 PUSH2 0xF63 JUMP JUMPDEST PUSH1 0x40 MLOAD DUP1 SWAP2 SUB SWAP1 RETURN JUMPDEST CALLVALUE DUP1 ISZERO PUSH2 0x22D JUMPI PUSH1 0x0 DUP1 REVERT JUMPDEST POP PUSH2 0x236 PUSH2 0xBE4 JUMP JUMPDEST PUSH1 0x40 MLOAD PUSH2 0x243 SWAP2 SWAP1 PUSH2 0xF63 JUMP JUMPDEST PUSH1 0x40 MLOAD DUP1 SWAP2 SUB SWAP1 RETURN JUMPDEST CALLVALUE DUP1 ISZERO PUSH2 0x258 JUMPI PUSH1 0x0 DUP1 REVERT JUMPDEST POP PUSH2 0x261 PUSH2 0xBEE JUMP JUMPDEST PUSH1 0x40 MLOAD PUSH2 0x26E SWAP2 SWAP1 PUSH2 0xF63 JUMP JUMPDEST PUSH1 0x40 MLOAD DUP1 SWAP2 SUB SWAP1 RETURN JUMPDEST CALLVALUE DUP1 ISZERO PUSH2 0x283 JUMPI PUSH1 0x0 DUP1 REVERT JUMPDEST POP PUSH2 0x28C PUSH2 0xBF4 JUMP JUMPDEST PUSH1 0x40 MLOAD PUSH2 0x299 SWAP2 SWAP1 PUSH2 0xFD5 JUMP JUMPDEST PUSH1 0x40 MLOAD DUP1 SWAP2 SUB SWAP1 RETURN JUMPDEST CALLVALUE DUP1 ISZERO PUSH2 0x2AE JUMPI PUSH1 0x0 DUP1 REVERT JUMPDEST POP PUSH2 0x2B7 PUSH2 0xE96 JUMP JUMPDEST PUSH1 0x40 MLOAD PUSH2 0x2C4 SWAP2 SWAP1 PUSH2 0xF2F JUMP JUMPDEST PUSH1 0x40 MLOAD DUP1 SWAP2 SUB SWAP1 RETURN JUMPDEST CALLVALUE DUP1 ISZERO PUSH2 0x2D9 JUMPI PUSH1 0x0 DUP1 REVERT JUMPDEST POP PUSH2 0x2E2 PUSH2 0xEBC JUMP JUMPDEST PUSH1 0x40 MLOAD PUSH2 0x2EF SWAP2 SWAP1 PUSH2 0xF2F JUMP JUMPDEST PUSH1 0x40 MLOAD DUP1 SWAP2 SUB SWAP1 RETURN JUMPDEST CALLVALUE DUP1 ISZERO PUSH2 0x304 JUMPI PUSH1 0x0 DUP1 REVERT JUMPDEST POP PUSH2 0x30D PUSH2 0xEE2 JUMP JUMPDEST PUSH1 0x40 MLOAD PUSH2 0x31A SWAP2 SWAP1 PUSH2 0xF63 JUMP JUMPDEST PUSH1 0x40 MLOAD DUP1 SWAP2 SUB SWAP1 RETURN JUMPDEST CALLVALUE DUP1 ISZERO PUSH2 0x32F JUMPI PUSH1 0x0 DUP1 REVERT JUMPDEST POP PUSH2 0x338 PUSH2 0xEE8 JUMP JUMPDEST PUSH1 0x40 MLOAD PUSH2 0x345 SWAP2 SWAP1 PUSH2 0xF63 JUMP JUMPDEST PUSH1 0x40 MLOAD DUP1 SWAP2 SUB SWAP1 RETURN JUMPDEST PUSH1 0x0 PUSH1 0x4 PUSH1 0x0 SWAP1 SLOAD SWAP1 PUSH2 0x100 EXP SWAP1 DIV PUSH20 0xFFFFFFFFFFFFFFFFFFFFFFFFFFFFFFFFFFFFFFFF AND SWAP1 POP SWAP1 JUMP JUMPDEST PUSH1 0x0 DUP1 PUSH1 0x9 PUSH1 0x0 DUP1 DUP2 MSTORE PUSH1 0x20 ADD SWAP1 DUP2 MSTORE PUSH1 0x20 ADD PUSH1 0x0 KECCAK256 PUSH1 0x1 ADD SLOAD SWAP1 POP JUMPDEST PUSH1 0x0 PUSH1 0x9 PUSH1 0x0 DUP4 DUP2 MSTORE PUSH1 0x20 ADD SWAP1 DUP2 MSTORE PUSH1 0x20 ADD PUSH1 0x0 KECCAK256 PUSH1 0x1 ADD SLOAD EQ PUSH2 0x3D1 JUMPI PUSH1 0x9 PUSH1 0x0 DUP3 DUP2 MSTORE PUSH1 0x20 ADD SWAP1 DUP2 MSTORE PUSH1 0x20 ADD PUSH1 0x0 KECCAK256 PUSH1 0x1 ADD SLOAD SWAP1 POP PUSH2 0x395 JUMP JUMPDEST DUP1 SWAP2 POP POP SWAP1 JUMP JUMPDEST PUSH1 0x3 SLOAD DUP2 JUMP JUMPDEST PUSH1 0x0 CALLER PUSH20 0xFFFFFFFFFFFFFFFFFFFFFFFFFFFFFFFFFFFFFFFF AND PUSH1 0x4 PUSH1 0x0 SWAP1 SLOAD SWAP1 PUSH2 0x100 EXP SWAP1 DIV PUSH20 0xFFFFFFFFFFFFFFFFFFFFFFFFFFFFFFFFFFFFFFFF AND PUSH20 0xFFFFFFFFFFFFFFFFFFFFFFFFFFFFFFFFFFFFFFFF AND SUB PUSH2 0x44A JUMPI CALLVALUE PUSH1 0x5 SLOAD PUSH2 0x443 SWAP2 SWAP1 PUSH2 0x107D JUMP JUMPDEST SWAP1 POP PUSH2 0x498 JUMP JUMPDEST PUSH1 0x7 PUSH1 0x0 CALLER PUSH20 0xFFFFFFFFFFFFFFFFFFFFFFFFFFFFFFFFFFFFFFFF AND PUSH20 0xFFFFFFFFFFFFFFFFFFFFFFFFFFFFFFFFFFFFFFFF AND DUP2 MSTORE PUSH1 0x20 ADD SWAP1 DUP2 MSTORE PUSH1 0x20 ADD PUSH1 0x0 KECCAK256 SLOAD CALLVALUE PUSH2 0x495 SWAP2 SWAP1 PUSH2 0x107D JUMP JUMPDEST SWAP1 POP JUMPDEST PUSH1 0x1 SLOAD TIMESTAMP GT ISZERO PUSH2 0x4D4 JUMPI PUSH1 0x40 MLOAD PUSH32 0xD02E774D00000000000000000000000000000000000000000000000000000000 DUP2 MSTORE PUSH1 0x4 ADD PUSH1 0x40 MLOAD DUP1 SWAP2 SUB SWAP1 REVERT JUMPDEST PUSH1 0x5 SLOAD DUP2 GT PUSH2 0x51C JUMPI PUSH1 0x5 SLOAD PUSH1 0x40 MLOAD PUSH32 0x4E12C1BB00000000000000000000000000000000000000000000000000000000 DUP2 MSTORE PUSH1 0x4 ADD PUSH2 0x513 SWAP2 SWAP1 PUSH2 0xF63 JUMP JUMPDEST PUSH1 0x40 MLOAD DUP1 SWAP2 SUB SWAP1 REVERT JUMPDEST PUSH1 0x2 SLOAD DUP2 LT ISZERO PUSH2 0x558 JUMPI PUSH1 0x40 MLOAD PUSH32 0x6F1465EA00000000000000000000000000000000000000000000000000000000 DUP2 MSTORE PUSH1 0x4 ADD PUSH1 0x40 MLOAD DUP1 SWAP2 SUB SWAP1 REVERT JUMPDEST PUSH1 0x3 SLOAD DUP2 GT ISZERO PUSH2 0x594 JUMPI PUSH1 0x40 MLOAD PUSH32 0xAA43D3F300000000000000000000000000000000000000000000000000000000 DUP2 MSTORE PUSH1 0x4 ADD PUSH1 0x40 MLOAD DUP1 SWAP2 SUB SWAP1 REVERT JUMPDEST PUSH1 0x0 PUSH1 0x5 SLOAD SUB PUSH2 0x5E0 JUMPI CALLER PUSH1 0x6 PUSH1 0x0 PUSH2 0x100 EXP DUP2 SLOAD DUP2 PUSH20 0xFFFFFFFFFFFFFFFFFFFFFFFFFFFFFFFFFFFFFFFF MUL NOT AND SWAP1 DUP4 PUSH20 0xFFFFFFFFFFFFFFFFFFFFFFFFFFFFFFFFFFFFFFFF AND MUL OR SWAP1 SSTORE POP JUMPDEST PUSH1 0x0 PUSH1 0x5 SLOAD EQ PUSH2 0x665 JUMPI PUSH1 0x5 SLOAD PUSH1 0x7 PUSH1 0x0 PUSH1 0x4 PUSH1 0x0 SWAP1 SLOAD SWAP1 PUSH2 0x100 EXP SWAP1 DIV PUSH20 0xFFFFFFFFFFFFFFFFFFFFFFFFFFFFFFFFFFFFFFFF AND PUSH20 0xFFFFFFFFFFFFFFFFFFFFFFFFFFFFFFFFFFFFFFFF AND PUSH20 0xFFFFFFFFFFFFFFFFFFFFFFFFFFFFFFFFFFFFFFFF AND DUP2 MSTORE PUSH1 0x20 ADD SWAP1 DUP2 MSTORE PUSH1 0x20 ADD PUSH1 0x0 KECCAK256 PUSH1 0x0 DUP3 DUP3 SLOAD PUSH2 0x65D SWAP2 SWAP1 PUSH2 0x107D JUMP JUMPDEST SWAP3 POP POP DUP2 SWAP1 SSTORE POP JUMPDEST PUSH1 0x0 PUSH1 0x40 MLOAD DUP1 PUSH1 0x40 ADD PUSH1 0x40 MSTORE DUP1 CALLER PUSH20 0xFFFFFFFFFFFFFFFFFFFFFFFFFFFFFFFFFFFFFFFF AND DUP2 MSTORE PUSH1 0x20 ADD CALLVALUE CALLER TIMESTAMP PUSH1 0x40 MLOAD PUSH1 0x20 ADD PUSH2 0x6A3 SWAP4 SWAP3 SWAP2 SWAP1 PUSH2 0x111A JUMP JUMPDEST PUSH1 0x40 MLOAD PUSH1 0x20 DUP2 DUP4 SUB SUB DUP2 MSTORE SWAP1 PUSH1 0x40 MSTORE DUP1 MLOAD SWAP1 PUSH1 0x20 ADD KECCAK256 PUSH1 0x0 SHR DUP2 MSTORE POP SWAP1 POP DUP1 PUSH1 0x9 PUSH1 0x0 PUSH2 0x6CE PUSH2 0x378 JUMP JUMPDEST DUP2 MSTORE PUSH1 0x20 ADD SWAP1 DUP2 MSTORE PUSH1 0x20 ADD PUSH1 0x0 KECCAK256 PUSH1 0x0 DUP3 ADD MLOAD DUP2 PUSH1 0x0 ADD PUSH1 0x0 PUSH2 0x100 EXP DUP2 SLOAD DUP2 PUSH20 0xFFFFFFFFFFFFFFFFFFFFFFFFFFFFFFFFFFFFFFFF MUL NOT AND SWAP1 DUP4 PUSH20 0xFFFFFFFFFFFFFFFFFFFFFFFFFFFFFFFFFFFFFFFF AND MUL OR SWAP1 SSTORE POP PUSH1 0x20 DUP3 ADD MLOAD DUP2 PUSH1 0x1 ADD SSTORE SWAP1 POP POP CALLER PUSH1 0x4 PUSH1 0x0 PUSH2 0x100 EXP DUP2 SLOAD DUP2 PUSH20 0xFFFFFFFFFFFFFFFFFFFFFFFFFFFFFFFFFFFFFFFF MUL NOT AND SWAP1 DUP4 PUSH20 0xFFFFFFFFFFFFFFFFFFFFFFFFFFFFFFFFFFFFFFFF AND MUL OR SWAP1 SSTORE POP CALLVALUE PUSH1 0x7 PUSH1 0x0 PUSH1 0x4 PUSH1 0x0 SWAP1 SLOAD SWAP1 PUSH2 0x100 EXP SWAP1 DIV PUSH20 0xFFFFFFFFFFFFFFFFFFFFFFFFFFFFFFFFFFFFFFFF AND PUSH20 0xFFFFFFFFFFFFFFFFFFFFFFFFFFFFFFFFFFFFFFFF AND PUSH20 0xFFFFFFFFFFFFFFFFFFFFFFFFFFFFFFFFFFFFFFFF AND DUP2 MSTORE PUSH1 0x20 ADD SWAP1 DUP2 MSTORE PUSH1 0x20 ADD PUSH1 0x0 KECCAK256 SLOAD PUSH2 0x7DE SWAP2 SWAP1 PUSH2 0x107D JUMP JUMPDEST PUSH1 0x5 DUP2 SWAP1 SSTORE POP PUSH1 0x0 PUSH1 0x7 PUSH1 0x0 PUSH1 0x4 PUSH1 0x0 SWAP1 SLOAD SWAP1 PUSH2 0x100 EXP SWAP1 DIV PUSH20 0xFFFFFFFFFFFFFFFFFFFFFFFFFFFFFFFFFFFFFFFF AND PUSH20 0xFFFFFFFFFFFFFFFFFFFFFFFFFFFFFFFFFFFFFFFF AND PUSH20 0xFFFFFFFFFFFFFFFFFFFFFFFFFFFFFFFFFFFFFFFF AND DUP2 MSTORE PUSH1 0x20 ADD SWAP1 DUP2 MSTORE PUSH1 0x20 ADD PUSH1 0x0 KECCAK256 DUP2 SWAP1 SSTORE POP PUSH32 0xF4757A49B326036464BEC6FE419A4AE38C8A02CE3E68BF0809674F6AAB8AD300 CALLER CALLVALUE PUSH1 0x40 MLOAD PUSH2 0x87C SWAP3 SWAP2 SWAP1 PUSH2 0x1157 JUMP JUMPDEST PUSH1 0x40 MLOAD DUP1 SWAP2 SUB SWAP1 LOG1 POP POP JUMP JUMPDEST PUSH1 0x1 SLOAD TIMESTAMP LT ISZERO PUSH2 0x8C4 JUMPI PUSH1 0x40 MLOAD PUSH32 0x44CEE29000000000000000000000000000000000000000000000000000000000 DUP2 MSTORE PUSH1 0x4 ADD PUSH1 0x40 MLOAD DUP1 SWAP2 SUB SWAP1 REVERT JUMPDEST PUSH1 0xA PUSH1 0x0 SWAP1 SLOAD SWAP1 PUSH2 0x100 EXP SWAP1 DIV PUSH1 0xFF AND ISZERO PUSH2 0x90B JUMPI PUSH1 0x40 MLOAD PUSH32 0x61CFDCF800000000000000000000000000000000000000000000000000000000 DUP2 MSTORE PUSH1 0x4 ADD PUSH1 0x40 MLOAD DUP1 SWAP2 SUB SWAP1 REVERT JUMPDEST PUSH1 0x1 PUSH1 0xA PUSH1 0x0 PUSH2 0x100 EXP DUP2 SLOAD DUP2 PUSH1 0xFF MUL NOT AND SWAP1 DUP4 ISZERO ISZERO MUL OR SWAP1 SSTORE POP PUSH32 0xDAEC4582D5D9595688C8C98545FDD1C696D41C6AEAEB636737E84ED2F5C00EDA PUSH1 0x4 PUSH1 0x0 SWAP1 SLOAD SWAP1 PUSH2 0x100 EXP SWAP1 DIV PUSH20 0xFFFFFFFFFFFFFFFFFFFFFFFFFFFFFFFFFFFFFFFF AND PUSH1 0x5 SLOAD PUSH1 0x40 MLOAD PUSH2 0x97B SWAP3 SWAP2 SWAP1 PUSH2 0x1157 JUMP JUMPDEST PUSH1 0x40 MLOAD DUP1 SWAP2 SUB SWAP1 LOG1 PUSH1 0x0 DUP1 SLOAD SWAP1 PUSH2 0x100 EXP SWAP1 DIV PUSH20 0xFFFFFFFFFFFFFFFFFFFFFFFFFFFFFFFFFFFFFFFF AND PUSH20 0xFFFFFFFFFFFFFFFFFFFFFFFFFFFFFFFFFFFFFFFF AND PUSH2 0x8FC PUSH1 0x5 SLOAD SWAP1 DUP2 ISZERO MUL SWAP1 PUSH1 0x40 MLOAD PUSH1 0x0 PUSH1 0x40 MLOAD DUP1 DUP4 SUB DUP2 DUP6 DUP9 DUP9 CALL SWAP4 POP POP POP POP ISZERO DUP1 ISZERO PUSH2 0x9EB JUMPI RETURNDATASIZE PUSH1 0x0 DUP1 RETURNDATACOPY RETURNDATASIZE PUSH1 0x0 REVERT JUMPDEST POP JUMP JUMPDEST PUSH1 0x0 DUP1 SLOAD SWAP1 PUSH2 0x100 EXP SWAP1 DIV PUSH20 0xFFFFFFFFFFFFFFFFFFFFFFFFFFFFFFFFFFFFFFFF AND DUP2 JUMP JUMPDEST PUSH1 0x0 DUP1 PUSH1 0x7 PUSH1 0x0 CALLER PUSH20 0xFFFFFFFFFFFFFFFFFFFFFFFFFFFFFFFFFFFFFFFF AND PUSH20 0xFFFFFFFFFFFFFFFFFFFFFFFFFFFFFFFFFFFFFFFF AND DUP2 MSTORE PUSH1 0x20 ADD SWAP1 DUP2 MSTORE PUSH1 0x20 ADD PUSH1 0x0 KECCAK256 SLOAD SWAP1 POP PUSH1 0x0 DUP2 GT ISZERO PUSH2 0xB2D JUMPI PUSH1 0x0 PUSH1 0x7 PUSH1 0x0 CALLER PUSH20 0xFFFFFFFFFFFFFFFFFFFFFFFFFFFFFFFFFFFFFFFF AND PUSH20 0xFFFFFFFFFFFFFFFFFFFFFFFFFFFFFFFFFFFFFFFF AND DUP2 MSTORE PUSH1 0x20 ADD SWAP1 DUP2 MSTORE PUSH1 0x20 ADD PUSH1 0x0 KECCAK256 DUP2 SWAP1 SSTORE POP CALLER PUSH20 0xFFFFFFFFFFFFFFFFFFFFFFFFFFFFFFFFFFFFFFFF AND PUSH2 0x8FC DUP3 SWAP1 DUP2 ISZERO MUL SWAP1 PUSH1 0x40 MLOAD PUSH1 0x0 PUSH1 0x40 MLOAD DUP1 DUP4 SUB DUP2 DUP6 DUP9 DUP9 CALL SWAP4 POP POP POP POP PUSH2 0xB2C JUMPI DUP1 PUSH1 0x7 PUSH1 0x0 CALLER PUSH20 0xFFFFFFFFFFFFFFFFFFFFFFFFFFFFFFFFFFFFFFFF AND PUSH20 0xFFFFFFFFFFFFFFFFFFFFFFFFFFFFFFFFFFFFFFFF AND DUP2 MSTORE PUSH1 0x20 ADD SWAP1 DUP2 MSTORE PUSH1 0x20 ADD PUSH1 0x0 KECCAK256 DUP2 SWAP1 SSTORE POP PUSH1 0x0 SWAP2 POP POP PUSH2 0xB33 JUMP JUMPDEST JUMPDEST PUSH1 0x1 SWAP2 POP POP JUMPDEST SWAP1 JUMP JUMPDEST PUSH1 0x0 DUP1 DUP3 PUSH20 0xFFFFFFFFFFFFFFFFFFFFFFFFFFFFFFFFFFFFFFFF AND PUSH1 0x4 PUSH1 0x0 SWAP1 SLOAD SWAP1 PUSH2 0x100 EXP SWAP1 DIV PUSH20 0xFFFFFFFFFFFFFFFFFFFFFFFFFFFFFFFFFFFFFFFF AND PUSH20 0xFFFFFFFFFFFFFFFFFFFFFFFFFFFFFFFFFFFFFFFF AND SUB PUSH2 0xB98 JUMPI PUSH1 0x5 SLOAD SWAP1 POP PUSH2 0xBDB JUMP JUMPDEST PUSH1 0x7 PUSH1 0x0 DUP5 PUSH20 0xFFFFFFFFFFFFFFFFFFFFFFFFFFFFFFFFFFFFFFFF AND PUSH20 0xFFFFFFFFFFFFFFFFFFFFFFFFFFFFFFFFFFFFFFFF AND DUP2 MSTORE PUSH1 0x20 ADD SWAP1 DUP2 MSTORE PUSH1 0x20 ADD PUSH1 0x0 KECCAK256 SLOAD SWAP1 POP JUMPDEST DUP1 SWAP2 POP POP SWAP2 SWAP1 POP JUMP JUMPDEST PUSH1 0x0 PUSH1 0x5 SLOAD SWAP1 POP SWAP1 JUMP JUMPDEST PUSH1 0x1 SLOAD DUP2 JUMP JUMPDEST PUSH1 0x0 DUP1 PUSH1 0x9 PUSH1 0x0 DUP1 DUP2 MSTORE PUSH1 0x20 ADD SWAP1 DUP2 MSTORE PUSH1 0x20 ADD PUSH1 0x0 KECCAK256 PUSH1 0x1 ADD SLOAD SWAP1 POP JUMPDEST PUSH1 0x0 PUSH20 0xFFFFFFFFFFFFFFFFFFFFFFFFFFFFFFFFFFFFFFFF AND PUSH1 0x9 PUSH1 0x0 DUP4 DUP2 MSTORE PUSH1 0x20 ADD SWAP1 DUP2 MSTORE PUSH1 0x20 ADD PUSH1 0x0 KECCAK256 PUSH1 0x0 ADD PUSH1 0x0 SWAP1 SLOAD SWAP1 PUSH2 0x100 EXP SWAP1 DIV PUSH20 0xFFFFFFFFFFFFFFFFFFFFFFFFFFFFFFFFFFFFFFFF AND PUSH20 0xFFFFFFFFFFFFFFFFFFFFFFFFFFFFFFFFFFFFFFFF AND EQ PUSH2 0xE8D JUMPI PUSH1 0x0 PUSH1 0x7 PUSH1 0x0 PUSH1 0x9 PUSH1 0x0 DUP6 DUP2 MSTORE PUSH1 0x20 ADD SWAP1 DUP2 MSTORE PUSH1 0x20 ADD PUSH1 0x0 KECCAK256 PUSH1 0x0 ADD PUSH1 0x0 SWAP1 SLOAD SWAP1 PUSH2 0x100 EXP SWAP1 DIV PUSH20 0xFFFFFFFFFFFFFFFFFFFFFFFFFFFFFFFFFFFFFFFF AND PUSH20 0xFFFFFFFFFFFFFFFFFFFFFFFFFFFFFFFFFFFFFFFF AND PUSH20 0xFFFFFFFFFFFFFFFFFFFFFFFFFFFFFFFFFFFFFFFF AND DUP2 MSTORE PUSH1 0x20 ADD SWAP1 DUP2 MSTORE PUSH1 0x20 ADD PUSH1 0x0 KECCAK256 SLOAD SWAP1 POP PUSH1 0x0 DUP2 GT ISZERO PUSH2 0xE6E JUMPI PUSH1 0x0 PUSH1 0x7 PUSH1 0x0 PUSH1 0x9 PUSH1 0x0 DUP7 DUP2 MSTORE PUSH1 0x20 ADD SWAP1 DUP2 MSTORE PUSH1 0x20 ADD PUSH1 0x0 KECCAK256 PUSH1 0x0 ADD PUSH1 0x0 SWAP1 SLOAD SWAP1 PUSH2 0x100 EXP SWAP1 DIV PUSH20 0xFFFFFFFFFFFFFFFFFFFFFFFFFFFFFFFFFFFFFFFF AND PUSH20 0xFFFFFFFFFFFFFFFFFFFFFFFFFFFFFFFFFFFFFFFF AND PUSH20 0xFFFFFFFFFFFFFFFFFFFFFFFFFFFFFFFFFFFFFFFF AND DUP2 MSTORE PUSH1 0x20 ADD SWAP1 DUP2 MSTORE PUSH1 0x20 ADD PUSH1 0x0 KECCAK256 DUP2 SWAP1 SSTORE POP PUSH1 0x9 PUSH1 0x0 DUP4 DUP2 MSTORE PUSH1 0x20 ADD SWAP1 DUP2 MSTORE PUSH1 0x20 ADD PUSH1 0x0 KECCAK256 PUSH1 0x0 ADD PUSH1 0x0 SWAP1 SLOAD SWAP1 PUSH2 0x100 EXP SWAP1 DIV PUSH20 0xFFFFFFFFFFFFFFFFFFFFFFFFFFFFFFFFFFFFFFFF AND PUSH20 0xFFFFFFFFFFFFFFFFFFFFFFFFFFFFFFFFFFFFFFFF AND PUSH2 0x8FC DUP3 SWAP1 DUP2 ISZERO MUL SWAP1 PUSH1 0x40 MLOAD PUSH1 0x0 PUSH1 0x40 MLOAD DUP1 DUP4 SUB DUP2 DUP6 DUP9 DUP9 CALL SWAP4 POP POP POP POP PUSH2 0xE6D JUMPI DUP1 PUSH1 0x7 PUSH1 0x0 PUSH1 0x9 PUSH1 0x0 DUP7 DUP2 MSTORE PUSH1 0x20 ADD SWAP1 DUP2 MSTORE PUSH1 0x20 ADD PUSH1 0x0 KECCAK256 PUSH1 0x0 ADD PUSH1 0x0 SWAP1 SLOAD SWAP1 PUSH2 0x100 EXP SWAP1 DIV PUSH20 0xFFFFFFFFFFFFFFFFFFFFFFFFFFFFFFFFFFFFFFFF AND PUSH20 0xFFFFFFFFFFFFFFFFFFFFFFFFFFFFFFFFFFFFFFFF AND PUSH20 0xFFFFFFFFFFFFFFFFFFFFFFFFFFFFFFFFFFFFFFFF AND DUP2 MSTORE PUSH1 0x20 ADD SWAP1 DUP2 MSTORE PUSH1 0x20 ADD PUSH1 0x0 KECCAK256 DUP2 SWAP1 SSTORE POP PUSH1 0x0 SWAP3 POP POP POP PUSH2 0xE93 JUMP JUMPDEST JUMPDEST PUSH1 0x9 PUSH1 0x0 DUP4 DUP2 MSTORE PUSH1 0x20 ADD SWAP1 DUP2 MSTORE PUSH1 0x20 ADD PUSH1 0x0 KECCAK256 PUSH1 0x1 ADD SLOAD SWAP2 POP POP PUSH2 0xC11 JUMP JUMPDEST PUSH1 0x1 SWAP2 POP POP JUMPDEST SWAP1 JUMP JUMPDEST PUSH1 0x4 PUSH1 0x0 SWAP1 SLOAD SWAP1 PUSH2 0x100 EXP SWAP1 DIV PUSH20 0xFFFFFFFFFFFFFFFFFFFFFFFFFFFFFFFFFFFFFFFF AND DUP2 JUMP JUMPDEST PUSH1 0x6 PUSH1 0x0 SWAP1 SLOAD SWAP1 PUSH2 0x100 EXP SWAP1 DIV PUSH20 0xFFFFFFFFFFFFFFFFFFFFFFFFFFFFFFFFFFFFFFFF AND DUP2 JUMP JUMPDEST PUSH1 0x2 SLOAD DUP2 JUMP JUMPDEST PUSH1 0x5 SLOAD DUP2 JUMP JUMPDEST PUSH1 0x0 PUSH20 0xFFFFFFFFFFFFFFFFFFFFFFFFFFFFFFFFFFFFFFFF DUP3 AND SWAP1 POP SWAP2 SWAP1 POP JUMP JUMPDEST PUSH1 0x0 PUSH2 0xF19 DUP3 PUSH2 0xEEE JUMP JUMPDEST SWAP1 POP SWAP2 SWAP1 POP JUMP JUMPDEST PUSH2 0xF29 DUP2 PUSH2 0xF0E JUMP JUMPDEST DUP3 MSTORE POP POP JUMP JUMPDEST PUSH1 0x0 PUSH1 0x20 DUP3 ADD SWAP1 POP PUSH2 0xF44 PUSH1 0x0 DUP4 ADD DUP5 PUSH2 0xF20 JUMP JUMPDEST SWAP3 SWAP2 POP POP JUMP JUMPDEST PUSH1 0x0 DUP2 SWAP1 POP SWAP2 SWAP1 POP JUMP JUMPDEST PUSH2 0xF5D DUP2 PUSH2 0xF4A JUMP JUMPDEST DUP3 MSTORE POP POP JUMP JUMPDEST PUSH1 0x0 PUSH1 0x20 DUP3 ADD SWAP1 POP PUSH2 0xF78 PUSH1 0x0 DUP4 ADD DUP5 PUSH2 0xF54 JUMP JUMPDEST SWAP3 SWAP2 POP POP JUMP JUMPDEST PUSH1 0x0 PUSH2 0xF89 DUP3 PUSH2 0xEEE JUMP JUMPDEST SWAP1 POP SWAP2 SWAP1 POP JUMP JUMPDEST PUSH2 0xF99 DUP2 PUSH2 0xF7E JUMP JUMPDEST DUP3 MSTORE POP POP JUMP JUMPDEST PUSH1 0x0 PUSH1 0x20 DUP3 ADD SWAP1 POP PUSH2 0xFB4 PUSH1 0x0 DUP4 ADD DUP5 PUSH2 0xF90 JUMP JUMPDEST SWAP3 SWAP2 POP POP JUMP JUMPDEST PUSH1 0x0 DUP2 ISZERO ISZERO SWAP1 POP SWAP2 SWAP1 POP JUMP JUMPDEST PUSH2 0xFCF DUP2 PUSH2 0xFBA JUMP JUMPDEST DUP3 MSTORE POP POP JUMP JUMPDEST PUSH1 0x0 PUSH1 0x20 DUP3 ADD SWAP1 POP PUSH2 0xFEA PUSH1 0x0 DUP4 ADD DUP5 PUSH2 0xFC6 JUMP JUMPDEST SWAP3 SWAP2 POP POP JUMP JUMPDEST PUSH1 0x0 DUP1 REVERT JUMPDEST PUSH2 0xFFE DUP2 PUSH2 0xF0E JUMP JUMPDEST DUP2 EQ PUSH2 0x1009 JUMPI PUSH1 0x0 DUP1 REVERT JUMPDEST POP JUMP JUMPDEST PUSH1 0x0 DUP2 CALLDATALOAD SWAP1 POP PUSH2 0x101B DUP2 PUSH2 0xFF5 JUMP JUMPDEST SWAP3 SWAP2 POP POP JUMP JUMPDEST PUSH1 0x0 PUSH1 0x20 DUP3 DUP5 SUB SLT ISZERO PUSH2 0x1037 JUMPI PUSH2 0x1036 PUSH2 0xFF0 JUMP JUMPDEST JUMPDEST PUSH1 0x0 PUSH2 0x1045 DUP5 DUP3 DUP6 ADD PUSH2 0x100C JUMP JUMPDEST SWAP2 POP POP SWAP3 SWAP2 POP POP JUMP JUMPDEST PUSH32 0x4E487B7100000000000000000000000000000000000000000000000000000000 PUSH1 0x0 MSTORE PUSH1 0x11 PUSH1 0x4 MSTORE PUSH1 0x24 PUSH1 0x0 REVERT JUMPDEST PUSH1 0x0 PUSH2 0x1088 DUP3 PUSH2 0xF4A JUMP JUMPDEST SWAP2 POP PUSH2 0x1093 DUP4 PUSH2 0xF4A JUMP JUMPDEST SWAP3 POP DUP3 DUP3 ADD SWAP1 POP DUP1 DUP3 GT ISZERO PUSH2 0x10AB JUMPI PUSH2 0x10AA PUSH2 0x104E JUMP JUMPDEST JUMPDEST SWAP3 SWAP2 POP POP JUMP JUMPDEST PUSH1 0x0 DUP2 SWAP1 POP SWAP2 SWAP1 POP JUMP JUMPDEST PUSH2 0x10CC PUSH2 0x10C7 DUP3 PUSH2 0xF4A JUMP JUMPDEST PUSH2 0x10B1 JUMP JUMPDEST DUP3 MSTORE POP POP JUMP JUMPDEST PUSH1 0x0 DUP2 PUSH1 0x60 SHL SWAP1 POP SWAP2 SWAP1 POP JUMP JUMPDEST PUSH1 0x0 PUSH2 0x10EA DUP3 PUSH2 0x10D2 JUMP JUMPDEST SWAP1 POP SWAP2 SWAP1 POP JUMP JUMPDEST PUSH1 0x0 PUSH2 0x10FC DUP3 PUSH2 0x10DF JUMP JUMPDEST SWAP1 POP SWAP2 SWAP1 POP JUMP JUMPDEST PUSH2 0x1114 PUSH2 0x110F DUP3 PUSH2 0xF0E JUMP JUMPDEST PUSH2 0x10F1 JUMP JUMPDEST DUP3 MSTORE POP POP JUMP JUMPDEST PUSH1 0x0 PUSH2 0x1126 DUP3 DUP7 PUSH2 0x10BB JUMP JUMPDEST PUSH1 0x20 DUP3 ADD SWAP2 POP PUSH2 0x1136 DUP3 DUP6 PUSH2 0x1103 JUMP JUMPDEST PUSH1 0x14 DUP3 ADD SWAP2 POP PUSH2 0x1146 DUP3 DUP5 PUSH2 0x10BB JUMP JUMPDEST PUSH1 0x20 DUP3 ADD SWAP2 POP DUP2 SWAP1 POP SWAP5 SWAP4 POP POP POP POP JUMP JUMPDEST PUSH1 0x0 PUSH1 0x40 DUP3 ADD SWAP1 POP PUSH2 0x116C PUSH1 0x0 DUP4 ADD DUP6 PUSH2 0xF20 JUMP JUMPDEST PUSH2 0x1179 PUSH1 0x20 DUP4 ADD DUP5 PUSH2 0xF54 JUMP JUMPDEST SWAP4 SWAP3 POP POP POP JUMP INVALID LOG2 PUSH5 0x6970667358 0x22 SLT KECCAK256 0xD5 NUMBER 0xDF PUSH4 0x1B60D232 0x2F 0x28 0xE1 ORIGIN 0xC 0xEC 0xBB PUSH14 0x16C708ED129F63A2CF414F0F5A4B REVERT SWAP16 PUSH5 0x736F6C6343 STOP ADDMOD SGT STOP CALLER "
				},
				"gasEstimates": {
					"creation": {
						"codeDepositCost": "906800",
						"executionCost": "infinite",
						"totalCost": "infinite"
					},
					"external": {
						"auctionEnd()": "infinite",
						"auctionEndTime()": "2496",
						"beneficiary()": "2578",
						"bid()": "infinite",
						"findLastNode()": "infinite",
						"firstBidder()": "2558",
						"getCurrrentBid(address)": "5049",
						"getHighestBid()": "2482",
						"getHighestBidder()": "2546",
						"highestBid()": "2517",
						"highestBidder()": "2536",
						"highestPrice()": "2497",
						"lowestPrice()": "2495",
						"withdraw()": "infinite",
						"withdrawAll()": "infinite"
					}
				},
				"methodIdentifiers": {
					"auctionEnd()": "2a24f46c",
					"auctionEndTime()": "4b449cba",
					"beneficiary()": "38af3eed",
					"bid()": "1998aeef",
					"findLastNode()": "070d350c",
					"firstBidder()": "bdb39373",
					"getCurrrentBid(address)": "3d087c2c",
					"getHighestBid()": "4979440a",
					"getHighestBidder()": "003495a4",
					"highestBid()": "d57bde79",
					"highestBidder()": "91f90157",
					"highestPrice()": "0e8670e0",
					"lowestPrice()": "be29b056",
					"withdraw()": "3ccfd60b",
					"withdrawAll()": "853828b6"
				}
			},
			"storageLayout": {
				"storage": [
					{
						"astId": 3,
						"contract": "Auction.sol:Auction",
						"label": "beneficiary",
						"offset": 0,
						"slot": "0",
						"type": "t_address_payable"
					},
					{
						"astId": 5,
						"contract": "Auction.sol:Auction",
						"label": "auctionEndTime",
						"offset": 0,
						"slot": "1",
						"type": "t_uint256"
					},
					{
						"astId": 7,
						"contract": "Auction.sol:Auction",
						"label": "lowestPrice",
						"offset": 0,
						"slot": "2",
						"type": "t_uint256"
					},
					{
						"astId": 9,
						"contract": "Auction.sol:Auction",
						"label": "highestPrice",
						"offset": 0,
						"slot": "3",
						"type": "t_uint256"
					},
					{
						"astId": 11,
						"contract": "Auction.sol:Auction",
						"label": "highestBidder",
						"offset": 0,
						"slot": "4",
						"type": "t_address"
					},
					{
						"astId": 13,
						"contract": "Auction.sol:Auction",
						"label": "highestBid",
						"offset": 0,
						"slot": "5",
						"type": "t_uint256"
					},
					{
						"astId": 15,
						"contract": "Auction.sol:Auction",
						"label": "firstBidder",
						"offset": 0,
						"slot": "6",
						"type": "t_address"
					},
					{
						"astId": 24,
						"contract": "Auction.sol:Auction",
						"label": "pendingReturns",
						"offset": 0,
						"slot": "7",
						"type": "t_mapping(t_address,t_uint256)"
					},
					{
						"astId": 28,
						"contract": "Auction.sol:Auction",
						"label": "addressMap",
						"offset": 0,
						"slot": "8",
						"type": "t_mapping(t_uint256,t_address)"
					},
					{
						"astId": 33,
						"contract": "Auction.sol:Auction",
						"label": "bidMap",
						"offset": 0,
						"slot": "9",
						"type": "t_mapping(t_uint256,t_struct(BidLog)20_storage)"
					},
					{
						"astId": 35,
						"contract": "Auction.sol:Auction",
						"label": "ended",
						"offset": 0,
						"slot": "10",
						"type": "t_bool"
					}
				],
				"types": {
					"t_address": {
						"encoding": "inplace",
						"label": "address",
						"numberOfBytes": "20"
					},
					"t_address_payable": {
						"encoding": "inplace",
						"label": "address payable",
						"numberOfBytes": "20"
					},
					"t_bool": {
						"encoding": "inplace",
						"label": "bool",
						"numberOfBytes": "1"
					},
					"t_mapping(t_address,t_uint256)": {
						"encoding": "mapping",
						"key": "t_address",
						"label": "mapping(address => uint256)",
						"numberOfBytes": "32",
						"value": "t_uint256"
					},
					"t_mapping(t_uint256,t_address)": {
						"encoding": "mapping",
						"key": "t_uint256",
						"label": "mapping(uint256 => address)",
						"numberOfBytes": "32",
						"value": "t_address"
					},
					"t_mapping(t_uint256,t_struct(BidLog)20_storage)": {
						"encoding": "mapping",
						"key": "t_uint256",
						"label": "mapping(uint256 => struct Auction.BidLog)",
						"numberOfBytes": "32",
						"value": "t_struct(BidLog)20_storage"
					},
					"t_struct(BidLog)20_storage": {
						"encoding": "inplace",
						"label": "struct Auction.BidLog",
						"members": [
							{
								"astId": 17,
								"contract": "Auction.sol:Auction",
								"label": "bidderAddress",
								"offset": 0,
								"slot": "0",
								"type": "t_address"
							},
							{
								"astId": 19,
								"contract": "Auction.sol:Auction",
								"label": "next",
								"offset": 0,
								"slot": "1",
								"type": "t_uint256"
							}
						],
						"numberOfBytes": "64"
					},
					"t_uint256": {
						"encoding": "inplace",
						"label": "uint256",
						"numberOfBytes": "32"
					}
				}
			},
			"userdoc": {
				"kind": "user",
				"methods": {
					"withdraw()": {
						"notice": "Withdraw a bid that was overbid."
					},
					"withdrawAll()": {
						"notice": "Withdraw a bid that was overbid."
					}
				},
				"version": 1
			}
		}
	}
}