{
	"SimpleAuction.sol": {
		"SimpleAuction": {
			"abi": [
				{
					"inputs": [
						{
							"internalType": "uint256",
							"name": "biddingTime",
							"type": "uint256"
						},
						{
							"internalType": "address payable",
							"name": "beneficiaryAddress",
							"type": "address"
						},
						{
							"internalType": "uint256",
							"name": "lowPrice",
							"type": "uint256"
						},
						{
							"internalType": "uint256",
							"name": "highPrice",
							"type": "uint256"
						}
					],
					"stateMutability": "nonpayable",
					"type": "constructor"
				},
				{
					"inputs": [],
					"name": "AuctionAlreadyEnded",
					"type": "error"
				},
				{
					"inputs": [],
					"name": "AuctionEndAlreadyCalled",
					"type": "error"
				},
				{
					"inputs": [],
					"name": "AuctionNotYetEnded",
					"type": "error"
				},
				{
					"inputs": [],
					"name": "BidHigherThanHighestPrice",
					"type": "error"
				},
				{
					"inputs": [],
					"name": "BidLowerThanLowestPrice",
					"type": "error"
				},
				{
					"inputs": [
						{
							"internalType": "uint256",
							"name": "highestBid",
							"type": "uint256"
						}
					],
					"name": "BidNotHighEnough",
					"type": "error"
				},
				{
					"anonymous": false,
					"inputs": [
						{
							"indexed": false,
							"internalType": "address",
							"name": "winner",
							"type": "address"
						},
						{
							"indexed": false,
							"internalType": "uint256",
							"name": "amount",
							"type": "uint256"
						}
					],
					"name": "AuctionEnded",
					"type": "event"
				},
				{
					"anonymous": false,
					"inputs": [
						{
							"indexed": false,
							"internalType": "address",
							"name": "bidder",
							"type": "address"
						},
						{
							"indexed": false,
							"internalType": "uint256",
							"name": "amount",
							"type": "uint256"
						}
					],
					"name": "HighestBidIncreased",
					"type": "event"
				},
				{
					"inputs": [],
					"name": "auctionEnd",
					"outputs": [],
					"stateMutability": "nonpayable",
					"type": "function"
				},
				{
					"inputs": [],
					"name": "auctionEndTime",
					"outputs": [
						{
							"internalType": "uint256",
							"name": "",
							"type": "uint256"
						}
					],
					"stateMutability": "view",
					"type": "function"
				},
				{
					"inputs": [],
					"name": "beneficiary",
					"outputs": [
						{
							"internalType": "address payable",
							"name": "",
							"type": "address"
						}
					],
					"stateMutability": "view",
					"type": "function"
				},
				{
					"inputs": [],
					"name": "bid",
					"outputs": [],
					"stateMutability": "payable",
					"type": "function"
				},
				{
					"inputs": [
						{
							"internalType": "address",
							"name": "bidderAddress",
							"type": "address"
						}
					],
					"name": "getCurrrentBid",
					"outputs": [
						{
							"internalType": "uint256",
							"name": "",
							"type": "uint256"
						}
					],
					"stateMutability": "nonpayable",
					"type": "function"
				},
				{
					"inputs": [],
					"name": "highestBid",
					"outputs": [
						{
							"internalType": "uint256",
							"name": "",
							"type": "uint256"
						}
					],
					"stateMutability": "view",
					"type": "function"
				},
				{
					"inputs": [],
					"name": "highestBidder",
					"outputs": [
						{
							"internalType": "address",
							"name": "",
							"type": "address"
						}
					],
					"stateMutability": "view",
					"type": "function"
				},
				{
					"inputs": [],
					"name": "highestPrice",
					"outputs": [
						{
							"internalType": "uint256",
							"name": "",
							"type": "uint256"
						}
					],
					"stateMutability": "view",
					"type": "function"
				},
				{
					"inputs": [],
					"name": "lowestPrice",
					"outputs": [
						{
							"internalType": "uint256",
							"name": "",
							"type": "uint256"
						}
					],
					"stateMutability": "view",
					"type": "function"
				},
				{
					"inputs": [],
					"name": "withdraw",
					"outputs": [
						{
							"internalType": "bool",
							"name": "",
							"type": "bool"
						}
					],
					"stateMutability": "nonpayable",
					"type": "function"
				},
				{
					"inputs": [],
					"name": "withdrawAll",
					"outputs": [
						{
							"internalType": "bool",
							"name": "",
							"type": "bool"
						}
					],
					"stateMutability": "nonpayable",
					"type": "function"
				}
			],
			"devdoc": {
				"kind": "dev",
				"methods": {},
				"version": 1
			},
			"evm": {
				"assembly": "    /* \"SimpleAuction.sol\":168:3563  contract SimpleAuction {... */\n  mstore(0x40, 0x80)\n    /* \"SimpleAuction.sol\":894:1302  constructor(... */\n  callvalue\n  dup1\n  iszero\n  tag_1\n  jumpi\n  0x00\n  dup1\n  revert\ntag_1:\n  pop\n  mload(0x40)\n  sub(codesize, bytecodeSize)\n  dup1\n  bytecodeSize\n  dup4\n  codecopy\n  dup2\n  dup2\n  add\n  0x40\n  mstore\n  dup2\n  add\n  swap1\n  tag_2\n  swap2\n  swap1\n  tag_3\n  jump\t// in\ntag_2:\n    /* \"SimpleAuction.sol\":1059:1077  beneficiaryAddress */\n  dup3\n    /* \"SimpleAuction.sol\":1045:1056  beneficiary */\n  0x00\n  dup1\n    /* \"SimpleAuction.sol\":1045:1077  beneficiary = beneficiaryAddress */\n  0x0100\n  exp\n  dup2\n  sload\n  dup2\n  0xffffffffffffffffffffffffffffffffffffffff\n  mul\n  not\n  and\n  swap1\n  dup4\n  0xffffffffffffffffffffffffffffffffffffffff\n  and\n  mul\n  or\n  swap1\n  sstore\n  pop\n    /* \"SimpleAuction.sol\":1123:1134  biddingTime */\n  dup4\n    /* \"SimpleAuction.sol\":1105:1120  block.timestamp */\n  timestamp\n    /* \"SimpleAuction.sol\":1105:1134  block.timestamp + biddingTime */\n  tag_6\n  swap2\n  swap1\n  tag_7\n  jump\t// in\ntag_6:\n    /* \"SimpleAuction.sol\":1088:1102  auctionEndTime */\n  0x01\n    /* \"SimpleAuction.sol\":1088:1134  auctionEndTime = block.timestamp + biddingTime */\n  dup2\n  swap1\n  sstore\n  pop\n    /* \"SimpleAuction.sol\":1171:1175  1e18 */\n  0x0de0b6b3a7640000\n    /* \"SimpleAuction.sol\":1159:1167  lowPrice */\n  dup3\n    /* \"SimpleAuction.sol\":1159:1176  lowPrice * (1e18) */\n  tag_8\n  swap2\n  swap1\n  tag_9\n  jump\t// in\ntag_8:\n    /* \"SimpleAuction.sol\":1145:1156  lowestPrice */\n  0x02\n    /* \"SimpleAuction.sol\":1145:1176  lowestPrice = lowPrice * (1e18) */\n  dup2\n  swap1\n  sstore\n  pop\n    /* \"SimpleAuction.sol\":1252:1256  1e18 */\n  0x0de0b6b3a7640000\n    /* \"SimpleAuction.sol\":1239:1248  highPrice */\n  dup2\n    /* \"SimpleAuction.sol\":1239:1257  highPrice * (1e18) */\n  tag_10\n  swap2\n  swap1\n  tag_9\n  jump\t// in\ntag_10:\n    /* \"SimpleAuction.sol\":1224:1236  highestPrice */\n  0x03\n    /* \"SimpleAuction.sol\":1224:1257  highestPrice = highPrice * (1e18) */\n  dup2\n  swap1\n  sstore\n  pop\n    /* \"SimpleAuction.sol\":894:1302  constructor(... */\n  pop\n  pop\n  pop\n  pop\n    /* \"SimpleAuction.sol\":168:3563  contract SimpleAuction {... */\n  jump(tag_11)\n    /* \"#utility.yul\":88:205   */\ntag_13:\n    /* \"#utility.yul\":197:198   */\n  0x00\n    /* \"#utility.yul\":194:195   */\n  dup1\n    /* \"#utility.yul\":187:199   */\n  revert\n    /* \"#utility.yul\":334:411   */\ntag_15:\n    /* \"#utility.yul\":371:378   */\n  0x00\n    /* \"#utility.yul\":400:405   */\n  dup2\n    /* \"#utility.yul\":389:405   */\n  swap1\n  pop\n    /* \"#utility.yul\":334:411   */\n  swap2\n  swap1\n  pop\n  jump\t// out\n    /* \"#utility.yul\":417:539   */\ntag_16:\n    /* \"#utility.yul\":490:514   */\n  tag_29\n    /* \"#utility.yul\":508:513   */\n  dup2\n    /* \"#utility.yul\":490:514   */\n  tag_15\n  jump\t// in\ntag_29:\n    /* \"#utility.yul\":483:488   */\n  dup2\n    /* \"#utility.yul\":480:515   */\n  eq\n    /* \"#utility.yul\":470:533   */\n  tag_30\n  jumpi\n    /* \"#utility.yul\":529:530   */\n  0x00\n    /* \"#utility.yul\":526:527   */\n  dup1\n    /* \"#utility.yul\":519:531   */\n  revert\n    /* \"#utility.yul\":470:533   */\ntag_30:\n    /* \"#utility.yul\":417:539   */\n  pop\n  jump\t// out\n    /* \"#utility.yul\":545:688   */\ntag_17:\n    /* \"#utility.yul\":602:607   */\n  0x00\n    /* \"#utility.yul\":633:639   */\n  dup2\n    /* \"#utility.yul\":627:640   */\n  mload\n    /* \"#utility.yul\":618:640   */\n  swap1\n  pop\n    /* \"#utility.yul\":649:682   */\n  tag_32\n    /* \"#utility.yul\":676:681   */\n  dup2\n    /* \"#utility.yul\":649:682   */\n  tag_16\n  jump\t// in\ntag_32:\n    /* \"#utility.yul\":545:688   */\n  swap3\n  swap2\n  pop\n  pop\n  jump\t// out\n    /* \"#utility.yul\":694:820   */\ntag_18:\n    /* \"#utility.yul\":731:738   */\n  0x00\n    /* \"#utility.yul\":771:813   */\n  0xffffffffffffffffffffffffffffffffffffffff\n    /* \"#utility.yul\":764:769   */\n  dup3\n    /* \"#utility.yul\":760:814   */\n  and\n    /* \"#utility.yul\":749:814   */\n  swap1\n  pop\n    /* \"#utility.yul\":694:820   */\n  swap2\n  swap1\n  pop\n  jump\t// out\n    /* \"#utility.yul\":826:930   */\ntag_19:\n    /* \"#utility.yul\":871:878   */\n  0x00\n    /* \"#utility.yul\":900:924   */\n  tag_35\n    /* \"#utility.yul\":918:923   */\n  dup3\n    /* \"#utility.yul\":900:924   */\n  tag_18\n  jump\t// in\ntag_35:\n    /* \"#utility.yul\":889:924   */\n  swap1\n  pop\n    /* \"#utility.yul\":826:930   */\n  swap2\n  swap1\n  pop\n  jump\t// out\n    /* \"#utility.yul\":936:1074   */\ntag_20:\n    /* \"#utility.yul\":1017:1049   */\n  tag_37\n    /* \"#utility.yul\":1043:1048   */\n  dup2\n    /* \"#utility.yul\":1017:1049   */\n  tag_19\n  jump\t// in\ntag_37:\n    /* \"#utility.yul\":1010:1015   */\n  dup2\n    /* \"#utility.yul\":1007:1050   */\n  eq\n    /* \"#utility.yul\":997:1068   */\n  tag_38\n  jumpi\n    /* \"#utility.yul\":1064:1065   */\n  0x00\n    /* \"#utility.yul\":1061:1062   */\n  dup1\n    /* \"#utility.yul\":1054:1066   */\n  revert\n    /* \"#utility.yul\":997:1068   */\ntag_38:\n    /* \"#utility.yul\":936:1074   */\n  pop\n  jump\t// out\n    /* \"#utility.yul\":1080:1239   */\ntag_21:\n    /* \"#utility.yul\":1145:1150   */\n  0x00\n    /* \"#utility.yul\":1176:1182   */\n  dup2\n    /* \"#utility.yul\":1170:1183   */\n  mload\n    /* \"#utility.yul\":1161:1183   */\n  swap1\n  pop\n    /* \"#utility.yul\":1192:1233   */\n  tag_40\n    /* \"#utility.yul\":1227:1232   */\n  dup2\n    /* \"#utility.yul\":1192:1233   */\n  tag_20\n  jump\t// in\ntag_40:\n    /* \"#utility.yul\":1080:1239   */\n  swap3\n  swap2\n  pop\n  pop\n  jump\t// out\n    /* \"#utility.yul\":1245:2081   */\ntag_3:\n    /* \"#utility.yul\":1350:1356   */\n  0x00\n    /* \"#utility.yul\":1358:1364   */\n  dup1\n    /* \"#utility.yul\":1366:1372   */\n  0x00\n    /* \"#utility.yul\":1374:1380   */\n  dup1\n    /* \"#utility.yul\":1423:1426   */\n  0x80\n    /* \"#utility.yul\":1411:1420   */\n  dup6\n    /* \"#utility.yul\":1402:1409   */\n  dup8\n    /* \"#utility.yul\":1398:1421   */\n  sub\n    /* \"#utility.yul\":1394:1427   */\n  slt\n    /* \"#utility.yul\":1391:1511   */\n  iszero\n  tag_42\n  jumpi\n    /* \"#utility.yul\":1430:1509   */\n  tag_43\n  tag_13\n  jump\t// in\ntag_43:\n    /* \"#utility.yul\":1391:1511   */\ntag_42:\n    /* \"#utility.yul\":1550:1551   */\n  0x00\n    /* \"#utility.yul\":1575:1639   */\n  tag_44\n    /* \"#utility.yul\":1631:1638   */\n  dup8\n    /* \"#utility.yul\":1622:1628   */\n  dup3\n    /* \"#utility.yul\":1611:1620   */\n  dup9\n    /* \"#utility.yul\":1607:1629   */\n  add\n    /* \"#utility.yul\":1575:1639   */\n  tag_17\n  jump\t// in\ntag_44:\n    /* \"#utility.yul\":1565:1639   */\n  swap5\n  pop\n    /* \"#utility.yul\":1521:1649   */\n  pop\n    /* \"#utility.yul\":1688:1690   */\n  0x20\n    /* \"#utility.yul\":1714:1786   */\n  tag_45\n    /* \"#utility.yul\":1778:1785   */\n  dup8\n    /* \"#utility.yul\":1769:1775   */\n  dup3\n    /* \"#utility.yul\":1758:1767   */\n  dup9\n    /* \"#utility.yul\":1754:1776   */\n  add\n    /* \"#utility.yul\":1714:1786   */\n  tag_21\n  jump\t// in\ntag_45:\n    /* \"#utility.yul\":1704:1786   */\n  swap4\n  pop\n    /* \"#utility.yul\":1659:1796   */\n  pop\n    /* \"#utility.yul\":1835:1837   */\n  0x40\n    /* \"#utility.yul\":1861:1925   */\n  tag_46\n    /* \"#utility.yul\":1917:1924   */\n  dup8\n    /* \"#utility.yul\":1908:1914   */\n  dup3\n    /* \"#utility.yul\":1897:1906   */\n  dup9\n    /* \"#utility.yul\":1893:1915   */\n  add\n    /* \"#utility.yul\":1861:1925   */\n  tag_17\n  jump\t// in\ntag_46:\n    /* \"#utility.yul\":1851:1925   */\n  swap3\n  pop\n    /* \"#utility.yul\":1806:1935   */\n  pop\n    /* \"#utility.yul\":1974:1976   */\n  0x60\n    /* \"#utility.yul\":2000:2064   */\n  tag_47\n    /* \"#utility.yul\":2056:2063   */\n  dup8\n    /* \"#utility.yul\":2047:2053   */\n  dup3\n    /* \"#utility.yul\":2036:2045   */\n  dup9\n    /* \"#utility.yul\":2032:2054   */\n  add\n    /* \"#utility.yul\":2000:2064   */\n  tag_17\n  jump\t// in\ntag_47:\n    /* \"#utility.yul\":1990:2064   */\n  swap2\n  pop\n    /* \"#utility.yul\":1945:2074   */\n  pop\n    /* \"#utility.yul\":1245:2081   */\n  swap3\n  swap6\n  swap2\n  swap5\n  pop\n  swap3\n  pop\n  jump\t// out\n    /* \"#utility.yul\":2087:2267   */\ntag_22:\n    /* \"#utility.yul\":2135:2212   */\n  0x4e487b7100000000000000000000000000000000000000000000000000000000\n    /* \"#utility.yul\":2132:2133   */\n  0x00\n    /* \"#utility.yul\":2125:2213   */\n  mstore\n    /* \"#utility.yul\":2232:2236   */\n  0x11\n    /* \"#utility.yul\":2229:2230   */\n  0x04\n    /* \"#utility.yul\":2222:2237   */\n  mstore\n    /* \"#utility.yul\":2256:2260   */\n  0x24\n    /* \"#utility.yul\":2253:2254   */\n  0x00\n    /* \"#utility.yul\":2246:2261   */\n  revert\n    /* \"#utility.yul\":2273:2464   */\ntag_7:\n    /* \"#utility.yul\":2313:2316   */\n  0x00\n    /* \"#utility.yul\":2332:2352   */\n  tag_50\n    /* \"#utility.yul\":2350:2351   */\n  dup3\n    /* \"#utility.yul\":2332:2352   */\n  tag_15\n  jump\t// in\ntag_50:\n    /* \"#utility.yul\":2327:2352   */\n  swap2\n  pop\n    /* \"#utility.yul\":2366:2386   */\n  tag_51\n    /* \"#utility.yul\":2384:2385   */\n  dup4\n    /* \"#utility.yul\":2366:2386   */\n  tag_15\n  jump\t// in\ntag_51:\n    /* \"#utility.yul\":2361:2386   */\n  swap3\n  pop\n    /* \"#utility.yul\":2409:2410   */\n  dup3\n    /* \"#utility.yul\":2406:2407   */\n  dup3\n    /* \"#utility.yul\":2402:2411   */\n  add\n    /* \"#utility.yul\":2395:2411   */\n  swap1\n  pop\n    /* \"#utility.yul\":2430:2433   */\n  dup1\n    /* \"#utility.yul\":2427:2428   */\n  dup3\n    /* \"#utility.yul\":2424:2434   */\n  gt\n    /* \"#utility.yul\":2421:2457   */\n  iszero\n  tag_52\n  jumpi\n    /* \"#utility.yul\":2437:2455   */\n  tag_53\n  tag_22\n  jump\t// in\ntag_53:\n    /* \"#utility.yul\":2421:2457   */\ntag_52:\n    /* \"#utility.yul\":2273:2464   */\n  swap3\n  swap2\n  pop\n  pop\n  jump\t// out\n    /* \"#utility.yul\":2470:2880   */\ntag_9:\n    /* \"#utility.yul\":2510:2517   */\n  0x00\n    /* \"#utility.yul\":2533:2553   */\n  tag_55\n    /* \"#utility.yul\":2551:2552   */\n  dup3\n    /* \"#utility.yul\":2533:2553   */\n  tag_15\n  jump\t// in\ntag_55:\n    /* \"#utility.yul\":2528:2553   */\n  swap2\n  pop\n    /* \"#utility.yul\":2567:2587   */\n  tag_56\n    /* \"#utility.yul\":2585:2586   */\n  dup4\n    /* \"#utility.yul\":2567:2587   */\n  tag_15\n  jump\t// in\ntag_56:\n    /* \"#utility.yul\":2562:2587   */\n  swap3\n  pop\n    /* \"#utility.yul\":2622:2623   */\n  dup3\n    /* \"#utility.yul\":2619:2620   */\n  dup3\n    /* \"#utility.yul\":2615:2624   */\n  mul\n    /* \"#utility.yul\":2644:2674   */\n  tag_57\n    /* \"#utility.yul\":2662:2673   */\n  dup2\n    /* \"#utility.yul\":2644:2674   */\n  tag_15\n  jump\t// in\ntag_57:\n    /* \"#utility.yul\":2633:2674   */\n  swap2\n  pop\n    /* \"#utility.yul\":2823:2824   */\n  dup3\n    /* \"#utility.yul\":2814:2821   */\n  dup3\n    /* \"#utility.yul\":2810:2825   */\n  div\n    /* \"#utility.yul\":2807:2808   */\n  dup5\n    /* \"#utility.yul\":2804:2826   */\n  eq\n    /* \"#utility.yul\":2784:2785   */\n  dup4\n    /* \"#utility.yul\":2777:2786   */\n  iszero\n    /* \"#utility.yul\":2757:2840   */\n  or\n    /* \"#utility.yul\":2734:2873   */\n  tag_58\n  jumpi\n    /* \"#utility.yul\":2853:2871   */\n  tag_59\n  tag_22\n  jump\t// in\ntag_59:\n    /* \"#utility.yul\":2734:2873   */\ntag_58:\n    /* \"#utility.yul\":2518:2880   */\n  pop\n    /* \"#utility.yul\":2470:2880   */\n  swap3\n  swap2\n  pop\n  pop\n  jump\t// out\n    /* \"SimpleAuction.sol\":168:3563  contract SimpleAuction {... */\ntag_11:\n  dataSize(sub_0)\n  dup1\n  dataOffset(sub_0)\n  0x00\n  codecopy\n  0x00\n  return\nstop\n\nsub_0: assembly {\n        /* \"SimpleAuction.sol\":168:3563  contract SimpleAuction {... */\n      mstore(0x40, 0x80)\n      jumpi(tag_1, lt(calldatasize, 0x04))\n      shr(0xe0, calldataload(0x00))\n      dup1\n      0x3d087c2c\n      gt\n      tag_13\n      jumpi\n      dup1\n      0x3d087c2c\n      eq\n      tag_7\n      jumpi\n      dup1\n      0x4b449cba\n      eq\n      tag_8\n      jumpi\n      dup1\n      0x853828b6\n      eq\n      tag_9\n      jumpi\n      dup1\n      0x91f90157\n      eq\n      tag_10\n      jumpi\n      dup1\n      0xbe29b056\n      eq\n      tag_11\n      jumpi\n      dup1\n      0xd57bde79\n      eq\n      tag_12\n      jumpi\n      jump(tag_1)\n    tag_13:\n      dup1\n      0x0e8670e0\n      eq\n      tag_2\n      jumpi\n      dup1\n      0x1998aeef\n      eq\n      tag_3\n      jumpi\n      dup1\n      0x2a24f46c\n      eq\n      tag_4\n      jumpi\n      dup1\n      0x38af3eed\n      eq\n      tag_5\n      jumpi\n      dup1\n      0x3ccfd60b\n      eq\n      tag_6\n      jumpi\n    tag_1:\n      0x00\n      dup1\n      revert\n        /* \"SimpleAuction.sol\":304:328  uint public highestPrice */\n    tag_2:\n      callvalue\n      dup1\n      iszero\n      tag_14\n      jumpi\n      0x00\n      dup1\n      revert\n    tag_14:\n      pop\n      tag_15\n      tag_16\n      jump\t// in\n    tag_15:\n      mload(0x40)\n      tag_17\n      swap2\n      swap1\n      tag_18\n      jump\t// in\n    tag_17:\n      mload(0x40)\n      dup1\n      swap2\n      sub\n      swap1\n      return\n        /* \"SimpleAuction.sol\":1310:2110  function bid() external payable { // 입찰... */\n    tag_3:\n      tag_19\n      tag_20\n      jump\t// in\n    tag_19:\n      stop\n        /* \"SimpleAuction.sol\":3164:3560  function auctionEnd() external {... */\n    tag_4:\n      callvalue\n      dup1\n      iszero\n      tag_21\n      jumpi\n      0x00\n      dup1\n      revert\n    tag_21:\n      pop\n      tag_22\n      tag_23\n      jump\t// in\n    tag_22:\n      stop\n        /* \"SimpleAuction.sol\":200:234  address payable public beneficiary */\n    tag_5:\n      callvalue\n      dup1\n      iszero\n      tag_24\n      jumpi\n      0x00\n      dup1\n      revert\n    tag_24:\n      pop\n      tag_25\n      tag_26\n      jump\t// in\n    tag_25:\n      mload(0x40)\n      tag_27\n      swap2\n      swap1\n      tag_28\n      jump\t// in\n    tag_27:\n      mload(0x40)\n      dup1\n      swap2\n      sub\n      swap1\n      return\n        /* \"SimpleAuction.sol\":2373:2737  function withdraw() external returns (bool) {... */\n    tag_6:\n      callvalue\n      dup1\n      iszero\n      tag_29\n      jumpi\n      0x00\n      dup1\n      revert\n    tag_29:\n      pop\n      tag_30\n      tag_31\n      jump\t// in\n    tag_30:\n      mload(0x40)\n      tag_32\n      swap2\n      swap1\n      tag_33\n      jump\t// in\n    tag_32:\n      mload(0x40)\n      dup1\n      swap2\n      sub\n      swap1\n      return\n        /* \"SimpleAuction.sol\":2118:2323  function getCurrrentBid(address bidderAddress) external returns (uint) { // 입찰자 지갑 주소로 현재 얼마를 입찰한 상태인지 리턴 ... */\n    tag_7:\n      callvalue\n      dup1\n      iszero\n      tag_34\n      jumpi\n      0x00\n      dup1\n      revert\n    tag_34:\n      pop\n      tag_35\n      0x04\n      dup1\n      calldatasize\n      sub\n      dup2\n      add\n      swap1\n      tag_36\n      swap2\n      swap1\n      tag_37\n      jump\t// in\n    tag_36:\n      tag_38\n      jump\t// in\n    tag_35:\n      mload(0x40)\n      tag_39\n      swap2\n      swap1\n      tag_18\n      jump\t// in\n    tag_39:\n      mload(0x40)\n      dup1\n      swap2\n      sub\n      swap1\n      return\n        /* \"SimpleAuction.sol\":241:267  uint public auctionEndTime */\n    tag_8:\n      callvalue\n      dup1\n      iszero\n      tag_40\n      jumpi\n      0x00\n      dup1\n      revert\n    tag_40:\n      pop\n      tag_41\n      tag_42\n      jump\t// in\n    tag_41:\n      mload(0x40)\n      tag_43\n      swap2\n      swap1\n      tag_18\n      jump\t// in\n    tag_43:\n      mload(0x40)\n      dup1\n      swap2\n      sub\n      swap1\n      return\n        /* \"SimpleAuction.sol\":2789:3156  function withdrawAll() external returns (bool) {... */\n    tag_9:\n      callvalue\n      dup1\n      iszero\n      tag_44\n      jumpi\n      0x00\n      dup1\n      revert\n    tag_44:\n      pop\n      tag_45\n      tag_46\n      jump\t// in\n    tag_45:\n      mload(0x40)\n      tag_47\n      swap2\n      swap1\n      tag_33\n      jump\t// in\n    tag_47:\n      mload(0x40)\n      dup1\n      swap2\n      sub\n      swap1\n      return\n        /* \"SimpleAuction.sol\":335:363  address public highestBidder */\n    tag_10:\n      callvalue\n      dup1\n      iszero\n      tag_48\n      jumpi\n      0x00\n      dup1\n      revert\n    tag_48:\n      pop\n      tag_49\n      tag_50\n      jump\t// in\n    tag_49:\n      mload(0x40)\n      tag_51\n      swap2\n      swap1\n      tag_52\n      jump\t// in\n    tag_51:\n      mload(0x40)\n      dup1\n      swap2\n      sub\n      swap1\n      return\n        /* \"SimpleAuction.sol\":274:297  uint public lowestPrice */\n    tag_11:\n      callvalue\n      dup1\n      iszero\n      tag_53\n      jumpi\n      0x00\n      dup1\n      revert\n    tag_53:\n      pop\n      tag_54\n      tag_55\n      jump\t// in\n    tag_54:\n      mload(0x40)\n      tag_56\n      swap2\n      swap1\n      tag_18\n      jump\t// in\n    tag_56:\n      mload(0x40)\n      dup1\n      swap2\n      sub\n      swap1\n      return\n        /* \"SimpleAuction.sol\":370:392  uint public highestBid */\n    tag_12:\n      callvalue\n      dup1\n      iszero\n      tag_57\n      jumpi\n      0x00\n      dup1\n      revert\n    tag_57:\n      pop\n      tag_58\n      tag_59\n      jump\t// in\n    tag_58:\n      mload(0x40)\n      tag_60\n      swap2\n      swap1\n      tag_18\n      jump\t// in\n    tag_60:\n      mload(0x40)\n      dup1\n      swap2\n      sub\n      swap1\n      return\n        /* \"SimpleAuction.sol\":304:328  uint public highestPrice */\n    tag_16:\n      sload(0x03)\n      dup2\n      jump\t// out\n        /* \"SimpleAuction.sol\":1310:2110  function bid() external payable { // 입찰... */\n    tag_20:\n        /* \"SimpleAuction.sol\":1385:1399  auctionEndTime */\n      sload(0x01)\n        /* \"SimpleAuction.sol\":1367:1382  block.timestamp */\n      timestamp\n        /* \"SimpleAuction.sol\":1367:1399  block.timestamp > auctionEndTime */\n      gt\n        /* \"SimpleAuction.sol\":1363:1442  if (block.timestamp > auctionEndTime)... */\n      iszero\n      tag_62\n      jumpi\n        /* \"SimpleAuction.sol\":1421:1442  AuctionAlreadyEnded() */\n      mload(0x40)\n      0xd02e774d00000000000000000000000000000000000000000000000000000000\n      dup2\n      mstore\n      0x04\n      add\n      mload(0x40)\n      dup1\n      swap2\n      sub\n      swap1\n      revert\n        /* \"SimpleAuction.sol\":1363:1442  if (block.timestamp > auctionEndTime)... */\n    tag_62:\n        /* \"SimpleAuction.sol\":1470:1480  highestBid */\n      sload(0x05)\n        /* \"SimpleAuction.sol\":1457:1466  msg.value */\n      callvalue\n        /* \"SimpleAuction.sol\":1457:1480  msg.value <= highestBid */\n      gt\n        /* \"SimpleAuction.sol\":1453:1530  if (msg.value <= highestBid)... */\n      tag_63\n      jumpi\n        /* \"SimpleAuction.sol\":1519:1529  highestBid */\n      sload(0x05)\n        /* \"SimpleAuction.sol\":1502:1530  BidNotHighEnough(highestBid) */\n      mload(0x40)\n      0x4e12c1bb00000000000000000000000000000000000000000000000000000000\n      dup2\n      mstore\n      0x04\n      add\n      tag_64\n      swap2\n      swap1\n      tag_18\n      jump\t// in\n    tag_64:\n      mload(0x40)\n      dup1\n      swap2\n      sub\n      swap1\n      revert\n        /* \"SimpleAuction.sol\":1453:1530  if (msg.value <= highestBid)... */\n    tag_63:\n        /* \"SimpleAuction.sol\":1557:1568  lowestPrice */\n      sload(0x02)\n        /* \"SimpleAuction.sol\":1545:1554  msg.value */\n      callvalue\n        /* \"SimpleAuction.sol\":1545:1568  msg.value < lowestPrice */\n      lt\n        /* \"SimpleAuction.sol\":1541:1615  if (msg.value < lowestPrice)... */\n      iszero\n      tag_65\n      jumpi\n        /* \"SimpleAuction.sol\":1590:1615  BidLowerThanLowestPrice() */\n      mload(0x40)\n      0x6f1465ea00000000000000000000000000000000000000000000000000000000\n      dup2\n      mstore\n      0x04\n      add\n      mload(0x40)\n      dup1\n      swap2\n      sub\n      swap1\n      revert\n        /* \"SimpleAuction.sol\":1541:1615  if (msg.value < lowestPrice)... */\n    tag_65:\n        /* \"SimpleAuction.sol\":1642:1654  highestPrice */\n      sload(0x03)\n        /* \"SimpleAuction.sol\":1630:1639  msg.value */\n      callvalue\n        /* \"SimpleAuction.sol\":1630:1654  msg.value > highestPrice */\n      gt\n        /* \"SimpleAuction.sol\":1626:1703  if (msg.value > highestPrice)... */\n      iszero\n      tag_66\n      jumpi\n        /* \"SimpleAuction.sol\":1676:1703  BidHigherThanHighestPrice() */\n      mload(0x40)\n      0xaa43d3f300000000000000000000000000000000000000000000000000000000\n      dup2\n      mstore\n      0x04\n      add\n      mload(0x40)\n      dup1\n      swap2\n      sub\n      swap1\n      revert\n        /* \"SimpleAuction.sol\":1626:1703  if (msg.value > highestPrice)... */\n    tag_66:\n        /* \"SimpleAuction.sol\":1732:1733  0 */\n      0x00\n        /* \"SimpleAuction.sol\":1718:1728  highestBid */\n      sload(0x05)\n        /* \"SimpleAuction.sol\":1718:1733  highestBid != 0 */\n      eq\n        /* \"SimpleAuction.sol\":1714:1899  if (highestBid != 0) {... */\n      tag_67\n      jumpi\n        /* \"SimpleAuction.sol\":1783:1793  highestBid */\n      sload(0x05)\n        /* \"SimpleAuction.sol\":1750:1764  pendingReturns */\n      0x06\n        /* \"SimpleAuction.sol\":1750:1779  pendingReturns[highestBidder] */\n      0x00\n        /* \"SimpleAuction.sol\":1765:1778  highestBidder */\n      0x04\n      0x00\n      swap1\n      sload\n      swap1\n      0x0100\n      exp\n      swap1\n      div\n      0xffffffffffffffffffffffffffffffffffffffff\n      and\n        /* \"SimpleAuction.sol\":1750:1779  pendingReturns[highestBidder] */\n      0xffffffffffffffffffffffffffffffffffffffff\n      and\n      0xffffffffffffffffffffffffffffffffffffffff\n      and\n      dup2\n      mstore\n      0x20\n      add\n      swap1\n      dup2\n      mstore\n      0x20\n      add\n      0x00\n      keccak256\n      0x00\n        /* \"SimpleAuction.sol\":1750:1793  pendingReturns[highestBidder] += highestBid */\n      dup3\n      dup3\n      sload\n      tag_68\n      swap2\n      swap1\n      tag_69\n      jump\t// in\n    tag_68:\n      swap3\n      pop\n      pop\n      dup2\n      swap1\n      sstore\n      pop\n        /* \"SimpleAuction.sol\":1714:1899  if (highestBid != 0) {... */\n    tag_67:\n        /* \"SimpleAuction.sol\":1925:1935  msg.sender */\n      caller\n        /* \"SimpleAuction.sol\":1909:1922  highestBidder */\n      0x04\n      0x00\n        /* \"SimpleAuction.sol\":1909:1935  highestBidder = msg.sender */\n      0x0100\n      exp\n      dup2\n      sload\n      dup2\n      0xffffffffffffffffffffffffffffffffffffffff\n      mul\n      not\n      and\n      swap1\n      dup4\n      0xffffffffffffffffffffffffffffffffffffffff\n      and\n      mul\n      or\n      swap1\n      sstore\n      pop\n        /* \"SimpleAuction.sol\":1991:2000  msg.value */\n      callvalue\n        /* \"SimpleAuction.sol\":1959:1973  pendingReturns */\n      0x06\n        /* \"SimpleAuction.sol\":1959:1988  pendingReturns[highestBidder] */\n      0x00\n        /* \"SimpleAuction.sol\":1974:1987  highestBidder */\n      0x04\n      0x00\n      swap1\n      sload\n      swap1\n      0x0100\n      exp\n      swap1\n      div\n      0xffffffffffffffffffffffffffffffffffffffff\n      and\n        /* \"SimpleAuction.sol\":1959:1988  pendingReturns[highestBidder] */\n      0xffffffffffffffffffffffffffffffffffffffff\n      and\n      0xffffffffffffffffffffffffffffffffffffffff\n      and\n      dup2\n      mstore\n      0x20\n      add\n      swap1\n      dup2\n      mstore\n      0x20\n      add\n      0x00\n      keccak256\n      sload\n        /* \"SimpleAuction.sol\":1959:2000  pendingReturns[highestBidder] + msg.value */\n      tag_70\n      swap2\n      swap1\n      tag_69\n      jump\t// in\n    tag_70:\n        /* \"SimpleAuction.sol\":1946:1956  highestBid */\n      0x05\n        /* \"SimpleAuction.sol\":1946:2000  highestBid = pendingReturns[highestBidder] + msg.value */\n      dup2\n      swap1\n      sstore\n      pop\n        /* \"SimpleAuction.sol\":2043:2044  0 */\n      0x00\n        /* \"SimpleAuction.sol\":2011:2025  pendingReturns */\n      0x06\n        /* \"SimpleAuction.sol\":2011:2040  pendingReturns[highestBidder] */\n      0x00\n        /* \"SimpleAuction.sol\":2026:2039  highestBidder */\n      0x04\n      0x00\n      swap1\n      sload\n      swap1\n      0x0100\n      exp\n      swap1\n      div\n      0xffffffffffffffffffffffffffffffffffffffff\n      and\n        /* \"SimpleAuction.sol\":2011:2040  pendingReturns[highestBidder] */\n      0xffffffffffffffffffffffffffffffffffffffff\n      and\n      0xffffffffffffffffffffffffffffffffffffffff\n      and\n      dup2\n      mstore\n      0x20\n      add\n      swap1\n      dup2\n      mstore\n      0x20\n      add\n      0x00\n      keccak256\n        /* \"SimpleAuction.sol\":2011:2044  pendingReturns[highestBidder] = 0 */\n      dup2\n      swap1\n      sstore\n      pop\n        /* \"SimpleAuction.sol\":2060:2102  HighestBidIncreased(msg.sender, msg.value) */\n      0xf4757a49b326036464bec6fe419a4ae38c8a02ce3e68bf0809674f6aab8ad300\n        /* \"SimpleAuction.sol\":2080:2090  msg.sender */\n      caller\n        /* \"SimpleAuction.sol\":2092:2101  msg.value */\n      callvalue\n        /* \"SimpleAuction.sol\":2060:2102  HighestBidIncreased(msg.sender, msg.value) */\n      mload(0x40)\n      tag_71\n      swap3\n      swap2\n      swap1\n      tag_72\n      jump\t// in\n    tag_71:\n      mload(0x40)\n      dup1\n      swap2\n      sub\n      swap1\n      log1\n        /* \"SimpleAuction.sol\":1310:2110  function bid() external payable { // 입찰... */\n      jump\t// out\n        /* \"SimpleAuction.sol\":3164:3560  function auctionEnd() external {... */\n    tag_23:\n        /* \"SimpleAuction.sol\":3254:3268  auctionEndTime */\n      sload(0x01)\n        /* \"SimpleAuction.sol\":3236:3251  block.timestamp */\n      timestamp\n        /* \"SimpleAuction.sol\":3236:3268  block.timestamp < auctionEndTime */\n      lt\n        /* \"SimpleAuction.sol\":3232:3310  if (block.timestamp < auctionEndTime)... */\n      iszero\n      tag_74\n      jumpi\n        /* \"SimpleAuction.sol\":3290:3310  AuctionNotYetEnded() */\n      mload(0x40)\n      0x44cee29000000000000000000000000000000000000000000000000000000000\n      dup2\n      mstore\n      0x04\n      add\n      mload(0x40)\n      dup1\n      swap2\n      sub\n      swap1\n      revert\n        /* \"SimpleAuction.sol\":3232:3310  if (block.timestamp < auctionEndTime)... */\n    tag_74:\n        /* \"SimpleAuction.sol\":3325:3330  ended */\n      0x08\n      0x00\n      swap1\n      sload\n      swap1\n      0x0100\n      exp\n      swap1\n      div\n      0xff\n      and\n        /* \"SimpleAuction.sol\":3321:3377  if (ended)... */\n      iszero\n      tag_75\n      jumpi\n        /* \"SimpleAuction.sol\":3352:3377  AuctionEndAlreadyCalled() */\n      mload(0x40)\n      0x61cfdcf800000000000000000000000000000000000000000000000000000000\n      dup2\n      mstore\n      0x04\n      add\n      mload(0x40)\n      dup1\n      swap2\n      sub\n      swap1\n      revert\n        /* \"SimpleAuction.sol\":3321:3377  if (ended)... */\n    tag_75:\n        /* \"SimpleAuction.sol\":3421:3425  true */\n      0x01\n        /* \"SimpleAuction.sol\":3413:3418  ended */\n      0x08\n      0x00\n        /* \"SimpleAuction.sol\":3413:3425  ended = true */\n      0x0100\n      exp\n      dup2\n      sload\n      dup2\n      0xff\n      mul\n      not\n      and\n      swap1\n      dup4\n      iszero\n      iszero\n      mul\n      or\n      swap1\n      sstore\n      pop\n        /* \"SimpleAuction.sol\":3441:3480  AuctionEnded(highestBidder, highestBid) */\n      0xdaec4582d5d9595688c8c98545fdd1c696d41c6aeaeb636737e84ed2f5c00eda\n        /* \"SimpleAuction.sol\":3454:3467  highestBidder */\n      0x04\n      0x00\n      swap1\n      sload\n      swap1\n      0x0100\n      exp\n      swap1\n      div\n      0xffffffffffffffffffffffffffffffffffffffff\n      and\n        /* \"SimpleAuction.sol\":3469:3479  highestBid */\n      sload(0x05)\n        /* \"SimpleAuction.sol\":3441:3480  AuctionEnded(highestBidder, highestBid) */\n      mload(0x40)\n      tag_76\n      swap3\n      swap2\n      swap1\n      tag_72\n      jump\t// in\n    tag_76:\n      mload(0x40)\n      dup1\n      swap2\n      sub\n      swap1\n      log1\n        /* \"SimpleAuction.sol\":3520:3531  beneficiary */\n      0x00\n      dup1\n      sload\n      swap1\n      0x0100\n      exp\n      swap1\n      div\n      0xffffffffffffffffffffffffffffffffffffffff\n      and\n        /* \"SimpleAuction.sol\":3520:3540  beneficiary.transfer */\n      0xffffffffffffffffffffffffffffffffffffffff\n      and\n        /* \"SimpleAuction.sol\":3520:3552  beneficiary.transfer(highestBid) */\n      0x08fc\n        /* \"SimpleAuction.sol\":3541:3551  highestBid */\n      sload(0x05)\n        /* \"SimpleAuction.sol\":3520:3552  beneficiary.transfer(highestBid) */\n      swap1\n      dup2\n      iszero\n      mul\n      swap1\n      mload(0x40)\n      0x00\n      mload(0x40)\n      dup1\n      dup4\n      sub\n      dup2\n      dup6\n      dup9\n      dup9\n      call\n      swap4\n      pop\n      pop\n      pop\n      pop\n      iszero\n      dup1\n      iszero\n      tag_78\n      jumpi\n      returndatasize\n      0x00\n      dup1\n      returndatacopy\n      revert(0x00, returndatasize)\n    tag_78:\n      pop\n        /* \"SimpleAuction.sol\":3164:3560  function auctionEnd() external {... */\n      jump\t// out\n        /* \"SimpleAuction.sol\":200:234  address payable public beneficiary */\n    tag_26:\n      0x00\n      dup1\n      sload\n      swap1\n      0x0100\n      exp\n      swap1\n      div\n      0xffffffffffffffffffffffffffffffffffffffff\n      and\n      dup2\n      jump\t// out\n        /* \"SimpleAuction.sol\":2373:2737  function withdraw() external returns (bool) {... */\n    tag_31:\n        /* \"SimpleAuction.sol\":2411:2415  bool */\n      0x00\n        /* \"SimpleAuction.sol\":2428:2439  uint amount */\n      dup1\n        /* \"SimpleAuction.sol\":2442:2456  pendingReturns */\n      0x06\n        /* \"SimpleAuction.sol\":2442:2468  pendingReturns[msg.sender] */\n      0x00\n        /* \"SimpleAuction.sol\":2457:2467  msg.sender */\n      caller\n        /* \"SimpleAuction.sol\":2442:2468  pendingReturns[msg.sender] */\n      0xffffffffffffffffffffffffffffffffffffffff\n      and\n      0xffffffffffffffffffffffffffffffffffffffff\n      and\n      dup2\n      mstore\n      0x20\n      add\n      swap1\n      dup2\n      mstore\n      0x20\n      add\n      0x00\n      keccak256\n      sload\n        /* \"SimpleAuction.sol\":2428:2468  uint amount = pendingReturns[msg.sender] */\n      swap1\n      pop\n        /* \"SimpleAuction.sol\":2492:2493  0 */\n      0x00\n        /* \"SimpleAuction.sol\":2483:2489  amount */\n      dup2\n        /* \"SimpleAuction.sol\":2483:2493  amount > 0 */\n      gt\n        /* \"SimpleAuction.sol\":2479:2708  if (amount > 0) {... */\n      iszero\n      tag_80\n      jumpi\n        /* \"SimpleAuction.sol\":2539:2540  0 */\n      0x00\n        /* \"SimpleAuction.sol\":2510:2524  pendingReturns */\n      0x06\n        /* \"SimpleAuction.sol\":2510:2536  pendingReturns[msg.sender] */\n      0x00\n        /* \"SimpleAuction.sol\":2525:2535  msg.sender */\n      caller\n        /* \"SimpleAuction.sol\":2510:2536  pendingReturns[msg.sender] */\n      0xffffffffffffffffffffffffffffffffffffffff\n      and\n      0xffffffffffffffffffffffffffffffffffffffff\n      and\n      dup2\n      mstore\n      0x20\n      add\n      swap1\n      dup2\n      mstore\n      0x20\n      add\n      0x00\n      keccak256\n        /* \"SimpleAuction.sol\":2510:2540  pendingReturns[msg.sender] = 0 */\n      dup2\n      swap1\n      sstore\n      pop\n        /* \"SimpleAuction.sol\":2570:2580  msg.sender */\n      caller\n        /* \"SimpleAuction.sol\":2562:2586  payable(msg.sender).send */\n      0xffffffffffffffffffffffffffffffffffffffff\n      and\n        /* \"SimpleAuction.sol\":2562:2594  payable(msg.sender).send(amount) */\n      0x08fc\n        /* \"SimpleAuction.sol\":2587:2593  amount */\n      dup3\n        /* \"SimpleAuction.sol\":2562:2594  payable(msg.sender).send(amount) */\n      swap1\n      dup2\n      iszero\n      mul\n      swap1\n      mload(0x40)\n      0x00\n      mload(0x40)\n      dup1\n      dup4\n      sub\n      dup2\n      dup6\n      dup9\n      dup9\n      call\n      swap4\n      pop\n      pop\n      pop\n      pop\n        /* \"SimpleAuction.sol\":2557:2697  if (!payable(msg.sender).send(amount)) {... */\n      tag_82\n      jumpi\n        /* \"SimpleAuction.sol\":2644:2650  amount */\n      dup1\n        /* \"SimpleAuction.sol\":2615:2629  pendingReturns */\n      0x06\n        /* \"SimpleAuction.sol\":2615:2641  pendingReturns[msg.sender] */\n      0x00\n        /* \"SimpleAuction.sol\":2630:2640  msg.sender */\n      caller\n        /* \"SimpleAuction.sol\":2615:2641  pendingReturns[msg.sender] */\n      0xffffffffffffffffffffffffffffffffffffffff\n      and\n      0xffffffffffffffffffffffffffffffffffffffff\n      and\n      dup2\n      mstore\n      0x20\n      add\n      swap1\n      dup2\n      mstore\n      0x20\n      add\n      0x00\n      keccak256\n        /* \"SimpleAuction.sol\":2615:2650  pendingReturns[msg.sender] = amount */\n      dup2\n      swap1\n      sstore\n      pop\n        /* \"SimpleAuction.sol\":2676:2681  false */\n      0x00\n        /* \"SimpleAuction.sol\":2669:2681  return false */\n      swap2\n      pop\n      pop\n      jump(tag_79)\n        /* \"SimpleAuction.sol\":2557:2697  if (!payable(msg.sender).send(amount)) {... */\n    tag_82:\n        /* \"SimpleAuction.sol\":2479:2708  if (amount > 0) {... */\n    tag_80:\n        /* \"SimpleAuction.sol\":2725:2729  true */\n      0x01\n        /* \"SimpleAuction.sol\":2718:2729  return true */\n      swap2\n      pop\n      pop\n        /* \"SimpleAuction.sol\":2373:2737  function withdraw() external returns (bool) {... */\n    tag_79:\n      swap1\n      jump\t// out\n        /* \"SimpleAuction.sol\":2118:2323  function getCurrrentBid(address bidderAddress) external returns (uint) { // 입찰자 지갑 주소로 현재 얼마를 입찰한 상태인지 리턴 ... */\n    tag_38:\n        /* \"SimpleAuction.sol\":2183:2187  uint */\n      0x00\n        /* \"SimpleAuction.sol\":2286:2300  pendingReturns */\n      0x06\n        /* \"SimpleAuction.sol\":2286:2315  pendingReturns[bidderAddress] */\n      0x00\n        /* \"SimpleAuction.sol\":2301:2314  bidderAddress */\n      dup4\n        /* \"SimpleAuction.sol\":2286:2315  pendingReturns[bidderAddress] */\n      0xffffffffffffffffffffffffffffffffffffffff\n      and\n      0xffffffffffffffffffffffffffffffffffffffff\n      and\n      dup2\n      mstore\n      0x20\n      add\n      swap1\n      dup2\n      mstore\n      0x20\n      add\n      0x00\n      keccak256\n      sload\n        /* \"SimpleAuction.sol\":2279:2315  return pendingReturns[bidderAddress] */\n      swap1\n      pop\n        /* \"SimpleAuction.sol\":2118:2323  function getCurrrentBid(address bidderAddress) external returns (uint) { // 입찰자 지갑 주소로 현재 얼마를 입찰한 상태인지 리턴 ... */\n      swap2\n      swap1\n      pop\n      jump\t// out\n        /* \"SimpleAuction.sol\":241:267  uint public auctionEndTime */\n    tag_42:\n      sload(0x01)\n      dup2\n      jump\t// out\n        /* \"SimpleAuction.sol\":2789:3156  function withdrawAll() external returns (bool) {... */\n    tag_46:\n        /* \"SimpleAuction.sol\":2830:2834  bool */\n      0x00\n        /* \"SimpleAuction.sol\":2847:2858  uint amount */\n      dup1\n        /* \"SimpleAuction.sol\":2861:2875  pendingReturns */\n      0x06\n        /* \"SimpleAuction.sol\":2861:2887  pendingReturns[msg.sender] */\n      0x00\n        /* \"SimpleAuction.sol\":2876:2886  msg.sender */\n      caller\n        /* \"SimpleAuction.sol\":2861:2887  pendingReturns[msg.sender] */\n      0xffffffffffffffffffffffffffffffffffffffff\n      and\n      0xffffffffffffffffffffffffffffffffffffffff\n      and\n      dup2\n      mstore\n      0x20\n      add\n      swap1\n      dup2\n      mstore\n      0x20\n      add\n      0x00\n      keccak256\n      sload\n        /* \"SimpleAuction.sol\":2847:2887  uint amount = pendingReturns[msg.sender] */\n      swap1\n      pop\n        /* \"SimpleAuction.sol\":2911:2912  0 */\n      0x00\n        /* \"SimpleAuction.sol\":2902:2908  amount */\n      dup2\n        /* \"SimpleAuction.sol\":2902:2912  amount > 0 */\n      gt\n        /* \"SimpleAuction.sol\":2898:3127  if (amount > 0) {... */\n      iszero\n      tag_85\n      jumpi\n        /* \"SimpleAuction.sol\":2958:2959  0 */\n      0x00\n        /* \"SimpleAuction.sol\":2929:2943  pendingReturns */\n      0x06\n        /* \"SimpleAuction.sol\":2929:2955  pendingReturns[msg.sender] */\n      0x00\n        /* \"SimpleAuction.sol\":2944:2954  msg.sender */\n      caller\n        /* \"SimpleAuction.sol\":2929:2955  pendingReturns[msg.sender] */\n      0xffffffffffffffffffffffffffffffffffffffff\n      and\n      0xffffffffffffffffffffffffffffffffffffffff\n      and\n      dup2\n      mstore\n      0x20\n      add\n      swap1\n      dup2\n      mstore\n      0x20\n      add\n      0x00\n      keccak256\n        /* \"SimpleAuction.sol\":2929:2959  pendingReturns[msg.sender] = 0 */\n      dup2\n      swap1\n      sstore\n      pop\n        /* \"SimpleAuction.sol\":2989:2999  msg.sender */\n      caller\n        /* \"SimpleAuction.sol\":2981:3005  payable(msg.sender).send */\n      0xffffffffffffffffffffffffffffffffffffffff\n      and\n        /* \"SimpleAuction.sol\":2981:3013  payable(msg.sender).send(amount) */\n      0x08fc\n        /* \"SimpleAuction.sol\":3006:3012  amount */\n      dup3\n        /* \"SimpleAuction.sol\":2981:3013  payable(msg.sender).send(amount) */\n      swap1\n      dup2\n      iszero\n      mul\n      swap1\n      mload(0x40)\n      0x00\n      mload(0x40)\n      dup1\n      dup4\n      sub\n      dup2\n      dup6\n      dup9\n      dup9\n      call\n      swap4\n      pop\n      pop\n      pop\n      pop\n        /* \"SimpleAuction.sol\":2976:3116  if (!payable(msg.sender).send(amount)) {... */\n      tag_87\n      jumpi\n        /* \"SimpleAuction.sol\":3063:3069  amount */\n      dup1\n        /* \"SimpleAuction.sol\":3034:3048  pendingReturns */\n      0x06\n        /* \"SimpleAuction.sol\":3034:3060  pendingReturns[msg.sender] */\n      0x00\n        /* \"SimpleAuction.sol\":3049:3059  msg.sender */\n      caller\n        /* \"SimpleAuction.sol\":3034:3060  pendingReturns[msg.sender] */\n      0xffffffffffffffffffffffffffffffffffffffff\n      and\n      0xffffffffffffffffffffffffffffffffffffffff\n      and\n      dup2\n      mstore\n      0x20\n      add\n      swap1\n      dup2\n      mstore\n      0x20\n      add\n      0x00\n      keccak256\n        /* \"SimpleAuction.sol\":3034:3069  pendingReturns[msg.sender] = amount */\n      dup2\n      swap1\n      sstore\n      pop\n        /* \"SimpleAuction.sol\":3095:3100  false */\n      0x00\n        /* \"SimpleAuction.sol\":3088:3100  return false */\n      swap2\n      pop\n      pop\n      jump(tag_84)\n        /* \"SimpleAuction.sol\":2976:3116  if (!payable(msg.sender).send(amount)) {... */\n    tag_87:\n        /* \"SimpleAuction.sol\":2898:3127  if (amount > 0) {... */\n    tag_85:\n        /* \"SimpleAuction.sol\":3144:3148  true */\n      0x01\n        /* \"SimpleAuction.sol\":3137:3148  return true */\n      swap2\n      pop\n      pop\n        /* \"SimpleAuction.sol\":2789:3156  function withdrawAll() external returns (bool) {... */\n    tag_84:\n      swap1\n      jump\t// out\n        /* \"SimpleAuction.sol\":335:363  address public highestBidder */\n    tag_50:\n      0x04\n      0x00\n      swap1\n      sload\n      swap1\n      0x0100\n      exp\n      swap1\n      div\n      0xffffffffffffffffffffffffffffffffffffffff\n      and\n      dup2\n      jump\t// out\n        /* \"SimpleAuction.sol\":274:297  uint public lowestPrice */\n    tag_55:\n      sload(0x02)\n      dup2\n      jump\t// out\n        /* \"SimpleAuction.sol\":370:392  uint public highestBid */\n    tag_59:\n      sload(0x05)\n      dup2\n      jump\t// out\n        /* \"#utility.yul\":7:84   */\n    tag_88:\n        /* \"#utility.yul\":44:51   */\n      0x00\n        /* \"#utility.yul\":73:78   */\n      dup2\n        /* \"#utility.yul\":62:78   */\n      swap1\n      pop\n        /* \"#utility.yul\":7:84   */\n      swap2\n      swap1\n      pop\n      jump\t// out\n        /* \"#utility.yul\":90:208   */\n    tag_89:\n        /* \"#utility.yul\":177:201   */\n      tag_106\n        /* \"#utility.yul\":195:200   */\n      dup2\n        /* \"#utility.yul\":177:201   */\n      tag_88\n      jump\t// in\n    tag_106:\n        /* \"#utility.yul\":172:175   */\n      dup3\n        /* \"#utility.yul\":165:202   */\n      mstore\n        /* \"#utility.yul\":90:208   */\n      pop\n      pop\n      jump\t// out\n        /* \"#utility.yul\":214:436   */\n    tag_18:\n        /* \"#utility.yul\":307:311   */\n      0x00\n        /* \"#utility.yul\":345:347   */\n      0x20\n        /* \"#utility.yul\":334:343   */\n      dup3\n        /* \"#utility.yul\":330:348   */\n      add\n        /* \"#utility.yul\":322:348   */\n      swap1\n      pop\n        /* \"#utility.yul\":358:429   */\n      tag_108\n        /* \"#utility.yul\":426:427   */\n      0x00\n        /* \"#utility.yul\":415:424   */\n      dup4\n        /* \"#utility.yul\":411:428   */\n      add\n        /* \"#utility.yul\":402:408   */\n      dup5\n        /* \"#utility.yul\":358:429   */\n      tag_89\n      jump\t// in\n    tag_108:\n        /* \"#utility.yul\":214:436   */\n      swap3\n      swap2\n      pop\n      pop\n      jump\t// out\n        /* \"#utility.yul\":442:568   */\n    tag_90:\n        /* \"#utility.yul\":479:486   */\n      0x00\n        /* \"#utility.yul\":519:561   */\n      0xffffffffffffffffffffffffffffffffffffffff\n        /* \"#utility.yul\":512:517   */\n      dup3\n        /* \"#utility.yul\":508:562   */\n      and\n        /* \"#utility.yul\":497:562   */\n      swap1\n      pop\n        /* \"#utility.yul\":442:568   */\n      swap2\n      swap1\n      pop\n      jump\t// out\n        /* \"#utility.yul\":574:678   */\n    tag_91:\n        /* \"#utility.yul\":619:626   */\n      0x00\n        /* \"#utility.yul\":648:672   */\n      tag_111\n        /* \"#utility.yul\":666:671   */\n      dup3\n        /* \"#utility.yul\":648:672   */\n      tag_90\n      jump\t// in\n    tag_111:\n        /* \"#utility.yul\":637:672   */\n      swap1\n      pop\n        /* \"#utility.yul\":574:678   */\n      swap2\n      swap1\n      pop\n      jump\t// out\n        /* \"#utility.yul\":684:826   */\n    tag_92:\n        /* \"#utility.yul\":787:819   */\n      tag_113\n        /* \"#utility.yul\":813:818   */\n      dup2\n        /* \"#utility.yul\":787:819   */\n      tag_91\n      jump\t// in\n    tag_113:\n        /* \"#utility.yul\":782:785   */\n      dup3\n        /* \"#utility.yul\":775:820   */\n      mstore\n        /* \"#utility.yul\":684:826   */\n      pop\n      pop\n      jump\t// out\n        /* \"#utility.yul\":832:1086   */\n    tag_28:\n        /* \"#utility.yul\":941:945   */\n      0x00\n        /* \"#utility.yul\":979:981   */\n      0x20\n        /* \"#utility.yul\":968:977   */\n      dup3\n        /* \"#utility.yul\":964:982   */\n      add\n        /* \"#utility.yul\":956:982   */\n      swap1\n      pop\n        /* \"#utility.yul\":992:1079   */\n      tag_115\n        /* \"#utility.yul\":1076:1077   */\n      0x00\n        /* \"#utility.yul\":1065:1074   */\n      dup4\n        /* \"#utility.yul\":1061:1078   */\n      add\n        /* \"#utility.yul\":1052:1058   */\n      dup5\n        /* \"#utility.yul\":992:1079   */\n      tag_92\n      jump\t// in\n    tag_115:\n        /* \"#utility.yul\":832:1086   */\n      swap3\n      swap2\n      pop\n      pop\n      jump\t// out\n        /* \"#utility.yul\":1092:1182   */\n    tag_93:\n        /* \"#utility.yul\":1126:1133   */\n      0x00\n        /* \"#utility.yul\":1169:1174   */\n      dup2\n        /* \"#utility.yul\":1162:1175   */\n      iszero\n        /* \"#utility.yul\":1155:1176   */\n      iszero\n        /* \"#utility.yul\":1144:1176   */\n      swap1\n      pop\n        /* \"#utility.yul\":1092:1182   */\n      swap2\n      swap1\n      pop\n      jump\t// out\n        /* \"#utility.yul\":1188:1297   */\n    tag_94:\n        /* \"#utility.yul\":1269:1290   */\n      tag_118\n        /* \"#utility.yul\":1284:1289   */\n      dup2\n        /* \"#utility.yul\":1269:1290   */\n      tag_93\n      jump\t// in\n    tag_118:\n        /* \"#utility.yul\":1264:1267   */\n      dup3\n        /* \"#utility.yul\":1257:1291   */\n      mstore\n        /* \"#utility.yul\":1188:1297   */\n      pop\n      pop\n      jump\t// out\n        /* \"#utility.yul\":1303:1513   */\n    tag_33:\n        /* \"#utility.yul\":1390:1394   */\n      0x00\n        /* \"#utility.yul\":1428:1430   */\n      0x20\n        /* \"#utility.yul\":1417:1426   */\n      dup3\n        /* \"#utility.yul\":1413:1431   */\n      add\n        /* \"#utility.yul\":1405:1431   */\n      swap1\n      pop\n        /* \"#utility.yul\":1441:1506   */\n      tag_120\n        /* \"#utility.yul\":1503:1504   */\n      0x00\n        /* \"#utility.yul\":1492:1501   */\n      dup4\n        /* \"#utility.yul\":1488:1505   */\n      add\n        /* \"#utility.yul\":1479:1485   */\n      dup5\n        /* \"#utility.yul\":1441:1506   */\n      tag_94\n      jump\t// in\n    tag_120:\n        /* \"#utility.yul\":1303:1513   */\n      swap3\n      swap2\n      pop\n      pop\n      jump\t// out\n        /* \"#utility.yul\":1600:1717   */\n    tag_96:\n        /* \"#utility.yul\":1709:1710   */\n      0x00\n        /* \"#utility.yul\":1706:1707   */\n      dup1\n        /* \"#utility.yul\":1699:1711   */\n      revert\n        /* \"#utility.yul\":1846:1942   */\n    tag_98:\n        /* \"#utility.yul\":1883:1890   */\n      0x00\n        /* \"#utility.yul\":1912:1936   */\n      tag_125\n        /* \"#utility.yul\":1930:1935   */\n      dup3\n        /* \"#utility.yul\":1912:1936   */\n      tag_90\n      jump\t// in\n    tag_125:\n        /* \"#utility.yul\":1901:1936   */\n      swap1\n      pop\n        /* \"#utility.yul\":1846:1942   */\n      swap2\n      swap1\n      pop\n      jump\t// out\n        /* \"#utility.yul\":1948:2070   */\n    tag_99:\n        /* \"#utility.yul\":2021:2045   */\n      tag_127\n        /* \"#utility.yul\":2039:2044   */\n      dup2\n        /* \"#utility.yul\":2021:2045   */\n      tag_98\n      jump\t// in\n    tag_127:\n        /* \"#utility.yul\":2014:2019   */\n      dup2\n        /* \"#utility.yul\":2011:2046   */\n      eq\n        /* \"#utility.yul\":2001:2064   */\n      tag_128\n      jumpi\n        /* \"#utility.yul\":2060:2061   */\n      0x00\n        /* \"#utility.yul\":2057:2058   */\n      dup1\n        /* \"#utility.yul\":2050:2062   */\n      revert\n        /* \"#utility.yul\":2001:2064   */\n    tag_128:\n        /* \"#utility.yul\":1948:2070   */\n      pop\n      jump\t// out\n        /* \"#utility.yul\":2076:2215   */\n    tag_100:\n        /* \"#utility.yul\":2122:2127   */\n      0x00\n        /* \"#utility.yul\":2160:2166   */\n      dup2\n        /* \"#utility.yul\":2147:2167   */\n      calldataload\n        /* \"#utility.yul\":2138:2167   */\n      swap1\n      pop\n        /* \"#utility.yul\":2176:2209   */\n      tag_130\n        /* \"#utility.yul\":2203:2208   */\n      dup2\n        /* \"#utility.yul\":2176:2209   */\n      tag_99\n      jump\t// in\n    tag_130:\n        /* \"#utility.yul\":2076:2215   */\n      swap3\n      swap2\n      pop\n      pop\n      jump\t// out\n        /* \"#utility.yul\":2221:2550   */\n    tag_37:\n        /* \"#utility.yul\":2280:2286   */\n      0x00\n        /* \"#utility.yul\":2329:2331   */\n      0x20\n        /* \"#utility.yul\":2317:2326   */\n      dup3\n        /* \"#utility.yul\":2308:2315   */\n      dup5\n        /* \"#utility.yul\":2304:2327   */\n      sub\n        /* \"#utility.yul\":2300:2332   */\n      slt\n        /* \"#utility.yul\":2297:2416   */\n      iszero\n      tag_132\n      jumpi\n        /* \"#utility.yul\":2335:2414   */\n      tag_133\n      tag_96\n      jump\t// in\n    tag_133:\n        /* \"#utility.yul\":2297:2416   */\n    tag_132:\n        /* \"#utility.yul\":2455:2456   */\n      0x00\n        /* \"#utility.yul\":2480:2533   */\n      tag_134\n        /* \"#utility.yul\":2525:2532   */\n      dup5\n        /* \"#utility.yul\":2516:2522   */\n      dup3\n        /* \"#utility.yul\":2505:2514   */\n      dup6\n        /* \"#utility.yul\":2501:2523   */\n      add\n        /* \"#utility.yul\":2480:2533   */\n      tag_100\n      jump\t// in\n    tag_134:\n        /* \"#utility.yul\":2470:2533   */\n      swap2\n      pop\n        /* \"#utility.yul\":2426:2543   */\n      pop\n        /* \"#utility.yul\":2221:2550   */\n      swap3\n      swap2\n      pop\n      pop\n      jump\t// out\n        /* \"#utility.yul\":2556:2674   */\n    tag_101:\n        /* \"#utility.yul\":2643:2667   */\n      tag_136\n        /* \"#utility.yul\":2661:2666   */\n      dup2\n        /* \"#utility.yul\":2643:2667   */\n      tag_98\n      jump\t// in\n    tag_136:\n        /* \"#utility.yul\":2638:2641   */\n      dup3\n        /* \"#utility.yul\":2631:2668   */\n      mstore\n        /* \"#utility.yul\":2556:2674   */\n      pop\n      pop\n      jump\t// out\n        /* \"#utility.yul\":2680:2902   */\n    tag_52:\n        /* \"#utility.yul\":2773:2777   */\n      0x00\n        /* \"#utility.yul\":2811:2813   */\n      0x20\n        /* \"#utility.yul\":2800:2809   */\n      dup3\n        /* \"#utility.yul\":2796:2814   */\n      add\n        /* \"#utility.yul\":2788:2814   */\n      swap1\n      pop\n        /* \"#utility.yul\":2824:2895   */\n      tag_138\n        /* \"#utility.yul\":2892:2893   */\n      0x00\n        /* \"#utility.yul\":2881:2890   */\n      dup4\n        /* \"#utility.yul\":2877:2894   */\n      add\n        /* \"#utility.yul\":2868:2874   */\n      dup5\n        /* \"#utility.yul\":2824:2895   */\n      tag_101\n      jump\t// in\n    tag_138:\n        /* \"#utility.yul\":2680:2902   */\n      swap3\n      swap2\n      pop\n      pop\n      jump\t// out\n        /* \"#utility.yul\":2908:3088   */\n    tag_102:\n        /* \"#utility.yul\":2956:3033   */\n      0x4e487b7100000000000000000000000000000000000000000000000000000000\n        /* \"#utility.yul\":2953:2954   */\n      0x00\n        /* \"#utility.yul\":2946:3034   */\n      mstore\n        /* \"#utility.yul\":3053:3057   */\n      0x11\n        /* \"#utility.yul\":3050:3051   */\n      0x04\n        /* \"#utility.yul\":3043:3058   */\n      mstore\n        /* \"#utility.yul\":3077:3081   */\n      0x24\n        /* \"#utility.yul\":3074:3075   */\n      0x00\n        /* \"#utility.yul\":3067:3082   */\n      revert\n        /* \"#utility.yul\":3094:3285   */\n    tag_69:\n        /* \"#utility.yul\":3134:3137   */\n      0x00\n        /* \"#utility.yul\":3153:3173   */\n      tag_141\n        /* \"#utility.yul\":3171:3172   */\n      dup3\n        /* \"#utility.yul\":3153:3173   */\n      tag_88\n      jump\t// in\n    tag_141:\n        /* \"#utility.yul\":3148:3173   */\n      swap2\n      pop\n        /* \"#utility.yul\":3187:3207   */\n      tag_142\n        /* \"#utility.yul\":3205:3206   */\n      dup4\n        /* \"#utility.yul\":3187:3207   */\n      tag_88\n      jump\t// in\n    tag_142:\n        /* \"#utility.yul\":3182:3207   */\n      swap3\n      pop\n        /* \"#utility.yul\":3230:3231   */\n      dup3\n        /* \"#utility.yul\":3227:3228   */\n      dup3\n        /* \"#utility.yul\":3223:3232   */\n      add\n        /* \"#utility.yul\":3216:3232   */\n      swap1\n      pop\n        /* \"#utility.yul\":3251:3254   */\n      dup1\n        /* \"#utility.yul\":3248:3249   */\n      dup3\n        /* \"#utility.yul\":3245:3255   */\n      gt\n        /* \"#utility.yul\":3242:3278   */\n      iszero\n      tag_143\n      jumpi\n        /* \"#utility.yul\":3258:3276   */\n      tag_144\n      tag_102\n      jump\t// in\n    tag_144:\n        /* \"#utility.yul\":3242:3278   */\n    tag_143:\n        /* \"#utility.yul\":3094:3285   */\n      swap3\n      swap2\n      pop\n      pop\n      jump\t// out\n        /* \"#utility.yul\":3291:3623   */\n    tag_72:\n        /* \"#utility.yul\":3412:3416   */\n      0x00\n        /* \"#utility.yul\":3450:3452   */\n      0x40\n        /* \"#utility.yul\":3439:3448   */\n      dup3\n        /* \"#utility.yul\":3435:3453   */\n      add\n        /* \"#utility.yul\":3427:3453   */\n      swap1\n      pop\n        /* \"#utility.yul\":3463:3534   */\n      tag_146\n        /* \"#utility.yul\":3531:3532   */\n      0x00\n        /* \"#utility.yul\":3520:3529   */\n      dup4\n        /* \"#utility.yul\":3516:3533   */\n      add\n        /* \"#utility.yul\":3507:3513   */\n      dup6\n        /* \"#utility.yul\":3463:3534   */\n      tag_101\n      jump\t// in\n    tag_146:\n        /* \"#utility.yul\":3544:3616   */\n      tag_147\n        /* \"#utility.yul\":3612:3614   */\n      0x20\n        /* \"#utility.yul\":3601:3610   */\n      dup4\n        /* \"#utility.yul\":3597:3615   */\n      add\n        /* \"#utility.yul\":3588:3594   */\n      dup5\n        /* \"#utility.yul\":3544:3616   */\n      tag_89\n      jump\t// in\n    tag_147:\n        /* \"#utility.yul\":3291:3623   */\n      swap4\n      swap3\n      pop\n      pop\n      pop\n      jump\t// out\n\n    auxdata: 0xa2646970667358221220164256ae6baebb67eebed73e72ebc38c9dc5ab3c47d91eb7e9de4179d978099c64736f6c63430008130033\n}\n",
				"bytecode": {
					"linkReferences": {},
					"object": "60806040523480156200001157600080fd5b5060405162000e5238038062000e52833981810160405281019062000037919062000172565b826000806101000a81548173ffffffffffffffffffffffffffffffffffffffff021916908373ffffffffffffffffffffffffffffffffffffffff160217905550834262000085919062000213565b600181905550670de0b6b3a764000082620000a191906200024e565b600281905550670de0b6b3a764000081620000bd91906200024e565b6003819055505050505062000299565b600080fd5b6000819050919050565b620000e781620000d2565b8114620000f357600080fd5b50565b6000815190506200010781620000dc565b92915050565b600073ffffffffffffffffffffffffffffffffffffffff82169050919050565b60006200013a826200010d565b9050919050565b6200014c816200012d565b81146200015857600080fd5b50565b6000815190506200016c8162000141565b92915050565b600080600080608085870312156200018f576200018e620000cd565b5b60006200019f87828801620000f6565b9450506020620001b2878288016200015b565b9350506040620001c587828801620000f6565b9250506060620001d887828801620000f6565b91505092959194509250565b7f4e487b7100000000000000000000000000000000000000000000000000000000600052601160045260246000fd5b60006200022082620000d2565b91506200022d83620000d2565b9250828201905080821115620002485762000247620001e4565b5b92915050565b60006200025b82620000d2565b91506200026883620000d2565b92508282026200027881620000d2565b91508282048414831517620002925762000291620001e4565b5b5092915050565b610ba980620002a96000396000f3fe60806040526004361061009c5760003560e01c80633d087c2c116100645780633d087c2c146101435780634b449cba14610180578063853828b6146101ab57806391f90157146101d6578063be29b05614610201578063d57bde791461022c5761009c565b80630e8670e0146100a15780631998aeef146100cc5780632a24f46c146100d657806338af3eed146100ed5780633ccfd60b14610118575b600080fd5b3480156100ad57600080fd5b506100b6610257565b6040516100c391906109a0565b60405180910390f35b6100d461025d565b005b3480156100e257600080fd5b506100eb610534565b005b3480156100f957600080fd5b5061010261069a565b60405161010f91906109fc565b60405180910390f35b34801561012457600080fd5b5061012d6106be565b60405161013a9190610a32565b60405180910390f35b34801561014f57600080fd5b5061016a60048036038101906101659190610a90565b6107e2565b60405161017791906109a0565b60405180910390f35b34801561018c57600080fd5b5061019561082b565b6040516101a291906109a0565b60405180910390f35b3480156101b757600080fd5b506101c0610831565b6040516101cd9190610a32565b60405180910390f35b3480156101e257600080fd5b506101eb610955565b6040516101f89190610acc565b60405180910390f35b34801561020d57600080fd5b5061021661097b565b60405161022391906109a0565b60405180910390f35b34801561023857600080fd5b50610241610981565b60405161024e91906109a0565b60405180910390f35b60035481565b600154421115610299576040517fd02e774d00000000000000000000000000000000000000000000000000000000815260040160405180910390fd5b60055434116102e1576005546040517f4e12c1bb0000000000000000000000000000000000000000000000000000000081526004016102d891906109a0565b60405180910390fd5b60025434101561031d576040517f6f1465ea00000000000000000000000000000000000000000000000000000000815260040160405180910390fd5b600354341115610359576040517faa43d3f300000000000000000000000000000000000000000000000000000000815260040160405180910390fd5b6000600554146103de5760055460066000600460009054906101000a900473ffffffffffffffffffffffffffffffffffffffff1673ffffffffffffffffffffffffffffffffffffffff1673ffffffffffffffffffffffffffffffffffffffff16815260200190815260200160002060008282546103d69190610b16565b925050819055505b33600460006101000a81548173ffffffffffffffffffffffffffffffffffffffff021916908373ffffffffffffffffffffffffffffffffffffffff1602179055503460066000600460009054906101000a900473ffffffffffffffffffffffffffffffffffffffff1673ffffffffffffffffffffffffffffffffffffffff1673ffffffffffffffffffffffffffffffffffffffff1681526020019081526020016000205461048c9190610b16565b600581905550600060066000600460009054906101000a900473ffffffffffffffffffffffffffffffffffffffff1673ffffffffffffffffffffffffffffffffffffffff1673ffffffffffffffffffffffffffffffffffffffff168152602001908152602001600020819055507ff4757a49b326036464bec6fe419a4ae38c8a02ce3e68bf0809674f6aab8ad300333460405161052a929190610b4a565b60405180910390a1565b600154421015610570576040517f44cee29000000000000000000000000000000000000000000000000000000000815260040160405180910390fd5b600860009054906101000a900460ff16156105b7576040517f61cfdcf800000000000000000000000000000000000000000000000000000000815260040160405180910390fd5b6001600860006101000a81548160ff0219169083151502179055507fdaec4582d5d9595688c8c98545fdd1c696d41c6aeaeb636737e84ed2f5c00eda600460009054906101000a900473ffffffffffffffffffffffffffffffffffffffff16600554604051610627929190610b4a565b60405180910390a160008054906101000a900473ffffffffffffffffffffffffffffffffffffffff1673ffffffffffffffffffffffffffffffffffffffff166108fc6005549081150290604051600060405180830381858888f19350505050158015610697573d6000803e3d6000fd5b50565b60008054906101000a900473ffffffffffffffffffffffffffffffffffffffff1681565b600080600660003373ffffffffffffffffffffffffffffffffffffffff1673ffffffffffffffffffffffffffffffffffffffff16815260200190815260200160002054905060008111156107d9576000600660003373ffffffffffffffffffffffffffffffffffffffff1673ffffffffffffffffffffffffffffffffffffffff168152602001908152602001600020819055503373ffffffffffffffffffffffffffffffffffffffff166108fc829081150290604051600060405180830381858888f193505050506107d85780600660003373ffffffffffffffffffffffffffffffffffffffff1673ffffffffffffffffffffffffffffffffffffffff1681526020019081526020016000208190555060009150506107df565b5b60019150505b90565b6000600660008373ffffffffffffffffffffffffffffffffffffffff1673ffffffffffffffffffffffffffffffffffffffff168152602001908152602001600020549050919050565b60015481565b600080600660003373ffffffffffffffffffffffffffffffffffffffff1673ffffffffffffffffffffffffffffffffffffffff168152602001908152602001600020549050600081111561094c576000600660003373ffffffffffffffffffffffffffffffffffffffff1673ffffffffffffffffffffffffffffffffffffffff168152602001908152602001600020819055503373ffffffffffffffffffffffffffffffffffffffff166108fc829081150290604051600060405180830381858888f1935050505061094b5780600660003373ffffffffffffffffffffffffffffffffffffffff1673ffffffffffffffffffffffffffffffffffffffff168152602001908152602001600020819055506000915050610952565b5b60019150505b90565b600460009054906101000a900473ffffffffffffffffffffffffffffffffffffffff1681565b60025481565b60055481565b6000819050919050565b61099a81610987565b82525050565b60006020820190506109b56000830184610991565b92915050565b600073ffffffffffffffffffffffffffffffffffffffff82169050919050565b60006109e6826109bb565b9050919050565b6109f6816109db565b82525050565b6000602082019050610a1160008301846109ed565b92915050565b60008115159050919050565b610a2c81610a17565b82525050565b6000602082019050610a476000830184610a23565b92915050565b600080fd5b6000610a5d826109bb565b9050919050565b610a6d81610a52565b8114610a7857600080fd5b50565b600081359050610a8a81610a64565b92915050565b600060208284031215610aa657610aa5610a4d565b5b6000610ab484828501610a7b565b91505092915050565b610ac681610a52565b82525050565b6000602082019050610ae16000830184610abd565b92915050565b7f4e487b7100000000000000000000000000000000000000000000000000000000600052601160045260246000fd5b6000610b2182610987565b9150610b2c83610987565b9250828201905080821115610b4457610b43610ae7565b5b92915050565b6000604082019050610b5f6000830185610abd565b610b6c6020830184610991565b939250505056fea2646970667358221220164256ae6baebb67eebed73e72ebc38c9dc5ab3c47d91eb7e9de4179d978099c64736f6c63430008130033",
					"opcodes": "PUSH1 0x80 PUSH1 0x40 MSTORE CALLVALUE DUP1 ISZERO PUSH3 0x11 JUMPI PUSH1 0x0 DUP1 REVERT JUMPDEST POP PUSH1 0x40 MLOAD PUSH3 0xE52 CODESIZE SUB DUP1 PUSH3 0xE52 DUP4 CODECOPY DUP2 DUP2 ADD PUSH1 0x40 MSTORE DUP2 ADD SWAP1 PUSH3 0x37 SWAP2 SWAP1 PUSH3 0x172 JUMP JUMPDEST DUP3 PUSH1 0x0 DUP1 PUSH2 0x100 EXP DUP2 SLOAD DUP2 PUSH20 0xFFFFFFFFFFFFFFFFFFFFFFFFFFFFFFFFFFFFFFFF MUL NOT AND SWAP1 DUP4 PUSH20 0xFFFFFFFFFFFFFFFFFFFFFFFFFFFFFFFFFFFFFFFF AND MUL OR SWAP1 SSTORE POP DUP4 TIMESTAMP PUSH3 0x85 SWAP2 SWAP1 PUSH3 0x213 JUMP JUMPDEST PUSH1 0x1 DUP2 SWAP1 SSTORE POP PUSH8 0xDE0B6B3A7640000 DUP3 PUSH3 0xA1 SWAP2 SWAP1 PUSH3 0x24E JUMP JUMPDEST PUSH1 0x2 DUP2 SWAP1 SSTORE POP PUSH8 0xDE0B6B3A7640000 DUP2 PUSH3 0xBD SWAP2 SWAP1 PUSH3 0x24E JUMP JUMPDEST PUSH1 0x3 DUP2 SWAP1 SSTORE POP POP POP POP POP PUSH3 0x299 JUMP JUMPDEST PUSH1 0x0 DUP1 REVERT JUMPDEST PUSH1 0x0 DUP2 SWAP1 POP SWAP2 SWAP1 POP JUMP JUMPDEST PUSH3 0xE7 DUP2 PUSH3 0xD2 JUMP JUMPDEST DUP2 EQ PUSH3 0xF3 JUMPI PUSH1 0x0 DUP1 REVERT JUMPDEST POP JUMP JUMPDEST PUSH1 0x0 DUP2 MLOAD SWAP1 POP PUSH3 0x107 DUP2 PUSH3 0xDC JUMP JUMPDEST SWAP3 SWAP2 POP POP JUMP JUMPDEST PUSH1 0x0 PUSH20 0xFFFFFFFFFFFFFFFFFFFFFFFFFFFFFFFFFFFFFFFF DUP3 AND SWAP1 POP SWAP2 SWAP1 POP JUMP JUMPDEST PUSH1 0x0 PUSH3 0x13A DUP3 PUSH3 0x10D JUMP JUMPDEST SWAP1 POP SWAP2 SWAP1 POP JUMP JUMPDEST PUSH3 0x14C DUP2 PUSH3 0x12D JUMP JUMPDEST DUP2 EQ PUSH3 0x158 JUMPI PUSH1 0x0 DUP1 REVERT JUMPDEST POP JUMP JUMPDEST PUSH1 0x0 DUP2 MLOAD SWAP1 POP PUSH3 0x16C DUP2 PUSH3 0x141 JUMP JUMPDEST SWAP3 SWAP2 POP POP JUMP JUMPDEST PUSH1 0x0 DUP1 PUSH1 0x0 DUP1 PUSH1 0x80 DUP6 DUP8 SUB SLT ISZERO PUSH3 0x18F JUMPI PUSH3 0x18E PUSH3 0xCD JUMP JUMPDEST JUMPDEST PUSH1 0x0 PUSH3 0x19F DUP8 DUP3 DUP9 ADD PUSH3 0xF6 JUMP JUMPDEST SWAP5 POP POP PUSH1 0x20 PUSH3 0x1B2 DUP8 DUP3 DUP9 ADD PUSH3 0x15B JUMP JUMPDEST SWAP4 POP POP PUSH1 0x40 PUSH3 0x1C5 DUP8 DUP3 DUP9 ADD PUSH3 0xF6 JUMP JUMPDEST SWAP3 POP POP PUSH1 0x60 PUSH3 0x1D8 DUP8 DUP3 DUP9 ADD PUSH3 0xF6 JUMP JUMPDEST SWAP2 POP POP SWAP3 SWAP6 SWAP2 SWAP5 POP SWAP3 POP JUMP JUMPDEST PUSH32 0x4E487B7100000000000000000000000000000000000000000000000000000000 PUSH1 0x0 MSTORE PUSH1 0x11 PUSH1 0x4 MSTORE PUSH1 0x24 PUSH1 0x0 REVERT JUMPDEST PUSH1 0x0 PUSH3 0x220 DUP3 PUSH3 0xD2 JUMP JUMPDEST SWAP2 POP PUSH3 0x22D DUP4 PUSH3 0xD2 JUMP JUMPDEST SWAP3 POP DUP3 DUP3 ADD SWAP1 POP DUP1 DUP3 GT ISZERO PUSH3 0x248 JUMPI PUSH3 0x247 PUSH3 0x1E4 JUMP JUMPDEST JUMPDEST SWAP3 SWAP2 POP POP JUMP JUMPDEST PUSH1 0x0 PUSH3 0x25B DUP3 PUSH3 0xD2 JUMP JUMPDEST SWAP2 POP PUSH3 0x268 DUP4 PUSH3 0xD2 JUMP JUMPDEST SWAP3 POP DUP3 DUP3 MUL PUSH3 0x278 DUP2 PUSH3 0xD2 JUMP JUMPDEST SWAP2 POP DUP3 DUP3 DIV DUP5 EQ DUP4 ISZERO OR PUSH3 0x292 JUMPI PUSH3 0x291 PUSH3 0x1E4 JUMP JUMPDEST JUMPDEST POP SWAP3 SWAP2 POP POP JUMP JUMPDEST PUSH2 0xBA9 DUP1 PUSH3 0x2A9 PUSH1 0x0 CODECOPY PUSH1 0x0 RETURN INVALID PUSH1 0x80 PUSH1 0x40 MSTORE PUSH1 0x4 CALLDATASIZE LT PUSH2 0x9C JUMPI PUSH1 0x0 CALLDATALOAD PUSH1 0xE0 SHR DUP1 PUSH4 0x3D087C2C GT PUSH2 0x64 JUMPI DUP1 PUSH4 0x3D087C2C EQ PUSH2 0x143 JUMPI DUP1 PUSH4 0x4B449CBA EQ PUSH2 0x180 JUMPI DUP1 PUSH4 0x853828B6 EQ PUSH2 0x1AB JUMPI DUP1 PUSH4 0x91F90157 EQ PUSH2 0x1D6 JUMPI DUP1 PUSH4 0xBE29B056 EQ PUSH2 0x201 JUMPI DUP1 PUSH4 0xD57BDE79 EQ PUSH2 0x22C JUMPI PUSH2 0x9C JUMP JUMPDEST DUP1 PUSH4 0xE8670E0 EQ PUSH2 0xA1 JUMPI DUP1 PUSH4 0x1998AEEF EQ PUSH2 0xCC JUMPI DUP1 PUSH4 0x2A24F46C EQ PUSH2 0xD6 JUMPI DUP1 PUSH4 0x38AF3EED EQ PUSH2 0xED JUMPI DUP1 PUSH4 0x3CCFD60B EQ PUSH2 0x118 JUMPI JUMPDEST PUSH1 0x0 DUP1 REVERT JUMPDEST CALLVALUE DUP1 ISZERO PUSH2 0xAD JUMPI PUSH1 0x0 DUP1 REVERT JUMPDEST POP PUSH2 0xB6 PUSH2 0x257 JUMP JUMPDEST PUSH1 0x40 MLOAD PUSH2 0xC3 SWAP2 SWAP1 PUSH2 0x9A0 JUMP JUMPDEST PUSH1 0x40 MLOAD DUP1 SWAP2 SUB SWAP1 RETURN JUMPDEST PUSH2 0xD4 PUSH2 0x25D JUMP JUMPDEST STOP JUMPDEST CALLVALUE DUP1 ISZERO PUSH2 0xE2 JUMPI PUSH1 0x0 DUP1 REVERT JUMPDEST POP PUSH2 0xEB PUSH2 0x534 JUMP JUMPDEST STOP JUMPDEST CALLVALUE DUP1 ISZERO PUSH2 0xF9 JUMPI PUSH1 0x0 DUP1 REVERT JUMPDEST POP PUSH2 0x102 PUSH2 0x69A JUMP JUMPDEST PUSH1 0x40 MLOAD PUSH2 0x10F SWAP2 SWAP1 PUSH2 0x9FC JUMP JUMPDEST PUSH1 0x40 MLOAD DUP1 SWAP2 SUB SWAP1 RETURN JUMPDEST CALLVALUE DUP1 ISZERO PUSH2 0x124 JUMPI PUSH1 0x0 DUP1 REVERT JUMPDEST POP PUSH2 0x12D PUSH2 0x6BE JUMP JUMPDEST PUSH1 0x40 MLOAD PUSH2 0x13A SWAP2 SWAP1 PUSH2 0xA32 JUMP JUMPDEST PUSH1 0x40 MLOAD DUP1 SWAP2 SUB SWAP1 RETURN JUMPDEST CALLVALUE DUP1 ISZERO PUSH2 0x14F JUMPI PUSH1 0x0 DUP1 REVERT JUMPDEST POP PUSH2 0x16A PUSH1 0x4 DUP1 CALLDATASIZE SUB DUP2 ADD SWAP1 PUSH2 0x165 SWAP2 SWAP1 PUSH2 0xA90 JUMP JUMPDEST PUSH2 0x7E2 JUMP JUMPDEST PUSH1 0x40 MLOAD PUSH2 0x177 SWAP2 SWAP1 PUSH2 0x9A0 JUMP JUMPDEST PUSH1 0x40 MLOAD DUP1 SWAP2 SUB SWAP1 RETURN JUMPDEST CALLVALUE DUP1 ISZERO PUSH2 0x18C JUMPI PUSH1 0x0 DUP1 REVERT JUMPDEST POP PUSH2 0x195 PUSH2 0x82B JUMP JUMPDEST PUSH1 0x40 MLOAD PUSH2 0x1A2 SWAP2 SWAP1 PUSH2 0x9A0 JUMP JUMPDEST PUSH1 0x40 MLOAD DUP1 SWAP2 SUB SWAP1 RETURN JUMPDEST CALLVALUE DUP1 ISZERO PUSH2 0x1B7 JUMPI PUSH1 0x0 DUP1 REVERT JUMPDEST POP PUSH2 0x1C0 PUSH2 0x831 JUMP JUMPDEST PUSH1 0x40 MLOAD PUSH2 0x1CD SWAP2 SWAP1 PUSH2 0xA32 JUMP JUMPDEST PUSH1 0x40 MLOAD DUP1 SWAP2 SUB SWAP1 RETURN JUMPDEST CALLVALUE DUP1 ISZERO PUSH2 0x1E2 JUMPI PUSH1 0x0 DUP1 REVERT JUMPDEST POP PUSH2 0x1EB PUSH2 0x955 JUMP JUMPDEST PUSH1 0x40 MLOAD PUSH2 0x1F8 SWAP2 SWAP1 PUSH2 0xACC JUMP JUMPDEST PUSH1 0x40 MLOAD DUP1 SWAP2 SUB SWAP1 RETURN JUMPDEST CALLVALUE DUP1 ISZERO PUSH2 0x20D JUMPI PUSH1 0x0 DUP1 REVERT JUMPDEST POP PUSH2 0x216 PUSH2 0x97B JUMP JUMPDEST PUSH1 0x40 MLOAD PUSH2 0x223 SWAP2 SWAP1 PUSH2 0x9A0 JUMP JUMPDEST PUSH1 0x40 MLOAD DUP1 SWAP2 SUB SWAP1 RETURN JUMPDEST CALLVALUE DUP1 ISZERO PUSH2 0x238 JUMPI PUSH1 0x0 DUP1 REVERT JUMPDEST POP PUSH2 0x241 PUSH2 0x981 JUMP JUMPDEST PUSH1 0x40 MLOAD PUSH2 0x24E SWAP2 SWAP1 PUSH2 0x9A0 JUMP JUMPDEST PUSH1 0x40 MLOAD DUP1 SWAP2 SUB SWAP1 RETURN JUMPDEST PUSH1 0x3 SLOAD DUP2 JUMP JUMPDEST PUSH1 0x1 SLOAD TIMESTAMP GT ISZERO PUSH2 0x299 JUMPI PUSH1 0x40 MLOAD PUSH32 0xD02E774D00000000000000000000000000000000000000000000000000000000 DUP2 MSTORE PUSH1 0x4 ADD PUSH1 0x40 MLOAD DUP1 SWAP2 SUB SWAP1 REVERT JUMPDEST PUSH1 0x5 SLOAD CALLVALUE GT PUSH2 0x2E1 JUMPI PUSH1 0x5 SLOAD PUSH1 0x40 MLOAD PUSH32 0x4E12C1BB00000000000000000000000000000000000000000000000000000000 DUP2 MSTORE PUSH1 0x4 ADD PUSH2 0x2D8 SWAP2 SWAP1 PUSH2 0x9A0 JUMP JUMPDEST PUSH1 0x40 MLOAD DUP1 SWAP2 SUB SWAP1 REVERT JUMPDEST PUSH1 0x2 SLOAD CALLVALUE LT ISZERO PUSH2 0x31D JUMPI PUSH1 0x40 MLOAD PUSH32 0x6F1465EA00000000000000000000000000000000000000000000000000000000 DUP2 MSTORE PUSH1 0x4 ADD PUSH1 0x40 MLOAD DUP1 SWAP2 SUB SWAP1 REVERT JUMPDEST PUSH1 0x3 SLOAD CALLVALUE GT ISZERO PUSH2 0x359 JUMPI PUSH1 0x40 MLOAD PUSH32 0xAA43D3F300000000000000000000000000000000000000000000000000000000 DUP2 MSTORE PUSH1 0x4 ADD PUSH1 0x40 MLOAD DUP1 SWAP2 SUB SWAP1 REVERT JUMPDEST PUSH1 0x0 PUSH1 0x5 SLOAD EQ PUSH2 0x3DE JUMPI PUSH1 0x5 SLOAD PUSH1 0x6 PUSH1 0x0 PUSH1 0x4 PUSH1 0x0 SWAP1 SLOAD SWAP1 PUSH2 0x100 EXP SWAP1 DIV PUSH20 0xFFFFFFFFFFFFFFFFFFFFFFFFFFFFFFFFFFFFFFFF AND PUSH20 0xFFFFFFFFFFFFFFFFFFFFFFFFFFFFFFFFFFFFFFFF AND PUSH20 0xFFFFFFFFFFFFFFFFFFFFFFFFFFFFFFFFFFFFFFFF AND DUP2 MSTORE PUSH1 0x20 ADD SWAP1 DUP2 MSTORE PUSH1 0x20 ADD PUSH1 0x0 KECCAK256 PUSH1 0x0 DUP3 DUP3 SLOAD PUSH2 0x3D6 SWAP2 SWAP1 PUSH2 0xB16 JUMP JUMPDEST SWAP3 POP POP DUP2 SWAP1 SSTORE POP JUMPDEST CALLER PUSH1 0x4 PUSH1 0x0 PUSH2 0x100 EXP DUP2 SLOAD DUP2 PUSH20 0xFFFFFFFFFFFFFFFFFFFFFFFFFFFFFFFFFFFFFFFF MUL NOT AND SWAP1 DUP4 PUSH20 0xFFFFFFFFFFFFFFFFFFFFFFFFFFFFFFFFFFFFFFFF AND MUL OR SWAP1 SSTORE POP CALLVALUE PUSH1 0x6 PUSH1 0x0 PUSH1 0x4 PUSH1 0x0 SWAP1 SLOAD SWAP1 PUSH2 0x100 EXP SWAP1 DIV PUSH20 0xFFFFFFFFFFFFFFFFFFFFFFFFFFFFFFFFFFFFFFFF AND PUSH20 0xFFFFFFFFFFFFFFFFFFFFFFFFFFFFFFFFFFFFFFFF AND PUSH20 0xFFFFFFFFFFFFFFFFFFFFFFFFFFFFFFFFFFFFFFFF AND DUP2 MSTORE PUSH1 0x20 ADD SWAP1 DUP2 MSTORE PUSH1 0x20 ADD PUSH1 0x0 KECCAK256 SLOAD PUSH2 0x48C SWAP2 SWAP1 PUSH2 0xB16 JUMP JUMPDEST PUSH1 0x5 DUP2 SWAP1 SSTORE POP PUSH1 0x0 PUSH1 0x6 PUSH1 0x0 PUSH1 0x4 PUSH1 0x0 SWAP1 SLOAD SWAP1 PUSH2 0x100 EXP SWAP1 DIV PUSH20 0xFFFFFFFFFFFFFFFFFFFFFFFFFFFFFFFFFFFFFFFF AND PUSH20 0xFFFFFFFFFFFFFFFFFFFFFFFFFFFFFFFFFFFFFFFF AND PUSH20 0xFFFFFFFFFFFFFFFFFFFFFFFFFFFFFFFFFFFFFFFF AND DUP2 MSTORE PUSH1 0x20 ADD SWAP1 DUP2 MSTORE PUSH1 0x20 ADD PUSH1 0x0 KECCAK256 DUP2 SWAP1 SSTORE POP PUSH32 0xF4757A49B326036464BEC6FE419A4AE38C8A02CE3E68BF0809674F6AAB8AD300 CALLER CALLVALUE PUSH1 0x40 MLOAD PUSH2 0x52A SWAP3 SWAP2 SWAP1 PUSH2 0xB4A JUMP JUMPDEST PUSH1 0x40 MLOAD DUP1 SWAP2 SUB SWAP1 LOG1 JUMP JUMPDEST PUSH1 0x1 SLOAD TIMESTAMP LT ISZERO PUSH2 0x570 JUMPI PUSH1 0x40 MLOAD PUSH32 0x44CEE29000000000000000000000000000000000000000000000000000000000 DUP2 MSTORE PUSH1 0x4 ADD PUSH1 0x40 MLOAD DUP1 SWAP2 SUB SWAP1 REVERT JUMPDEST PUSH1 0x8 PUSH1 0x0 SWAP1 SLOAD SWAP1 PUSH2 0x100 EXP SWAP1 DIV PUSH1 0xFF AND ISZERO PUSH2 0x5B7 JUMPI PUSH1 0x40 MLOAD PUSH32 0x61CFDCF800000000000000000000000000000000000000000000000000000000 DUP2 MSTORE PUSH1 0x4 ADD PUSH1 0x40 MLOAD DUP1 SWAP2 SUB SWAP1 REVERT JUMPDEST PUSH1 0x1 PUSH1 0x8 PUSH1 0x0 PUSH2 0x100 EXP DUP2 SLOAD DUP2 PUSH1 0xFF MUL NOT AND SWAP1 DUP4 ISZERO ISZERO MUL OR SWAP1 SSTORE POP PUSH32 0xDAEC4582D5D9595688C8C98545FDD1C696D41C6AEAEB636737E84ED2F5C00EDA PUSH1 0x4 PUSH1 0x0 SWAP1 SLOAD SWAP1 PUSH2 0x100 EXP SWAP1 DIV PUSH20 0xFFFFFFFFFFFFFFFFFFFFFFFFFFFFFFFFFFFFFFFF AND PUSH1 0x5 SLOAD PUSH1 0x40 MLOAD PUSH2 0x627 SWAP3 SWAP2 SWAP1 PUSH2 0xB4A JUMP JUMPDEST PUSH1 0x40 MLOAD DUP1 SWAP2 SUB SWAP1 LOG1 PUSH1 0x0 DUP1 SLOAD SWAP1 PUSH2 0x100 EXP SWAP1 DIV PUSH20 0xFFFFFFFFFFFFFFFFFFFFFFFFFFFFFFFFFFFFFFFF AND PUSH20 0xFFFFFFFFFFFFFFFFFFFFFFFFFFFFFFFFFFFFFFFF AND PUSH2 0x8FC PUSH1 0x5 SLOAD SWAP1 DUP2 ISZERO MUL SWAP1 PUSH1 0x40 MLOAD PUSH1 0x0 PUSH1 0x40 MLOAD DUP1 DUP4 SUB DUP2 DUP6 DUP9 DUP9 CALL SWAP4 POP POP POP POP ISZERO DUP1 ISZERO PUSH2 0x697 JUMPI RETURNDATASIZE PUSH1 0x0 DUP1 RETURNDATACOPY RETURNDATASIZE PUSH1 0x0 REVERT JUMPDEST POP JUMP JUMPDEST PUSH1 0x0 DUP1 SLOAD SWAP1 PUSH2 0x100 EXP SWAP1 DIV PUSH20 0xFFFFFFFFFFFFFFFFFFFFFFFFFFFFFFFFFFFFFFFF AND DUP2 JUMP JUMPDEST PUSH1 0x0 DUP1 PUSH1 0x6 PUSH1 0x0 CALLER PUSH20 0xFFFFFFFFFFFFFFFFFFFFFFFFFFFFFFFFFFFFFFFF AND PUSH20 0xFFFFFFFFFFFFFFFFFFFFFFFFFFFFFFFFFFFFFFFF AND DUP2 MSTORE PUSH1 0x20 ADD SWAP1 DUP2 MSTORE PUSH1 0x20 ADD PUSH1 0x0 KECCAK256 SLOAD SWAP1 POP PUSH1 0x0 DUP2 GT ISZERO PUSH2 0x7D9 JUMPI PUSH1 0x0 PUSH1 0x6 PUSH1 0x0 CALLER PUSH20 0xFFFFFFFFFFFFFFFFFFFFFFFFFFFFFFFFFFFFFFFF AND PUSH20 0xFFFFFFFFFFFFFFFFFFFFFFFFFFFFFFFFFFFFFFFF AND DUP2 MSTORE PUSH1 0x20 ADD SWAP1 DUP2 MSTORE PUSH1 0x20 ADD PUSH1 0x0 KECCAK256 DUP2 SWAP1 SSTORE POP CALLER PUSH20 0xFFFFFFFFFFFFFFFFFFFFFFFFFFFFFFFFFFFFFFFF AND PUSH2 0x8FC DUP3 SWAP1 DUP2 ISZERO MUL SWAP1 PUSH1 0x40 MLOAD PUSH1 0x0 PUSH1 0x40 MLOAD DUP1 DUP4 SUB DUP2 DUP6 DUP9 DUP9 CALL SWAP4 POP POP POP POP PUSH2 0x7D8 JUMPI DUP1 PUSH1 0x6 PUSH1 0x0 CALLER PUSH20 0xFFFFFFFFFFFFFFFFFFFFFFFFFFFFFFFFFFFFFFFF AND PUSH20 0xFFFFFFFFFFFFFFFFFFFFFFFFFFFFFFFFFFFFFFFF AND DUP2 MSTORE PUSH1 0x20 ADD SWAP1 DUP2 MSTORE PUSH1 0x20 ADD PUSH1 0x0 KECCAK256 DUP2 SWAP1 SSTORE POP PUSH1 0x0 SWAP2 POP POP PUSH2 0x7DF JUMP JUMPDEST JUMPDEST PUSH1 0x1 SWAP2 POP POP JUMPDEST SWAP1 JUMP JUMPDEST PUSH1 0x0 PUSH1 0x6 PUSH1 0x0 DUP4 PUSH20 0xFFFFFFFFFFFFFFFFFFFFFFFFFFFFFFFFFFFFFFFF AND PUSH20 0xFFFFFFFFFFFFFFFFFFFFFFFFFFFFFFFFFFFFFFFF AND DUP2 MSTORE PUSH1 0x20 ADD SWAP1 DUP2 MSTORE PUSH1 0x20 ADD PUSH1 0x0 KECCAK256 SLOAD SWAP1 POP SWAP2 SWAP1 POP JUMP JUMPDEST PUSH1 0x1 SLOAD DUP2 JUMP JUMPDEST PUSH1 0x0 DUP1 PUSH1 0x6 PUSH1 0x0 CALLER PUSH20 0xFFFFFFFFFFFFFFFFFFFFFFFFFFFFFFFFFFFFFFFF AND PUSH20 0xFFFFFFFFFFFFFFFFFFFFFFFFFFFFFFFFFFFFFFFF AND DUP2 MSTORE PUSH1 0x20 ADD SWAP1 DUP2 MSTORE PUSH1 0x20 ADD PUSH1 0x0 KECCAK256 SLOAD SWAP1 POP PUSH1 0x0 DUP2 GT ISZERO PUSH2 0x94C JUMPI PUSH1 0x0 PUSH1 0x6 PUSH1 0x0 CALLER PUSH20 0xFFFFFFFFFFFFFFFFFFFFFFFFFFFFFFFFFFFFFFFF AND PUSH20 0xFFFFFFFFFFFFFFFFFFFFFFFFFFFFFFFFFFFFFFFF AND DUP2 MSTORE PUSH1 0x20 ADD SWAP1 DUP2 MSTORE PUSH1 0x20 ADD PUSH1 0x0 KECCAK256 DUP2 SWAP1 SSTORE POP CALLER PUSH20 0xFFFFFFFFFFFFFFFFFFFFFFFFFFFFFFFFFFFFFFFF AND PUSH2 0x8FC DUP3 SWAP1 DUP2 ISZERO MUL SWAP1 PUSH1 0x40 MLOAD PUSH1 0x0 PUSH1 0x40 MLOAD DUP1 DUP4 SUB DUP2 DUP6 DUP9 DUP9 CALL SWAP4 POP POP POP POP PUSH2 0x94B JUMPI DUP1 PUSH1 0x6 PUSH1 0x0 CALLER PUSH20 0xFFFFFFFFFFFFFFFFFFFFFFFFFFFFFFFFFFFFFFFF AND PUSH20 0xFFFFFFFFFFFFFFFFFFFFFFFFFFFFFFFFFFFFFFFF AND DUP2 MSTORE PUSH1 0x20 ADD SWAP1 DUP2 MSTORE PUSH1 0x20 ADD PUSH1 0x0 KECCAK256 DUP2 SWAP1 SSTORE POP PUSH1 0x0 SWAP2 POP POP PUSH2 0x952 JUMP JUMPDEST JUMPDEST PUSH1 0x1 SWAP2 POP POP JUMPDEST SWAP1 JUMP JUMPDEST PUSH1 0x4 PUSH1 0x0 SWAP1 SLOAD SWAP1 PUSH2 0x100 EXP SWAP1 DIV PUSH20 0xFFFFFFFFFFFFFFFFFFFFFFFFFFFFFFFFFFFFFFFF AND DUP2 JUMP JUMPDEST PUSH1 0x2 SLOAD DUP2 JUMP JUMPDEST PUSH1 0x5 SLOAD DUP2 JUMP JUMPDEST PUSH1 0x0 DUP2 SWAP1 POP SWAP2 SWAP1 POP JUMP JUMPDEST PUSH2 0x99A DUP2 PUSH2 0x987 JUMP JUMPDEST DUP3 MSTORE POP POP JUMP JUMPDEST PUSH1 0x0 PUSH1 0x20 DUP3 ADD SWAP1 POP PUSH2 0x9B5 PUSH1 0x0 DUP4 ADD DUP5 PUSH2 0x991 JUMP JUMPDEST SWAP3 SWAP2 POP POP JUMP JUMPDEST PUSH1 0x0 PUSH20 0xFFFFFFFFFFFFFFFFFFFFFFFFFFFFFFFFFFFFFFFF DUP3 AND SWAP1 POP SWAP2 SWAP1 POP JUMP JUMPDEST PUSH1 0x0 PUSH2 0x9E6 DUP3 PUSH2 0x9BB JUMP JUMPDEST SWAP1 POP SWAP2 SWAP1 POP JUMP JUMPDEST PUSH2 0x9F6 DUP2 PUSH2 0x9DB JUMP JUMPDEST DUP3 MSTORE POP POP JUMP JUMPDEST PUSH1 0x0 PUSH1 0x20 DUP3 ADD SWAP1 POP PUSH2 0xA11 PUSH1 0x0 DUP4 ADD DUP5 PUSH2 0x9ED JUMP JUMPDEST SWAP3 SWAP2 POP POP JUMP JUMPDEST PUSH1 0x0 DUP2 ISZERO ISZERO SWAP1 POP SWAP2 SWAP1 POP JUMP JUMPDEST PUSH2 0xA2C DUP2 PUSH2 0xA17 JUMP JUMPDEST DUP3 MSTORE POP POP JUMP JUMPDEST PUSH1 0x0 PUSH1 0x20 DUP3 ADD SWAP1 POP PUSH2 0xA47 PUSH1 0x0 DUP4 ADD DUP5 PUSH2 0xA23 JUMP JUMPDEST SWAP3 SWAP2 POP POP JUMP JUMPDEST PUSH1 0x0 DUP1 REVERT JUMPDEST PUSH1 0x0 PUSH2 0xA5D DUP3 PUSH2 0x9BB JUMP JUMPDEST SWAP1 POP SWAP2 SWAP1 POP JUMP JUMPDEST PUSH2 0xA6D DUP2 PUSH2 0xA52 JUMP JUMPDEST DUP2 EQ PUSH2 0xA78 JUMPI PUSH1 0x0 DUP1 REVERT JUMPDEST POP JUMP JUMPDEST PUSH1 0x0 DUP2 CALLDATALOAD SWAP1 POP PUSH2 0xA8A DUP2 PUSH2 0xA64 JUMP JUMPDEST SWAP3 SWAP2 POP POP JUMP JUMPDEST PUSH1 0x0 PUSH1 0x20 DUP3 DUP5 SUB SLT ISZERO PUSH2 0xAA6 JUMPI PUSH2 0xAA5 PUSH2 0xA4D JUMP JUMPDEST JUMPDEST PUSH1 0x0 PUSH2 0xAB4 DUP5 DUP3 DUP6 ADD PUSH2 0xA7B JUMP JUMPDEST SWAP2 POP POP SWAP3 SWAP2 POP POP JUMP JUMPDEST PUSH2 0xAC6 DUP2 PUSH2 0xA52 JUMP JUMPDEST DUP3 MSTORE POP POP JUMP JUMPDEST PUSH1 0x0 PUSH1 0x20 DUP3 ADD SWAP1 POP PUSH2 0xAE1 PUSH1 0x0 DUP4 ADD DUP5 PUSH2 0xABD JUMP JUMPDEST SWAP3 SWAP2 POP POP JUMP JUMPDEST PUSH32 0x4E487B7100000000000000000000000000000000000000000000000000000000 PUSH1 0x0 MSTORE PUSH1 0x11 PUSH1 0x4 MSTORE PUSH1 0x24 PUSH1 0x0 REVERT JUMPDEST PUSH1 0x0 PUSH2 0xB21 DUP3 PUSH2 0x987 JUMP JUMPDEST SWAP2 POP PUSH2 0xB2C DUP4 PUSH2 0x987 JUMP JUMPDEST SWAP3 POP DUP3 DUP3 ADD SWAP1 POP DUP1 DUP3 GT ISZERO PUSH2 0xB44 JUMPI PUSH2 0xB43 PUSH2 0xAE7 JUMP JUMPDEST JUMPDEST SWAP3 SWAP2 POP POP JUMP JUMPDEST PUSH1 0x0 PUSH1 0x40 DUP3 ADD SWAP1 POP PUSH2 0xB5F PUSH1 0x0 DUP4 ADD DUP6 PUSH2 0xABD JUMP JUMPDEST PUSH2 0xB6C PUSH1 0x20 DUP4 ADD DUP5 PUSH2 0x991 JUMP JUMPDEST SWAP4 SWAP3 POP POP POP JUMP INVALID LOG2 PUSH5 0x6970667358 0x22 SLT KECCAK256 AND TIMESTAMP JUMP 0xAE PUSH12 0xAEBB67EEBED73E72EBC38C9D 0xC5 0xAB EXTCODECOPY SELFBALANCE 0xD9 0x1E 0xB7 0xE9 0xDE COINBASE PUSH26 0xD978099C64736F6C634300081300330000000000000000000000 "
				},
				"gasEstimates": {
					"creation": {
						"codeDepositCost": "597000",
						"executionCost": "infinite",
						"totalCost": "infinite"
					},
					"external": {
						"auctionEnd()": "infinite",
						"auctionEndTime()": "2451",
						"beneficiary()": "2578",
						"bid()": "infinite",
						"getCurrrentBid(address)": "2841",
						"highestBid()": "2539",
						"highestBidder()": "2580",
						"highestPrice()": "2430",
						"lowestPrice()": "2517",
						"withdraw()": "infinite",
						"withdrawAll()": "infinite"
					}
				},
				"methodIdentifiers": {
					"auctionEnd()": "2a24f46c",
					"auctionEndTime()": "4b449cba",
					"beneficiary()": "38af3eed",
					"bid()": "1998aeef",
					"getCurrrentBid(address)": "3d087c2c",
					"highestBid()": "d57bde79",
					"highestBidder()": "91f90157",
					"highestPrice()": "0e8670e0",
					"lowestPrice()": "be29b056",
					"withdraw()": "3ccfd60b",
					"withdrawAll()": "853828b6"
				}
			},
			"storageLayout": {
				"storage": [
					{
						"astId": 3,
						"contract": "SimpleAuction.sol:SimpleAuction",
						"label": "beneficiary",
						"offset": 0,
						"slot": "0",
						"type": "t_address_payable"
					},
					{
						"astId": 5,
						"contract": "SimpleAuction.sol:SimpleAuction",
						"label": "auctionEndTime",
						"offset": 0,
						"slot": "1",
						"type": "t_uint256"
					},
					{
						"astId": 7,
						"contract": "SimpleAuction.sol:SimpleAuction",
						"label": "lowestPrice",
						"offset": 0,
						"slot": "2",
						"type": "t_uint256"
					},
					{
						"astId": 9,
						"contract": "SimpleAuction.sol:SimpleAuction",
						"label": "highestPrice",
						"offset": 0,
						"slot": "3",
						"type": "t_uint256"
					},
					{
						"astId": 11,
						"contract": "SimpleAuction.sol:SimpleAuction",
						"label": "highestBidder",
						"offset": 0,
						"slot": "4",
						"type": "t_address"
					},
					{
						"astId": 13,
						"contract": "SimpleAuction.sol:SimpleAuction",
						"label": "highestBid",
						"offset": 0,
						"slot": "5",
						"type": "t_uint256"
					},
					{
						"astId": 17,
						"contract": "SimpleAuction.sol:SimpleAuction",
						"label": "pendingReturns",
						"offset": 0,
						"slot": "6",
						"type": "t_mapping(t_address,t_uint256)"
					},
					{
						"astId": 21,
						"contract": "SimpleAuction.sol:SimpleAuction",
						"label": "addressMap",
						"offset": 0,
						"slot": "7",
						"type": "t_mapping(t_uint256,t_address)"
					},
					{
						"astId": 23,
						"contract": "SimpleAuction.sol:SimpleAuction",
						"label": "ended",
						"offset": 0,
						"slot": "8",
						"type": "t_bool"
					}
				],
				"types": {
					"t_address": {
						"encoding": "inplace",
						"label": "address",
						"numberOfBytes": "20"
					},
					"t_address_payable": {
						"encoding": "inplace",
						"label": "address payable",
						"numberOfBytes": "20"
					},
					"t_bool": {
						"encoding": "inplace",
						"label": "bool",
						"numberOfBytes": "1"
					},
					"t_mapping(t_address,t_uint256)": {
						"encoding": "mapping",
						"key": "t_address",
						"label": "mapping(address => uint256)",
						"numberOfBytes": "32",
						"value": "t_uint256"
					},
					"t_mapping(t_uint256,t_address)": {
						"encoding": "mapping",
						"key": "t_uint256",
						"label": "mapping(uint256 => address)",
						"numberOfBytes": "32",
						"value": "t_address"
					},
					"t_uint256": {
						"encoding": "inplace",
						"label": "uint256",
						"numberOfBytes": "32"
					}
				}
			},
			"userdoc": {
				"kind": "user",
				"methods": {
					"withdraw()": {
						"notice": "Withdraw a bid that was overbid."
					},
					"withdrawAll()": {
						"notice": "Withdraw a bid that was overbid."
					}
				},
				"version": 1
			}
		}
	}
}