{
	"Auction.sol": {
		"BlindAuction": {
			"abi": [
				{
					"inputs": [],
					"stateMutability": "nonpayable",
					"type": "constructor"
				},
				{
					"inputs": [],
					"name": "auctionEnd",
					"outputs": [],
					"stateMutability": "nonpayable",
					"type": "function"
				},
				{
					"inputs": [
						{
							"internalType": "bytes32",
							"name": "blindBid",
							"type": "bytes32"
						}
					],
					"name": "bid",
					"outputs": [],
					"stateMutability": "payable",
					"type": "function"
				},
				{
					"inputs": [
						{
							"internalType": "enum BlindAuction.Phase",
							"name": "x",
							"type": "uint8"
						}
					],
					"name": "changeState",
					"outputs": [],
					"stateMutability": "nonpayable",
					"type": "function"
				},
				{
					"inputs": [],
					"name": "highestBid",
					"outputs": [
						{
							"internalType": "uint256",
							"name": "",
							"type": "uint256"
						}
					],
					"stateMutability": "view",
					"type": "function"
				},
				{
					"inputs": [],
					"name": "highestBidder",
					"outputs": [
						{
							"internalType": "address",
							"name": "",
							"type": "address"
						}
					],
					"stateMutability": "view",
					"type": "function"
				},
				{
					"inputs": [
						{
							"internalType": "uint256",
							"name": "value",
							"type": "uint256"
						},
						{
							"internalType": "bytes32",
							"name": "secret",
							"type": "bytes32"
						}
					],
					"name": "reveal",
					"outputs": [],
					"stateMutability": "nonpayable",
					"type": "function"
				},
				{
					"inputs": [],
					"name": "state",
					"outputs": [
						{
							"internalType": "enum BlindAuction.Phase",
							"name": "",
							"type": "uint8"
						}
					],
					"stateMutability": "view",
					"type": "function"
				},
				{
					"inputs": [],
					"name": "withdraw",
					"outputs": [],
					"stateMutability": "nonpayable",
					"type": "function"
				}
			],
			"devdoc": {
				"methods": {}
			},
			"evm": {
				"assembly": "    /* \"Auction.sol\":37:2302  contract BlindAuction {\r... */\n  mstore(0x40, 0x80)\n    /* \"Auction.sol\":230:240  Phase.Init */\n  0x00\n    /* \"Auction.sol\":209:240  Phase public state = Phase.Init */\n  dup1\n  exp(0x0100, 0x00)\n  dup2\n  sload\n  dup2\n  0xff\n  mul\n  not\n  and\n  swap1\n  dup4\n  0x03\n  dup2\n  gt\n  iszero\n  tag_1\n  jumpi\n  invalid\ntag_1:\n  mul\n  or\n  swap1\n  sstore\n  pop\n    /* \"Auction.sol\":378:379  0 */\n  0x00\n    /* \"Auction.sol\":353:379  uint public highestBid = 0 */\n  0x03\n  sstore\n    /* \"Auction.sol\":635:735  constructor() public {    \r... */\n  callvalue\n    /* \"--CODEGEN--\":8:17   */\n  dup1\n    /* \"--CODEGEN--\":5:7   */\n  iszero\n  tag_2\n  jumpi\n    /* \"--CODEGEN--\":30:31   */\n  0x00\n    /* \"--CODEGEN--\":27:28   */\n  dup1\n    /* \"--CODEGEN--\":20:32   */\n  revert\n    /* \"--CODEGEN--\":5:7   */\ntag_2:\n    /* \"Auction.sol\":635:735  constructor() public {    \r... */\n  pop\n    /* \"Auction.sol\":685:695  msg.sender */\n  caller\n    /* \"Auction.sol\":671:682  beneficiary */\n  0x00\n  0x01\n    /* \"Auction.sol\":671:695  beneficiary = msg.sender */\n  0x0100\n  exp\n  dup2\n  sload\n  dup2\n  0xffffffffffffffffffffffffffffffffffffffff\n  mul\n  not\n  and\n  swap1\n  dup4\n  0xffffffffffffffffffffffffffffffffffffffff\n  and\n  mul\n  or\n  swap1\n  sstore\n  pop\n    /* \"Auction.sol\":714:727  Phase.Bidding */\n  0x01\n    /* \"Auction.sol\":706:711  state */\n  0x00\n  dup1\n    /* \"Auction.sol\":706:727  state = Phase.Bidding */\n  0x0100\n  exp\n  dup2\n  sload\n  dup2\n  0xff\n  mul\n  not\n  and\n  swap1\n  dup4\n  0x03\n  dup2\n  gt\n  iszero\n  tag_5\n  jumpi\n  invalid\ntag_5:\n  mul\n  or\n  swap1\n  sstore\n  pop\n    /* \"Auction.sol\":37:2302  contract BlindAuction {\r... */\n  dataSize(sub_0)\n  dup1\n  dataOffset(sub_0)\n  0x00\n  codecopy\n  0x00\n  return\nstop\n\nsub_0: assembly {\n        /* \"Auction.sol\":37:2302  contract BlindAuction {\r... */\n      mstore(0x40, 0x80)\n      jumpi(tag_1, lt(calldatasize, 0x04))\n      shr(0xe0, calldataload(0x00))\n      dup1\n      0x91f90157\n      gt\n      tag_10\n      jumpi\n      dup1\n      0x91f90157\n      eq\n      tag_6\n      jumpi\n      dup1\n      0x957bb1e0\n      eq\n      tag_7\n      jumpi\n      dup1\n      0xc19d93fb\n      eq\n      tag_8\n      jumpi\n      dup1\n      0xd57bde79\n      eq\n      tag_9\n      jumpi\n      jump(tag_1)\n    tag_10:\n      dup1\n      0x268f1153\n      eq\n      tag_2\n      jumpi\n      dup1\n      0x2a24f46c\n      eq\n      tag_3\n      jumpi\n      dup1\n      0x3ccfd60b\n      eq\n      tag_4\n      jumpi\n      dup1\n      0x4036778f\n      eq\n      tag_5\n      jumpi\n    tag_1:\n      0x00\n      dup1\n      revert\n        /* \"Auction.sol\":743:857  function changeState(Phase x) public onlyBeneficiary {\r... */\n    tag_2:\n      callvalue\n        /* \"--CODEGEN--\":8:17   */\n      dup1\n        /* \"--CODEGEN--\":5:7   */\n      iszero\n      tag_11\n      jumpi\n        /* \"--CODEGEN--\":30:31   */\n      0x00\n        /* \"--CODEGEN--\":27:28   */\n      dup1\n        /* \"--CODEGEN--\":20:32   */\n      revert\n        /* \"--CODEGEN--\":5:7   */\n    tag_11:\n        /* \"Auction.sol\":743:857  function changeState(Phase x) public onlyBeneficiary {\r... */\n      pop\n      tag_12\n      0x04\n      dup1\n      calldatasize\n      sub\n        /* \"--CODEGEN--\":13:15   */\n      0x20\n        /* \"--CODEGEN--\":8:11   */\n      dup2\n        /* \"--CODEGEN--\":5:16   */\n      lt\n        /* \"--CODEGEN--\":2:4   */\n      iszero\n      tag_13\n      jumpi\n        /* \"--CODEGEN--\":29:30   */\n      0x00\n        /* \"--CODEGEN--\":26:27   */\n      dup1\n        /* \"--CODEGEN--\":19:31   */\n      revert\n        /* \"--CODEGEN--\":2:4   */\n    tag_13:\n        /* \"Auction.sol\":743:857  function changeState(Phase x) public onlyBeneficiary {\r... */\n      dup2\n      add\n      swap1\n      dup1\n      dup1\n      calldataload\n      0xff\n      and\n      swap1\n      0x20\n      add\n      swap1\n      swap3\n      swap2\n      swap1\n      pop\n      pop\n      pop\n      tag_14\n      jump\t// in\n    tag_12:\n      stop\n        /* \"Auction.sol\":2196:2299  function auctionEnd() public validPhase(Phase.Done) {\r... */\n    tag_3:\n      callvalue\n        /* \"--CODEGEN--\":8:17   */\n      dup1\n        /* \"--CODEGEN--\":5:7   */\n      iszero\n      tag_15\n      jumpi\n        /* \"--CODEGEN--\":30:31   */\n      0x00\n        /* \"--CODEGEN--\":27:28   */\n      dup1\n        /* \"--CODEGEN--\":20:32   */\n      revert\n        /* \"--CODEGEN--\":5:7   */\n    tag_15:\n        /* \"Auction.sol\":2196:2299  function auctionEnd() public validPhase(Phase.Done) {\r... */\n      pop\n      tag_16\n      tag_17\n      jump\t// in\n    tag_16:\n      stop\n        /* \"Auction.sol\":1985:2184  function withdraw() public {   \r... */\n    tag_4:\n      callvalue\n        /* \"--CODEGEN--\":8:17   */\n      dup1\n        /* \"--CODEGEN--\":5:7   */\n      iszero\n      tag_18\n      jumpi\n        /* \"--CODEGEN--\":30:31   */\n      0x00\n        /* \"--CODEGEN--\":27:28   */\n      dup1\n        /* \"--CODEGEN--\":20:32   */\n      revert\n        /* \"--CODEGEN--\":5:7   */\n    tag_18:\n        /* \"Auction.sol\":1985:2184  function withdraw() public {   \r... */\n      pop\n      tag_19\n      tag_20\n      jump\t// in\n    tag_19:\n      stop\n        /* \"Auction.sol\":1077:1612  function reveal(uint value, bytes32 secret) public validPhase(Phase.Reveal) {\r... */\n    tag_5:\n      callvalue\n        /* \"--CODEGEN--\":8:17   */\n      dup1\n        /* \"--CODEGEN--\":5:7   */\n      iszero\n      tag_21\n      jumpi\n        /* \"--CODEGEN--\":30:31   */\n      0x00\n        /* \"--CODEGEN--\":27:28   */\n      dup1\n        /* \"--CODEGEN--\":20:32   */\n      revert\n        /* \"--CODEGEN--\":5:7   */\n    tag_21:\n        /* \"Auction.sol\":1077:1612  function reveal(uint value, bytes32 secret) public validPhase(Phase.Reveal) {\r... */\n      pop\n      tag_22\n      0x04\n      dup1\n      calldatasize\n      sub\n        /* \"--CODEGEN--\":13:15   */\n      0x40\n        /* \"--CODEGEN--\":8:11   */\n      dup2\n        /* \"--CODEGEN--\":5:16   */\n      lt\n        /* \"--CODEGEN--\":2:4   */\n      iszero\n      tag_23\n      jumpi\n        /* \"--CODEGEN--\":29:30   */\n      0x00\n        /* \"--CODEGEN--\":26:27   */\n      dup1\n        /* \"--CODEGEN--\":19:31   */\n      revert\n        /* \"--CODEGEN--\":2:4   */\n    tag_23:\n        /* \"Auction.sol\":1077:1612  function reveal(uint value, bytes32 secret) public validPhase(Phase.Reveal) {\r... */\n      dup2\n      add\n      swap1\n      dup1\n      dup1\n      calldataload\n      swap1\n      0x20\n      add\n      swap1\n      swap3\n      swap2\n      swap1\n      dup1\n      calldataload\n      swap1\n      0x20\n      add\n      swap1\n      swap3\n      swap2\n      swap1\n      pop\n      pop\n      pop\n      tag_24\n      jump\t// in\n    tag_22:\n      stop\n        /* \"Auction.sol\":318:346  address public highestBidder */\n    tag_6:\n      callvalue\n        /* \"--CODEGEN--\":8:17   */\n      dup1\n        /* \"--CODEGEN--\":5:7   */\n      iszero\n      tag_25\n      jumpi\n        /* \"--CODEGEN--\":30:31   */\n      0x00\n        /* \"--CODEGEN--\":27:28   */\n      dup1\n        /* \"--CODEGEN--\":20:32   */\n      revert\n        /* \"--CODEGEN--\":5:7   */\n    tag_25:\n        /* \"Auction.sol\":318:346  address public highestBidder */\n      pop\n      tag_26\n      tag_27\n      jump\t// in\n    tag_26:\n      mload(0x40)\n      dup1\n      dup3\n      0xffffffffffffffffffffffffffffffffffffffff\n      and\n      0xffffffffffffffffffffffffffffffffffffffff\n      and\n      dup2\n      mstore\n      0x20\n      add\n      swap2\n      pop\n      pop\n      mload(0x40)\n      dup1\n      swap2\n      sub\n      swap1\n      return\n        /* \"Auction.sol\":869:1065  function bid(bytes32 blindBid) public payable validPhase(Phase.Bidding) {  \r... */\n    tag_7:\n      tag_28\n      0x04\n      dup1\n      calldatasize\n      sub\n        /* \"--CODEGEN--\":13:15   */\n      0x20\n        /* \"--CODEGEN--\":8:11   */\n      dup2\n        /* \"--CODEGEN--\":5:16   */\n      lt\n        /* \"--CODEGEN--\":2:4   */\n      iszero\n      tag_29\n      jumpi\n        /* \"--CODEGEN--\":29:30   */\n      0x00\n        /* \"--CODEGEN--\":26:27   */\n      dup1\n        /* \"--CODEGEN--\":19:31   */\n      revert\n        /* \"--CODEGEN--\":2:4   */\n    tag_29:\n        /* \"Auction.sol\":869:1065  function bid(bytes32 blindBid) public payable validPhase(Phase.Bidding) {  \r... */\n      dup2\n      add\n      swap1\n      dup1\n      dup1\n      calldataload\n      swap1\n      0x20\n      add\n      swap1\n      swap3\n      swap2\n      swap1\n      pop\n      pop\n      pop\n      tag_30\n      jump\t// in\n    tag_28:\n      stop\n        /* \"Auction.sol\":209:240  Phase public state = Phase.Init */\n    tag_8:\n      callvalue\n        /* \"--CODEGEN--\":8:17   */\n      dup1\n        /* \"--CODEGEN--\":5:7   */\n      iszero\n      tag_31\n      jumpi\n        /* \"--CODEGEN--\":30:31   */\n      0x00\n        /* \"--CODEGEN--\":27:28   */\n      dup1\n        /* \"--CODEGEN--\":20:32   */\n      revert\n        /* \"--CODEGEN--\":5:7   */\n    tag_31:\n        /* \"Auction.sol\":209:240  Phase public state = Phase.Init */\n      pop\n      tag_32\n      tag_33\n      jump\t// in\n    tag_32:\n      mload(0x40)\n      dup1\n      dup3\n      0x03\n      dup2\n      gt\n      iszero\n      tag_34\n      jumpi\n      invalid\n    tag_34:\n      0xff\n      and\n      dup2\n      mstore\n      0x20\n      add\n      swap2\n      pop\n      pop\n      mload(0x40)\n      dup1\n      swap2\n      sub\n      swap1\n      return\n        /* \"Auction.sol\":353:379  uint public highestBid = 0 */\n    tag_9:\n      callvalue\n        /* \"--CODEGEN--\":8:17   */\n      dup1\n        /* \"--CODEGEN--\":5:7   */\n      iszero\n      tag_35\n      jumpi\n        /* \"--CODEGEN--\":30:31   */\n      0x00\n        /* \"--CODEGEN--\":27:28   */\n      dup1\n        /* \"--CODEGEN--\":20:32   */\n      revert\n        /* \"--CODEGEN--\":5:7   */\n    tag_35:\n        /* \"Auction.sol\":353:379  uint public highestBid = 0 */\n      pop\n      tag_36\n      tag_37\n      jump\t// in\n    tag_36:\n      mload(0x40)\n      dup1\n      dup3\n      dup2\n      mstore\n      0x20\n      add\n      swap2\n      pop\n      pop\n      mload(0x40)\n      dup1\n      swap2\n      sub\n      swap1\n      return\n        /* \"Auction.sol\":743:857  function changeState(Phase x) public onlyBeneficiary {\r... */\n    tag_14:\n        /* \"Auction.sol\":595:606  beneficiary */\n      0x00\n      0x01\n      swap1\n      sload\n      swap1\n      0x0100\n      exp\n      swap1\n      div\n      0xffffffffffffffffffffffffffffffffffffffff\n      and\n        /* \"Auction.sol\":581:606  msg.sender == beneficiary */\n      0xffffffffffffffffffffffffffffffffffffffff\n      and\n        /* \"Auction.sol\":581:591  msg.sender */\n      caller\n        /* \"Auction.sol\":581:606  msg.sender == beneficiary */\n      0xffffffffffffffffffffffffffffffffffffffff\n      and\n      eq\n        /* \"Auction.sol\":573:607  require(msg.sender == beneficiary) */\n      tag_39\n      jumpi\n      0x00\n      dup1\n      revert\n    tag_39:\n        /* \"Auction.sol\":814:819  state */\n      0x00\n      dup1\n      swap1\n      sload\n      swap1\n      0x0100\n      exp\n      swap1\n      div\n      0xff\n      and\n        /* \"Auction.sol\":810:819  x < state */\n      0x03\n      dup2\n      gt\n      iszero\n      tag_41\n      jumpi\n      invalid\n    tag_41:\n        /* \"Auction.sol\":810:811  x */\n      dup2\n        /* \"Auction.sol\":810:819  x < state */\n      0x03\n      dup2\n      gt\n      iszero\n      tag_42\n      jumpi\n      invalid\n    tag_42:\n      lt\n        /* \"Auction.sol\":807:829  if(x < state) revert() */\n      iszero\n      tag_43\n      jumpi\n        /* \"Auction.sol\":821:829  revert() */\n      0x00\n      dup1\n      revert\n        /* \"Auction.sol\":807:829  if(x < state) revert() */\n    tag_43:\n        /* \"Auction.sol\":848:849  x */\n      dup1\n        /* \"Auction.sol\":840:845  state */\n      0x00\n      dup1\n        /* \"Auction.sol\":840:849  state = x */\n      0x0100\n      exp\n      dup2\n      sload\n      dup2\n      0xff\n      mul\n      not\n      and\n      swap1\n      dup4\n      0x03\n      dup2\n      gt\n      iszero\n      tag_44\n      jumpi\n      invalid\n    tag_44:\n      mul\n      or\n      swap1\n      sstore\n      pop\n        /* \"Auction.sol\":743:857  function changeState(Phase x) public onlyBeneficiary {\r... */\n      pop\n      jump\t// out\n        /* \"Auction.sol\":2196:2299  function auctionEnd() public validPhase(Phase.Done) {\r... */\n    tag_17:\n        /* \"Auction.sol\":2236:2246  Phase.Done */\n      0x03\n        /* \"Auction.sol\":498:506  reqPhase */\n      dup1\n        /* \"Auction.sol\":489:506  state == reqPhase */\n      0x03\n      dup2\n      gt\n      iszero\n      tag_46\n      jumpi\n      invalid\n    tag_46:\n        /* \"Auction.sol\":489:494  state */\n      0x00\n      dup1\n      swap1\n      sload\n      swap1\n      0x0100\n      exp\n      swap1\n      div\n      0xff\n      and\n        /* \"Auction.sol\":489:506  state == reqPhase */\n      0x03\n      dup2\n      gt\n      iszero\n      tag_47\n      jumpi\n      invalid\n    tag_47:\n      eq\n        /* \"Auction.sol\":481:507  require(state == reqPhase) */\n      tag_48\n      jumpi\n      0x00\n      dup1\n      revert\n    tag_48:\n        /* \"Auction.sol\":2259:2270  beneficiary */\n      0x00\n      0x01\n      swap1\n      sload\n      swap1\n      0x0100\n      exp\n      swap1\n      div\n      0xffffffffffffffffffffffffffffffffffffffff\n      and\n        /* \"Auction.sol\":2259:2279  beneficiary.transfer */\n      0xffffffffffffffffffffffffffffffffffffffff\n      and\n        /* \"Auction.sol\":2259:2291  beneficiary.transfer(highestBid) */\n      0x08fc\n        /* \"Auction.sol\":2280:2290  highestBid */\n      sload(0x03)\n        /* \"Auction.sol\":2259:2291  beneficiary.transfer(highestBid) */\n      swap1\n      dup2\n      iszero\n      mul\n      swap1\n      mload(0x40)\n      0x00\n      mload(0x40)\n      dup1\n      dup4\n      sub\n      dup2\n      dup6\n      dup9\n      dup9\n      call\n      swap4\n      pop\n      pop\n      pop\n      pop\n      iszero\n        /* \"--CODEGEN--\":8:17   */\n      dup1\n        /* \"--CODEGEN--\":5:7   */\n      iszero\n      tag_51\n      jumpi\n        /* \"--CODEGEN--\":45:61   */\n      returndatasize\n        /* \"--CODEGEN--\":42:43   */\n      0x00\n        /* \"--CODEGEN--\":39:40   */\n      dup1\n        /* \"--CODEGEN--\":24:62   */\n      returndatacopy\n        /* \"--CODEGEN--\":77:93   */\n      returndatasize\n        /* \"--CODEGEN--\":74:75   */\n      0x00\n        /* \"--CODEGEN--\":67:94   */\n      revert\n        /* \"--CODEGEN--\":5:7   */\n    tag_51:\n        /* \"Auction.sol\":2259:2291  beneficiary.transfer(highestBid) */\n      pop\n        /* \"Auction.sol\":2196:2299  function auctionEnd() public validPhase(Phase.Done) {\r... */\n      pop\n      jump\t// out\n        /* \"Auction.sol\":1985:2184  function withdraw() public {   \r... */\n    tag_20:\n        /* \"Auction.sol\":2026:2037  uint amount */\n      0x00\n        /* \"Auction.sol\":2040:2054  depositReturns */\n      0x04\n        /* \"Auction.sol\":2040:2066  depositReturns[msg.sender] */\n      0x00\n        /* \"Auction.sol\":2055:2065  msg.sender */\n      caller\n        /* \"Auction.sol\":2040:2066  depositReturns[msg.sender] */\n      0xffffffffffffffffffffffffffffffffffffffff\n      and\n      0xffffffffffffffffffffffffffffffffffffffff\n      and\n      dup2\n      mstore\n      0x20\n      add\n      swap1\n      dup2\n      mstore\n      0x20\n      add\n      0x00\n      keccak256\n      sload\n        /* \"Auction.sol\":2026:2066  uint amount = depositReturns[msg.sender] */\n      swap1\n      pop\n        /* \"Auction.sol\":2095:2096  0 */\n      0x00\n        /* \"Auction.sol\":2086:2092  amount */\n      dup2\n        /* \"Auction.sol\":2086:2096  amount > 0 */\n      gt\n        /* \"Auction.sol\":2077:2097  require (amount > 0) */\n      tag_53\n      jumpi\n      0x00\n      dup1\n      revert\n    tag_53:\n        /* \"Auction.sol\":2137:2138  0 */\n      0x00\n        /* \"Auction.sol\":2108:2122  depositReturns */\n      0x04\n        /* \"Auction.sol\":2108:2134  depositReturns[msg.sender] */\n      0x00\n        /* \"Auction.sol\":2123:2133  msg.sender */\n      caller\n        /* \"Auction.sol\":2108:2134  depositReturns[msg.sender] */\n      0xffffffffffffffffffffffffffffffffffffffff\n      and\n      0xffffffffffffffffffffffffffffffffffffffff\n      and\n      dup2\n      mstore\n      0x20\n      add\n      swap1\n      dup2\n      mstore\n      0x20\n      add\n      0x00\n      keccak256\n        /* \"Auction.sol\":2108:2138  depositReturns[msg.sender] = 0 */\n      dup2\n      swap1\n      sstore\n      pop\n        /* \"Auction.sol\":2149:2159  msg.sender */\n      caller\n        /* \"Auction.sol\":2149:2168  msg.sender.transfer */\n      0xffffffffffffffffffffffffffffffffffffffff\n      and\n        /* \"Auction.sol\":2149:2176  msg.sender.transfer(amount) */\n      0x08fc\n        /* \"Auction.sol\":2169:2175  amount */\n      dup3\n        /* \"Auction.sol\":2149:2176  msg.sender.transfer(amount) */\n      swap1\n      dup2\n      iszero\n      mul\n      swap1\n      mload(0x40)\n      0x00\n      mload(0x40)\n      dup1\n      dup4\n      sub\n      dup2\n      dup6\n      dup9\n      dup9\n      call\n      swap4\n      pop\n      pop\n      pop\n      pop\n      iszero\n        /* \"--CODEGEN--\":8:17   */\n      dup1\n        /* \"--CODEGEN--\":5:7   */\n      iszero\n      tag_55\n      jumpi\n        /* \"--CODEGEN--\":45:61   */\n      returndatasize\n        /* \"--CODEGEN--\":42:43   */\n      0x00\n        /* \"--CODEGEN--\":39:40   */\n      dup1\n        /* \"--CODEGEN--\":24:62   */\n      returndatacopy\n        /* \"--CODEGEN--\":77:93   */\n      returndatasize\n        /* \"--CODEGEN--\":74:75   */\n      0x00\n        /* \"--CODEGEN--\":67:94   */\n      revert\n        /* \"--CODEGEN--\":5:7   */\n    tag_55:\n        /* \"Auction.sol\":2149:2176  msg.sender.transfer(amount) */\n      pop\n        /* \"Auction.sol\":1985:2184  function withdraw() public {   \r... */\n      pop\n      jump\t// out\n        /* \"Auction.sol\":1077:1612  function reveal(uint value, bytes32 secret) public validPhase(Phase.Reveal) {\r... */\n    tag_24:\n        /* \"Auction.sol\":1139:1151  Phase.Reveal */\n      0x02\n        /* \"Auction.sol\":498:506  reqPhase */\n      dup1\n        /* \"Auction.sol\":489:506  state == reqPhase */\n      0x03\n      dup2\n      gt\n      iszero\n      tag_57\n      jumpi\n      invalid\n    tag_57:\n        /* \"Auction.sol\":489:494  state */\n      0x00\n      dup1\n      swap1\n      sload\n      swap1\n      0x0100\n      exp\n      swap1\n      div\n      0xff\n      and\n        /* \"Auction.sol\":489:506  state == reqPhase */\n      0x03\n      dup2\n      gt\n      iszero\n      tag_58\n      jumpi\n      invalid\n    tag_58:\n      eq\n        /* \"Auction.sol\":481:507  require(state == reqPhase) */\n      tag_59\n      jumpi\n      0x00\n      dup1\n      revert\n    tag_59:\n        /* \"Auction.sol\":1164:1175  uint refund */\n      0x00\n        /* \"Auction.sol\":1178:1179  0 */\n      dup1\n        /* \"Auction.sol\":1164:1179  uint refund = 0 */\n      swap1\n      pop\n        /* \"Auction.sol\":1194:1216  Bid storage bidToCheck */\n      0x00\n        /* \"Auction.sol\":1219:1223  bids */\n      0x01\n        /* \"Auction.sol\":1219:1235  bids[msg.sender] */\n      0x00\n        /* \"Auction.sol\":1224:1234  msg.sender */\n      caller\n        /* \"Auction.sol\":1219:1235  bids[msg.sender] */\n      0xffffffffffffffffffffffffffffffffffffffff\n      and\n      0xffffffffffffffffffffffffffffffffffffffff\n      and\n      dup2\n      mstore\n      0x20\n      add\n      swap1\n      dup2\n      mstore\n      0x20\n      add\n      0x00\n      keccak256\n        /* \"Auction.sol\":1194:1235  Bid storage bidToCheck = bids[msg.sender] */\n      swap1\n      pop\n        /* \"Auction.sol\":1306:1311  value */\n      dup5\n        /* \"Auction.sol\":1313:1319  secret */\n      dup5\n        /* \"Auction.sol\":1289:1320  abi.encodePacked(value, secret) */\n      add(0x20, mload(0x40))\n      dup1\n      dup4\n      dup2\n      mstore\n      0x20\n      add\n      dup3\n      dup2\n      mstore\n      0x20\n      add\n      swap3\n      pop\n      pop\n      pop\n      mload(0x40)\n        /* \"--CODEGEN--\":49:53   */\n      0x20\n        /* \"--CODEGEN--\":39:46   */\n      dup2\n        /* \"--CODEGEN--\":30:37   */\n      dup4\n        /* \"--CODEGEN--\":26:47   */\n      sub\n        /* \"--CODEGEN--\":22:54   */\n      sub\n        /* \"--CODEGEN--\":13:20   */\n      dup2\n        /* \"--CODEGEN--\":6:55   */\n      mstore\n        /* \"Auction.sol\":1289:1320  abi.encodePacked(value, secret) */\n      swap1\n      0x40\n      mstore\n        /* \"Auction.sol\":1279:1321  keccak256(abi.encodePacked(value, secret)) */\n      dup1\n      mload\n      swap1\n      0x20\n      add\n      keccak256\n        /* \"Auction.sol\":1254:1264  bidToCheck */\n      dup2\n        /* \"Auction.sol\":1254:1275  bidToCheck.blindedBid */\n      0x00\n      add\n      sload\n        /* \"Auction.sol\":1254:1321  bidToCheck.blindedBid == keccak256(abi.encodePacked(value, secret)) */\n      eq\n        /* \"Auction.sol\":1250:1553  if (bidToCheck.blindedBid == keccak256(abi.encodePacked(value, secret))) {\r... */\n      iszero\n      tag_61\n      jumpi\n        /* \"Auction.sol\":1352:1362  bidToCheck */\n      dup1\n        /* \"Auction.sol\":1352:1370  bidToCheck.deposit */\n      0x01\n      add\n      sload\n        /* \"Auction.sol\":1342:1370  refund += bidToCheck.deposit */\n      dup3\n      add\n      swap2\n      pop\n        /* \"Auction.sol\":1415:1420  value */\n      dup5\n        /* \"Auction.sol\":1393:1403  bidToCheck */\n      dup2\n        /* \"Auction.sol\":1393:1411  bidToCheck.deposit */\n      0x01\n      add\n      sload\n        /* \"Auction.sol\":1393:1420  bidToCheck.deposit >= value */\n      lt\n        /* \"Auction.sol\":1389:1538  if (bidToCheck.deposit >= value) {\r... */\n      tag_62\n      jumpi\n        /* \"Auction.sol\":1449:1476  placeBid(msg.sender, value) */\n      tag_63\n        /* \"Auction.sol\":1458:1468  msg.sender */\n      caller\n        /* \"Auction.sol\":1470:1475  value */\n      dup7\n        /* \"Auction.sol\":1449:1457  placeBid */\n      tag_64\n        /* \"Auction.sol\":1449:1476  placeBid(msg.sender, value) */\n      jump\t// in\n    tag_63:\n        /* \"Auction.sol\":1445:1518  if (placeBid(msg.sender, value))\r... */\n      iszero\n      tag_65\n      jumpi\n        /* \"Auction.sol\":1513:1518  value */\n      dup5\n        /* \"Auction.sol\":1503:1518  refund -= value */\n      dup3\n      sub\n      swap2\n      pop\n        /* \"Auction.sol\":1445:1518  if (placeBid(msg.sender, value))\r... */\n    tag_65:\n        /* \"Auction.sol\":1389:1538  if (bidToCheck.deposit >= value) {\r... */\n    tag_62:\n        /* \"Auction.sol\":1250:1553  if (bidToCheck.blindedBid == keccak256(abi.encodePacked(value, secret))) {\r... */\n    tag_61:\n        /* \"Auction.sol\":1577:1587  msg.sender */\n      caller\n        /* \"Auction.sol\":1577:1596  msg.sender.transfer */\n      0xffffffffffffffffffffffffffffffffffffffff\n      and\n        /* \"Auction.sol\":1577:1604  msg.sender.transfer(refund) */\n      0x08fc\n        /* \"Auction.sol\":1597:1603  refund */\n      dup4\n        /* \"Auction.sol\":1577:1604  msg.sender.transfer(refund) */\n      swap1\n      dup2\n      iszero\n      mul\n      swap1\n      mload(0x40)\n      0x00\n      mload(0x40)\n      dup1\n      dup4\n      sub\n      dup2\n      dup6\n      dup9\n      dup9\n      call\n      swap4\n      pop\n      pop\n      pop\n      pop\n      iszero\n        /* \"--CODEGEN--\":8:17   */\n      dup1\n        /* \"--CODEGEN--\":5:7   */\n      iszero\n      tag_67\n      jumpi\n        /* \"--CODEGEN--\":45:61   */\n      returndatasize\n        /* \"--CODEGEN--\":42:43   */\n      0x00\n        /* \"--CODEGEN--\":39:40   */\n      dup1\n        /* \"--CODEGEN--\":24:62   */\n      returndatacopy\n        /* \"--CODEGEN--\":77:93   */\n      returndatasize\n        /* \"--CODEGEN--\":74:75   */\n      0x00\n        /* \"--CODEGEN--\":67:94   */\n      revert\n        /* \"--CODEGEN--\":5:7   */\n    tag_67:\n        /* \"Auction.sol\":1577:1604  msg.sender.transfer(refund) */\n      pop\n        /* \"Auction.sol\":518:519  _ */\n      pop\n      pop\n        /* \"Auction.sol\":1077:1612  function reveal(uint value, bytes32 secret) public validPhase(Phase.Reveal) {\r... */\n      pop\n      pop\n      pop\n      jump\t// out\n        /* \"Auction.sol\":318:346  address public highestBidder */\n    tag_27:\n      0x02\n      0x00\n      swap1\n      sload\n      swap1\n      0x0100\n      exp\n      swap1\n      div\n      0xffffffffffffffffffffffffffffffffffffffff\n      and\n      dup2\n      jump\t// out\n        /* \"Auction.sol\":869:1065  function bid(bytes32 blindBid) public payable validPhase(Phase.Bidding) {  \r... */\n    tag_30:\n        /* \"Auction.sol\":926:939  Phase.Bidding */\n      0x01\n        /* \"Auction.sol\":498:506  reqPhase */\n      dup1\n        /* \"Auction.sol\":489:506  state == reqPhase */\n      0x03\n      dup2\n      gt\n      iszero\n      tag_69\n      jumpi\n      invalid\n    tag_69:\n        /* \"Auction.sol\":489:494  state */\n      0x00\n      dup1\n      swap1\n      sload\n      swap1\n      0x0100\n      exp\n      swap1\n      div\n      0xff\n      and\n        /* \"Auction.sol\":489:506  state == reqPhase */\n      0x03\n      dup2\n      gt\n      iszero\n      tag_70\n      jumpi\n      invalid\n    tag_70:\n      eq\n        /* \"Auction.sol\":481:507  require(state == reqPhase) */\n      tag_71\n      jumpi\n      0x00\n      dup1\n      revert\n    tag_71:\n        /* \"Auction.sol\":973:1057  Bid({\r... */\n      mload(0x40)\n      dup1\n      0x40\n      add\n      0x40\n      mstore\n      dup1\n        /* \"Auction.sol\":1004:1012  blindBid */\n      dup4\n        /* \"Auction.sol\":973:1057  Bid({\r... */\n      dup2\n      mstore\n      0x20\n      add\n        /* \"Auction.sol\":1036:1045  msg.value */\n      callvalue\n        /* \"Auction.sol\":973:1057  Bid({\r... */\n      dup2\n      mstore\n      pop\n        /* \"Auction.sol\":954:958  bids */\n      0x01\n        /* \"Auction.sol\":954:970  bids[msg.sender] */\n      0x00\n        /* \"Auction.sol\":959:969  msg.sender */\n      caller\n        /* \"Auction.sol\":954:970  bids[msg.sender] */\n      0xffffffffffffffffffffffffffffffffffffffff\n      and\n      0xffffffffffffffffffffffffffffffffffffffff\n      and\n      dup2\n      mstore\n      0x20\n      add\n      swap1\n      dup2\n      mstore\n      0x20\n      add\n      0x00\n      keccak256\n        /* \"Auction.sol\":954:1057  bids[msg.sender] = Bid({\r... */\n      0x00\n      dup3\n      add\n      mload\n      dup2\n      0x00\n      add\n      sstore\n      0x20\n      dup3\n      add\n      mload\n      dup2\n      0x01\n      add\n      sstore\n      swap1\n      pop\n      pop\n        /* \"Auction.sol\":869:1065  function bid(bytes32 blindBid) public payable validPhase(Phase.Bidding) {  \r... */\n      pop\n      pop\n      jump\t// out\n        /* \"Auction.sol\":209:240  Phase public state = Phase.Init */\n    tag_33:\n      0x00\n      dup1\n      swap1\n      sload\n      swap1\n      0x0100\n      exp\n      swap1\n      div\n      0xff\n      and\n      dup2\n      jump\t// out\n        /* \"Auction.sol\":353:379  uint public highestBid = 0 */\n    tag_37:\n      sload(0x03)\n      dup2\n      jump\t// out\n        /* \"Auction.sol\":1620:1977  function placeBid(address bidder, uint value) internal returns (bool success) {\r... */\n    tag_64:\n        /* \"Auction.sol\":1684:1696  bool success */\n      0x00\n        /* \"Auction.sol\":1722:1732  highestBid */\n      sload(0x03)\n        /* \"Auction.sol\":1713:1718  value */\n      dup3\n        /* \"Auction.sol\":1713:1732  value <= highestBid */\n      gt\n        /* \"Auction.sol\":1709:1773  if (value <= highestBid) {\r... */\n      tag_74\n      jumpi\n        /* \"Auction.sol\":1756:1761  false */\n      0x00\n        /* \"Auction.sol\":1749:1761  return false */\n      swap1\n      pop\n      jump(tag_73)\n        /* \"Auction.sol\":1709:1773  if (value <= highestBid) {\r... */\n    tag_74:\n        /* \"Auction.sol\":1812:1813  0 */\n      0x00\n        /* \"Auction.sol\":1787:1814  highestBidder != address(0) */\n      0xffffffffffffffffffffffffffffffffffffffff\n      and\n        /* \"Auction.sol\":1787:1800  highestBidder */\n      0x02\n      0x00\n      swap1\n      sload\n      swap1\n      0x0100\n      exp\n      swap1\n      div\n      0xffffffffffffffffffffffffffffffffffffffff\n      and\n        /* \"Auction.sol\":1787:1814  highestBidder != address(0) */\n      0xffffffffffffffffffffffffffffffffffffffff\n      and\n      eq\n        /* \"Auction.sol\":1783:1886  if (highestBidder != address(0)) {\r... */\n      tag_75\n      jumpi\n        /* \"Auction.sol\":1864:1874  highestBid */\n      sload(0x03)\n        /* \"Auction.sol\":1831:1845  depositReturns */\n      0x04\n        /* \"Auction.sol\":1831:1860  depositReturns[highestBidder] */\n      0x00\n        /* \"Auction.sol\":1846:1859  highestBidder */\n      0x02\n      0x00\n      swap1\n      sload\n      swap1\n      0x0100\n      exp\n      swap1\n      div\n      0xffffffffffffffffffffffffffffffffffffffff\n      and\n        /* \"Auction.sol\":1831:1860  depositReturns[highestBidder] */\n      0xffffffffffffffffffffffffffffffffffffffff\n      and\n      0xffffffffffffffffffffffffffffffffffffffff\n      and\n      dup2\n      mstore\n      0x20\n      add\n      swap1\n      dup2\n      mstore\n      0x20\n      add\n      0x00\n      keccak256\n      0x00\n        /* \"Auction.sol\":1831:1874  depositReturns[highestBidder] += highestBid */\n      dup3\n      dup3\n      sload\n      add\n      swap3\n      pop\n      pop\n      dup2\n      swap1\n      sstore\n      pop\n        /* \"Auction.sol\":1783:1886  if (highestBidder != address(0)) {\r... */\n    tag_75:\n        /* \"Auction.sol\":1909:1914  value */\n      dup2\n        /* \"Auction.sol\":1896:1906  highestBid */\n      0x03\n        /* \"Auction.sol\":1896:1914  highestBid = value */\n      dup2\n      swap1\n      sstore\n      pop\n        /* \"Auction.sol\":1941:1947  bidder */\n      dup3\n        /* \"Auction.sol\":1925:1938  highestBidder */\n      0x02\n      0x00\n        /* \"Auction.sol\":1925:1947  highestBidder = bidder */\n      0x0100\n      exp\n      dup2\n      sload\n      dup2\n      0xffffffffffffffffffffffffffffffffffffffff\n      mul\n      not\n      and\n      swap1\n      dup4\n      0xffffffffffffffffffffffffffffffffffffffff\n      and\n      mul\n      or\n      swap1\n      sstore\n      pop\n        /* \"Auction.sol\":1965:1969  true */\n      0x01\n        /* \"Auction.sol\":1958:1969  return true */\n      swap1\n      pop\n        /* \"Auction.sol\":1620:1977  function placeBid(address bidder, uint value) internal returns (bool success) {\r... */\n    tag_73:\n      swap3\n      swap2\n      pop\n      pop\n      jump\t// out\n\n    auxdata: 0xa26469706673582212208fc8ddc0d42841f092b0fd28b4ef6626ab1f1281ef0d397fab0003f446ff6a7364736f6c63430006000033\n}\n",
				"bytecode": {
					"linkReferences": {},
					"object": "608060405260008060006101000a81548160ff0219169083600381111561002257fe5b0217905550600060035534801561003857600080fd5b5033600060016101000a81548173ffffffffffffffffffffffffffffffffffffffff021916908373ffffffffffffffffffffffffffffffffffffffff16021790555060016000806101000a81548160ff0219169083600381111561009857fe5b02179055506107bb806100ac6000396000f3fe60806040526004361061007b5760003560e01c806391f901571161004e57806391f9015714610131578063957bb1e014610188578063c19d93fb146101b6578063d57bde79146101ef5761007b565b8063268f1153146100805780632a24f46c146100be5780633ccfd60b146100d55780634036778f146100ec575b600080fd5b34801561008c57600080fd5b506100bc600480360360208110156100a357600080fd5b81019080803560ff16906020019092919050505061021a565b005b3480156100ca57600080fd5b506100d36102ca565b005b3480156100e157600080fd5b506100ea61036a565b005b3480156100f857600080fd5b5061012f6004803603604081101561010f57600080fd5b81019080803590602001909291908035906020019092919050505061044a565b005b34801561013d57600080fd5b50610146610577565b604051808273ffffffffffffffffffffffffffffffffffffffff1673ffffffffffffffffffffffffffffffffffffffff16815260200191505060405180910390f35b6101b46004803603602081101561019e57600080fd5b810190808035906020019092919050505061059d565b005b3480156101c257600080fd5b506101cb61063e565b604051808260038111156101db57fe5b60ff16815260200191505060405180910390f35b3480156101fb57600080fd5b50610204610650565b6040518082815260200191505060405180910390f35b600060019054906101000a900473ffffffffffffffffffffffffffffffffffffffff1673ffffffffffffffffffffffffffffffffffffffff163373ffffffffffffffffffffffffffffffffffffffff161461027457600080fd5b6000809054906101000a900460ff16600381111561028e57fe5b81600381111561029a57fe5b10156102a557600080fd5b806000806101000a81548160ff021916908360038111156102c257fe5b021790555050565b60038060038111156102d857fe5b6000809054906101000a900460ff1660038111156102f257fe5b146102fc57600080fd5b600060019054906101000a900473ffffffffffffffffffffffffffffffffffffffff1673ffffffffffffffffffffffffffffffffffffffff166108fc6003549081150290604051600060405180830381858888f19350505050158015610366573d6000803e3d6000fd5b5050565b6000600460003373ffffffffffffffffffffffffffffffffffffffff1673ffffffffffffffffffffffffffffffffffffffff168152602001908152602001600020549050600081116103bb57600080fd5b6000600460003373ffffffffffffffffffffffffffffffffffffffff1673ffffffffffffffffffffffffffffffffffffffff168152602001908152602001600020819055503373ffffffffffffffffffffffffffffffffffffffff166108fc829081150290604051600060405180830381858888f19350505050158015610446573d6000803e3d6000fd5b5050565b600280600381111561045857fe5b6000809054906101000a900460ff16600381111561047257fe5b1461047c57600080fd5b60008090506000600160003373ffffffffffffffffffffffffffffffffffffffff1673ffffffffffffffffffffffffffffffffffffffff168152602001908152602001600020905084846040516020018083815260200182815260200192505050604051602081830303815290604052805190602001208160000154141561052957806001015482019150848160010154106105285761051c3386610656565b156105275784820391505b5b5b3373ffffffffffffffffffffffffffffffffffffffff166108fc839081150290604051600060405180830381858888f1935050505015801561056f573d6000803e3d6000fd5b505050505050565b600260009054906101000a900473ffffffffffffffffffffffffffffffffffffffff1681565b60018060038111156105ab57fe5b6000809054906101000a900460ff1660038111156105c557fe5b146105cf57600080fd5b604051806040016040528083815260200134815250600160003373ffffffffffffffffffffffffffffffffffffffff1673ffffffffffffffffffffffffffffffffffffffff16815260200190815260200160002060008201518160000155602082015181600101559050505050565b6000809054906101000a900460ff1681565b60035481565b6000600354821161066a576000905061077f565b600073ffffffffffffffffffffffffffffffffffffffff16600260009054906101000a900473ffffffffffffffffffffffffffffffffffffffff1673ffffffffffffffffffffffffffffffffffffffff16146107325760035460046000600260009054906101000a900473ffffffffffffffffffffffffffffffffffffffff1673ffffffffffffffffffffffffffffffffffffffff1673ffffffffffffffffffffffffffffffffffffffff168152602001908152602001600020600082825401925050819055505b8160038190555082600260006101000a81548173ffffffffffffffffffffffffffffffffffffffff021916908373ffffffffffffffffffffffffffffffffffffffff160217905550600190505b9291505056fea26469706673582212208fc8ddc0d42841f092b0fd28b4ef6626ab1f1281ef0d397fab0003f446ff6a7364736f6c63430006000033",
					"opcodes": "PUSH1 0x80 PUSH1 0x40 MSTORE PUSH1 0x0 DUP1 PUSH1 0x0 PUSH2 0x100 EXP DUP2 SLOAD DUP2 PUSH1 0xFF MUL NOT AND SWAP1 DUP4 PUSH1 0x3 DUP2 GT ISZERO PUSH2 0x22 JUMPI INVALID JUMPDEST MUL OR SWAP1 SSTORE POP PUSH1 0x0 PUSH1 0x3 SSTORE CALLVALUE DUP1 ISZERO PUSH2 0x38 JUMPI PUSH1 0x0 DUP1 REVERT JUMPDEST POP CALLER PUSH1 0x0 PUSH1 0x1 PUSH2 0x100 EXP DUP2 SLOAD DUP2 PUSH20 0xFFFFFFFFFFFFFFFFFFFFFFFFFFFFFFFFFFFFFFFF MUL NOT AND SWAP1 DUP4 PUSH20 0xFFFFFFFFFFFFFFFFFFFFFFFFFFFFFFFFFFFFFFFF AND MUL OR SWAP1 SSTORE POP PUSH1 0x1 PUSH1 0x0 DUP1 PUSH2 0x100 EXP DUP2 SLOAD DUP2 PUSH1 0xFF MUL NOT AND SWAP1 DUP4 PUSH1 0x3 DUP2 GT ISZERO PUSH2 0x98 JUMPI INVALID JUMPDEST MUL OR SWAP1 SSTORE POP PUSH2 0x7BB DUP1 PUSH2 0xAC PUSH1 0x0 CODECOPY PUSH1 0x0 RETURN INVALID PUSH1 0x80 PUSH1 0x40 MSTORE PUSH1 0x4 CALLDATASIZE LT PUSH2 0x7B JUMPI PUSH1 0x0 CALLDATALOAD PUSH1 0xE0 SHR DUP1 PUSH4 0x91F90157 GT PUSH2 0x4E JUMPI DUP1 PUSH4 0x91F90157 EQ PUSH2 0x131 JUMPI DUP1 PUSH4 0x957BB1E0 EQ PUSH2 0x188 JUMPI DUP1 PUSH4 0xC19D93FB EQ PUSH2 0x1B6 JUMPI DUP1 PUSH4 0xD57BDE79 EQ PUSH2 0x1EF JUMPI PUSH2 0x7B JUMP JUMPDEST DUP1 PUSH4 0x268F1153 EQ PUSH2 0x80 JUMPI DUP1 PUSH4 0x2A24F46C EQ PUSH2 0xBE JUMPI DUP1 PUSH4 0x3CCFD60B EQ PUSH2 0xD5 JUMPI DUP1 PUSH4 0x4036778F EQ PUSH2 0xEC JUMPI JUMPDEST PUSH1 0x0 DUP1 REVERT JUMPDEST CALLVALUE DUP1 ISZERO PUSH2 0x8C JUMPI PUSH1 0x0 DUP1 REVERT JUMPDEST POP PUSH2 0xBC PUSH1 0x4 DUP1 CALLDATASIZE SUB PUSH1 0x20 DUP2 LT ISZERO PUSH2 0xA3 JUMPI PUSH1 0x0 DUP1 REVERT JUMPDEST DUP2 ADD SWAP1 DUP1 DUP1 CALLDATALOAD PUSH1 0xFF AND SWAP1 PUSH1 0x20 ADD SWAP1 SWAP3 SWAP2 SWAP1 POP POP POP PUSH2 0x21A JUMP JUMPDEST STOP JUMPDEST CALLVALUE DUP1 ISZERO PUSH2 0xCA JUMPI PUSH1 0x0 DUP1 REVERT JUMPDEST POP PUSH2 0xD3 PUSH2 0x2CA JUMP JUMPDEST STOP JUMPDEST CALLVALUE DUP1 ISZERO PUSH2 0xE1 JUMPI PUSH1 0x0 DUP1 REVERT JUMPDEST POP PUSH2 0xEA PUSH2 0x36A JUMP JUMPDEST STOP JUMPDEST CALLVALUE DUP1 ISZERO PUSH2 0xF8 JUMPI PUSH1 0x0 DUP1 REVERT JUMPDEST POP PUSH2 0x12F PUSH1 0x4 DUP1 CALLDATASIZE SUB PUSH1 0x40 DUP2 LT ISZERO PUSH2 0x10F JUMPI PUSH1 0x0 DUP1 REVERT JUMPDEST DUP2 ADD SWAP1 DUP1 DUP1 CALLDATALOAD SWAP1 PUSH1 0x20 ADD SWAP1 SWAP3 SWAP2 SWAP1 DUP1 CALLDATALOAD SWAP1 PUSH1 0x20 ADD SWAP1 SWAP3 SWAP2 SWAP1 POP POP POP PUSH2 0x44A JUMP JUMPDEST STOP JUMPDEST CALLVALUE DUP1 ISZERO PUSH2 0x13D JUMPI PUSH1 0x0 DUP1 REVERT JUMPDEST POP PUSH2 0x146 PUSH2 0x577 JUMP JUMPDEST PUSH1 0x40 MLOAD DUP1 DUP3 PUSH20 0xFFFFFFFFFFFFFFFFFFFFFFFFFFFFFFFFFFFFFFFF AND PUSH20 0xFFFFFFFFFFFFFFFFFFFFFFFFFFFFFFFFFFFFFFFF AND DUP2 MSTORE PUSH1 0x20 ADD SWAP2 POP POP PUSH1 0x40 MLOAD DUP1 SWAP2 SUB SWAP1 RETURN JUMPDEST PUSH2 0x1B4 PUSH1 0x4 DUP1 CALLDATASIZE SUB PUSH1 0x20 DUP2 LT ISZERO PUSH2 0x19E JUMPI PUSH1 0x0 DUP1 REVERT JUMPDEST DUP2 ADD SWAP1 DUP1 DUP1 CALLDATALOAD SWAP1 PUSH1 0x20 ADD SWAP1 SWAP3 SWAP2 SWAP1 POP POP POP PUSH2 0x59D JUMP JUMPDEST STOP JUMPDEST CALLVALUE DUP1 ISZERO PUSH2 0x1C2 JUMPI PUSH1 0x0 DUP1 REVERT JUMPDEST POP PUSH2 0x1CB PUSH2 0x63E JUMP JUMPDEST PUSH1 0x40 MLOAD DUP1 DUP3 PUSH1 0x3 DUP2 GT ISZERO PUSH2 0x1DB JUMPI INVALID JUMPDEST PUSH1 0xFF AND DUP2 MSTORE PUSH1 0x20 ADD SWAP2 POP POP PUSH1 0x40 MLOAD DUP1 SWAP2 SUB SWAP1 RETURN JUMPDEST CALLVALUE DUP1 ISZERO PUSH2 0x1FB JUMPI PUSH1 0x0 DUP1 REVERT JUMPDEST POP PUSH2 0x204 PUSH2 0x650 JUMP JUMPDEST PUSH1 0x40 MLOAD DUP1 DUP3 DUP2 MSTORE PUSH1 0x20 ADD SWAP2 POP POP PUSH1 0x40 MLOAD DUP1 SWAP2 SUB SWAP1 RETURN JUMPDEST PUSH1 0x0 PUSH1 0x1 SWAP1 SLOAD SWAP1 PUSH2 0x100 EXP SWAP1 DIV PUSH20 0xFFFFFFFFFFFFFFFFFFFFFFFFFFFFFFFFFFFFFFFF AND PUSH20 0xFFFFFFFFFFFFFFFFFFFFFFFFFFFFFFFFFFFFFFFF AND CALLER PUSH20 0xFFFFFFFFFFFFFFFFFFFFFFFFFFFFFFFFFFFFFFFF AND EQ PUSH2 0x274 JUMPI PUSH1 0x0 DUP1 REVERT JUMPDEST PUSH1 0x0 DUP1 SWAP1 SLOAD SWAP1 PUSH2 0x100 EXP SWAP1 DIV PUSH1 0xFF AND PUSH1 0x3 DUP2 GT ISZERO PUSH2 0x28E JUMPI INVALID JUMPDEST DUP2 PUSH1 0x3 DUP2 GT ISZERO PUSH2 0x29A JUMPI INVALID JUMPDEST LT ISZERO PUSH2 0x2A5 JUMPI PUSH1 0x0 DUP1 REVERT JUMPDEST DUP1 PUSH1 0x0 DUP1 PUSH2 0x100 EXP DUP2 SLOAD DUP2 PUSH1 0xFF MUL NOT AND SWAP1 DUP4 PUSH1 0x3 DUP2 GT ISZERO PUSH2 0x2C2 JUMPI INVALID JUMPDEST MUL OR SWAP1 SSTORE POP POP JUMP JUMPDEST PUSH1 0x3 DUP1 PUSH1 0x3 DUP2 GT ISZERO PUSH2 0x2D8 JUMPI INVALID JUMPDEST PUSH1 0x0 DUP1 SWAP1 SLOAD SWAP1 PUSH2 0x100 EXP SWAP1 DIV PUSH1 0xFF AND PUSH1 0x3 DUP2 GT ISZERO PUSH2 0x2F2 JUMPI INVALID JUMPDEST EQ PUSH2 0x2FC JUMPI PUSH1 0x0 DUP1 REVERT JUMPDEST PUSH1 0x0 PUSH1 0x1 SWAP1 SLOAD SWAP1 PUSH2 0x100 EXP SWAP1 DIV PUSH20 0xFFFFFFFFFFFFFFFFFFFFFFFFFFFFFFFFFFFFFFFF AND PUSH20 0xFFFFFFFFFFFFFFFFFFFFFFFFFFFFFFFFFFFFFFFF AND PUSH2 0x8FC PUSH1 0x3 SLOAD SWAP1 DUP2 ISZERO MUL SWAP1 PUSH1 0x40 MLOAD PUSH1 0x0 PUSH1 0x40 MLOAD DUP1 DUP4 SUB DUP2 DUP6 DUP9 DUP9 CALL SWAP4 POP POP POP POP ISZERO DUP1 ISZERO PUSH2 0x366 JUMPI RETURNDATASIZE PUSH1 0x0 DUP1 RETURNDATACOPY RETURNDATASIZE PUSH1 0x0 REVERT JUMPDEST POP POP JUMP JUMPDEST PUSH1 0x0 PUSH1 0x4 PUSH1 0x0 CALLER PUSH20 0xFFFFFFFFFFFFFFFFFFFFFFFFFFFFFFFFFFFFFFFF AND PUSH20 0xFFFFFFFFFFFFFFFFFFFFFFFFFFFFFFFFFFFFFFFF AND DUP2 MSTORE PUSH1 0x20 ADD SWAP1 DUP2 MSTORE PUSH1 0x20 ADD PUSH1 0x0 KECCAK256 SLOAD SWAP1 POP PUSH1 0x0 DUP2 GT PUSH2 0x3BB JUMPI PUSH1 0x0 DUP1 REVERT JUMPDEST PUSH1 0x0 PUSH1 0x4 PUSH1 0x0 CALLER PUSH20 0xFFFFFFFFFFFFFFFFFFFFFFFFFFFFFFFFFFFFFFFF AND PUSH20 0xFFFFFFFFFFFFFFFFFFFFFFFFFFFFFFFFFFFFFFFF AND DUP2 MSTORE PUSH1 0x20 ADD SWAP1 DUP2 MSTORE PUSH1 0x20 ADD PUSH1 0x0 KECCAK256 DUP2 SWAP1 SSTORE POP CALLER PUSH20 0xFFFFFFFFFFFFFFFFFFFFFFFFFFFFFFFFFFFFFFFF AND PUSH2 0x8FC DUP3 SWAP1 DUP2 ISZERO MUL SWAP1 PUSH1 0x40 MLOAD PUSH1 0x0 PUSH1 0x40 MLOAD DUP1 DUP4 SUB DUP2 DUP6 DUP9 DUP9 CALL SWAP4 POP POP POP POP ISZERO DUP1 ISZERO PUSH2 0x446 JUMPI RETURNDATASIZE PUSH1 0x0 DUP1 RETURNDATACOPY RETURNDATASIZE PUSH1 0x0 REVERT JUMPDEST POP POP JUMP JUMPDEST PUSH1 0x2 DUP1 PUSH1 0x3 DUP2 GT ISZERO PUSH2 0x458 JUMPI INVALID JUMPDEST PUSH1 0x0 DUP1 SWAP1 SLOAD SWAP1 PUSH2 0x100 EXP SWAP1 DIV PUSH1 0xFF AND PUSH1 0x3 DUP2 GT ISZERO PUSH2 0x472 JUMPI INVALID JUMPDEST EQ PUSH2 0x47C JUMPI PUSH1 0x0 DUP1 REVERT JUMPDEST PUSH1 0x0 DUP1 SWAP1 POP PUSH1 0x0 PUSH1 0x1 PUSH1 0x0 CALLER PUSH20 0xFFFFFFFFFFFFFFFFFFFFFFFFFFFFFFFFFFFFFFFF AND PUSH20 0xFFFFFFFFFFFFFFFFFFFFFFFFFFFFFFFFFFFFFFFF AND DUP2 MSTORE PUSH1 0x20 ADD SWAP1 DUP2 MSTORE PUSH1 0x20 ADD PUSH1 0x0 KECCAK256 SWAP1 POP DUP5 DUP5 PUSH1 0x40 MLOAD PUSH1 0x20 ADD DUP1 DUP4 DUP2 MSTORE PUSH1 0x20 ADD DUP3 DUP2 MSTORE PUSH1 0x20 ADD SWAP3 POP POP POP PUSH1 0x40 MLOAD PUSH1 0x20 DUP2 DUP4 SUB SUB DUP2 MSTORE SWAP1 PUSH1 0x40 MSTORE DUP1 MLOAD SWAP1 PUSH1 0x20 ADD KECCAK256 DUP2 PUSH1 0x0 ADD SLOAD EQ ISZERO PUSH2 0x529 JUMPI DUP1 PUSH1 0x1 ADD SLOAD DUP3 ADD SWAP2 POP DUP5 DUP2 PUSH1 0x1 ADD SLOAD LT PUSH2 0x528 JUMPI PUSH2 0x51C CALLER DUP7 PUSH2 0x656 JUMP JUMPDEST ISZERO PUSH2 0x527 JUMPI DUP5 DUP3 SUB SWAP2 POP JUMPDEST JUMPDEST JUMPDEST CALLER PUSH20 0xFFFFFFFFFFFFFFFFFFFFFFFFFFFFFFFFFFFFFFFF AND PUSH2 0x8FC DUP4 SWAP1 DUP2 ISZERO MUL SWAP1 PUSH1 0x40 MLOAD PUSH1 0x0 PUSH1 0x40 MLOAD DUP1 DUP4 SUB DUP2 DUP6 DUP9 DUP9 CALL SWAP4 POP POP POP POP ISZERO DUP1 ISZERO PUSH2 0x56F JUMPI RETURNDATASIZE PUSH1 0x0 DUP1 RETURNDATACOPY RETURNDATASIZE PUSH1 0x0 REVERT JUMPDEST POP POP POP POP POP POP JUMP JUMPDEST PUSH1 0x2 PUSH1 0x0 SWAP1 SLOAD SWAP1 PUSH2 0x100 EXP SWAP1 DIV PUSH20 0xFFFFFFFFFFFFFFFFFFFFFFFFFFFFFFFFFFFFFFFF AND DUP2 JUMP JUMPDEST PUSH1 0x1 DUP1 PUSH1 0x3 DUP2 GT ISZERO PUSH2 0x5AB JUMPI INVALID JUMPDEST PUSH1 0x0 DUP1 SWAP1 SLOAD SWAP1 PUSH2 0x100 EXP SWAP1 DIV PUSH1 0xFF AND PUSH1 0x3 DUP2 GT ISZERO PUSH2 0x5C5 JUMPI INVALID JUMPDEST EQ PUSH2 0x5CF JUMPI PUSH1 0x0 DUP1 REVERT JUMPDEST PUSH1 0x40 MLOAD DUP1 PUSH1 0x40 ADD PUSH1 0x40 MSTORE DUP1 DUP4 DUP2 MSTORE PUSH1 0x20 ADD CALLVALUE DUP2 MSTORE POP PUSH1 0x1 PUSH1 0x0 CALLER PUSH20 0xFFFFFFFFFFFFFFFFFFFFFFFFFFFFFFFFFFFFFFFF AND PUSH20 0xFFFFFFFFFFFFFFFFFFFFFFFFFFFFFFFFFFFFFFFF AND DUP2 MSTORE PUSH1 0x20 ADD SWAP1 DUP2 MSTORE PUSH1 0x20 ADD PUSH1 0x0 KECCAK256 PUSH1 0x0 DUP3 ADD MLOAD DUP2 PUSH1 0x0 ADD SSTORE PUSH1 0x20 DUP3 ADD MLOAD DUP2 PUSH1 0x1 ADD SSTORE SWAP1 POP POP POP POP JUMP JUMPDEST PUSH1 0x0 DUP1 SWAP1 SLOAD SWAP1 PUSH2 0x100 EXP SWAP1 DIV PUSH1 0xFF AND DUP2 JUMP JUMPDEST PUSH1 0x3 SLOAD DUP2 JUMP JUMPDEST PUSH1 0x0 PUSH1 0x3 SLOAD DUP3 GT PUSH2 0x66A JUMPI PUSH1 0x0 SWAP1 POP PUSH2 0x77F JUMP JUMPDEST PUSH1 0x0 PUSH20 0xFFFFFFFFFFFFFFFFFFFFFFFFFFFFFFFFFFFFFFFF AND PUSH1 0x2 PUSH1 0x0 SWAP1 SLOAD SWAP1 PUSH2 0x100 EXP SWAP1 DIV PUSH20 0xFFFFFFFFFFFFFFFFFFFFFFFFFFFFFFFFFFFFFFFF AND PUSH20 0xFFFFFFFFFFFFFFFFFFFFFFFFFFFFFFFFFFFFFFFF AND EQ PUSH2 0x732 JUMPI PUSH1 0x3 SLOAD PUSH1 0x4 PUSH1 0x0 PUSH1 0x2 PUSH1 0x0 SWAP1 SLOAD SWAP1 PUSH2 0x100 EXP SWAP1 DIV PUSH20 0xFFFFFFFFFFFFFFFFFFFFFFFFFFFFFFFFFFFFFFFF AND PUSH20 0xFFFFFFFFFFFFFFFFFFFFFFFFFFFFFFFFFFFFFFFF AND PUSH20 0xFFFFFFFFFFFFFFFFFFFFFFFFFFFFFFFFFFFFFFFF AND DUP2 MSTORE PUSH1 0x20 ADD SWAP1 DUP2 MSTORE PUSH1 0x20 ADD PUSH1 0x0 KECCAK256 PUSH1 0x0 DUP3 DUP3 SLOAD ADD SWAP3 POP POP DUP2 SWAP1 SSTORE POP JUMPDEST DUP2 PUSH1 0x3 DUP2 SWAP1 SSTORE POP DUP3 PUSH1 0x2 PUSH1 0x0 PUSH2 0x100 EXP DUP2 SLOAD DUP2 PUSH20 0xFFFFFFFFFFFFFFFFFFFFFFFFFFFFFFFFFFFFFFFF MUL NOT AND SWAP1 DUP4 PUSH20 0xFFFFFFFFFFFFFFFFFFFFFFFFFFFFFFFFFFFFFFFF AND MUL OR SWAP1 SSTORE POP PUSH1 0x1 SWAP1 POP JUMPDEST SWAP3 SWAP2 POP POP JUMP INVALID LOG2 PUSH5 0x6970667358 0x22 SLT KECCAK256 DUP16 0xC8 0xDD 0xC0 0xD4 0x28 COINBASE CREATE SWAP3 0xB0 REVERT 0x28 0xB4 0xEF PUSH7 0x26AB1F1281EF0D CODECOPY PUSH32 0xAB0003F446FF6A7364736F6C6343000600003300000000000000000000000000 "
				},
				"gasEstimates": {
					"creation": {
						"codeDepositCost": "395800",
						"executionCost": "68126",
						"totalCost": "463926"
					},
					"external": {
						"auctionEnd()": "infinite",
						"bid(bytes32)": "41341",
						"changeState(uint8)": "22956",
						"highestBid()": "1071",
						"highestBidder()": "1053",
						"reveal(uint256,bytes32)": "infinite",
						"state()": "1117",
						"withdraw()": "infinite"
					},
					"internal": {
						"placeBid(address,uint256)": "65171"
					}
				},
				"methodIdentifiers": {
					"auctionEnd()": "2a24f46c",
					"bid(bytes32)": "957bb1e0",
					"changeState(uint8)": "268f1153",
					"highestBid()": "d57bde79",
					"highestBidder()": "91f90157",
					"reveal(uint256,bytes32)": "4036778f",
					"state()": "c19d93fb",
					"withdraw()": "3ccfd60b"
				}
			},
			"storageLayout": {
				"storage": [
					{
						"astId": 15,
						"contract": "Auction.sol:BlindAuction",
						"label": "state",
						"offset": 0,
						"slot": "0",
						"type": "t_enum(Phase)11"
					},
					{
						"astId": 17,
						"contract": "Auction.sol:BlindAuction",
						"label": "beneficiary",
						"offset": 1,
						"slot": "0",
						"type": "t_address_payable"
					},
					{
						"astId": 21,
						"contract": "Auction.sol:BlindAuction",
						"label": "bids",
						"offset": 0,
						"slot": "1",
						"type": "t_mapping(t_address,t_struct(Bid)6_storage)"
					},
					{
						"astId": 23,
						"contract": "Auction.sol:BlindAuction",
						"label": "highestBidder",
						"offset": 0,
						"slot": "2",
						"type": "t_address"
					},
					{
						"astId": 26,
						"contract": "Auction.sol:BlindAuction",
						"label": "highestBid",
						"offset": 0,
						"slot": "3",
						"type": "t_uint256"
					},
					{
						"astId": 30,
						"contract": "Auction.sol:BlindAuction",
						"label": "depositReturns",
						"offset": 0,
						"slot": "4",
						"type": "t_mapping(t_address,t_uint256)"
					}
				],
				"types": {
					"t_address": {
						"encoding": "inplace",
						"label": "address",
						"numberOfBytes": "20"
					},
					"t_address_payable": {
						"encoding": "inplace",
						"label": "address payable",
						"numberOfBytes": "20"
					},
					"t_bytes32": {
						"encoding": "inplace",
						"label": "bytes32",
						"numberOfBytes": "32"
					},
					"t_enum(Phase)11": {
						"encoding": "inplace",
						"label": "enum BlindAuction.Phase",
						"numberOfBytes": "1"
					},
					"t_mapping(t_address,t_struct(Bid)6_storage)": {
						"encoding": "mapping",
						"key": "t_address",
						"label": "mapping(address => struct BlindAuction.Bid)",
						"numberOfBytes": "32",
						"value": "t_struct(Bid)6_storage"
					},
					"t_mapping(t_address,t_uint256)": {
						"encoding": "mapping",
						"key": "t_address",
						"label": "mapping(address => uint256)",
						"numberOfBytes": "32",
						"value": "t_uint256"
					},
					"t_struct(Bid)6_storage": {
						"encoding": "inplace",
						"label": "struct BlindAuction.Bid",
						"members": [
							{
								"astId": 3,
								"contract": "Auction.sol:BlindAuction",
								"label": "blindedBid",
								"offset": 0,
								"slot": "0",
								"type": "t_bytes32"
							},
							{
								"astId": 5,
								"contract": "Auction.sol:BlindAuction",
								"label": "deposit",
								"offset": 0,
								"slot": "1",
								"type": "t_uint256"
							}
						],
						"numberOfBytes": "64"
					},
					"t_uint256": {
						"encoding": "inplace",
						"label": "uint256",
						"numberOfBytes": "32"
					}
				}
			},
			"userdoc": {
				"methods": {}
			}
		}
	}
}